{"abi":[{"type":"constructor","inputs":[{"name":"_minChildShareBps","type":"uint16","internalType":"uint16"},{"name":"_feeOpsBps","type":"uint16","internalType":"uint16"},{"name":"_everglowSeedHash","type":"bytes32","internalType":"bytes32"},{"name":"_walletWhitelistHash","type":"bytes32","internalType":"bytes32"},{"name":"_childAnchor","type":"address","internalType":"address"},{"name":"_validatorSet","type":"address","internalType":"address"},{"name":"_operationsWallet","type":"address","internalType":"address"},{"name":"_chainId","type":"uint256","internalType":"uint256"}],"stateMutability":"nonpayable"},{"type":"receive","stateMutability":"payable"},{"type":"function","name":"EIP712_VERSION","inputs":[],"outputs":[{"name":"","type":"string","internalType":"string"}],"stateMutability":"view"},{"type":"function","name":"MAX_BPS","inputs":[],"outputs":[{"name":"","type":"uint16","internalType":"uint16"}],"stateMutability":"view"},{"type":"function","name":"MAX_FEE_CAP","inputs":[],"outputs":[{"name":"","type":"uint16","internalType":"uint16"}],"stateMutability":"view"},{"type":"function","name":"MIN_CHILD_FLOOR","inputs":[],"outputs":[{"name":"","type":"uint16","internalType":"uint16"}],"stateMutability":"view"},{"type":"function","name":"RESONANCE_ATTESTATION_TYPEHASH","inputs":[],"outputs":[{"name":"","type":"bytes32","internalType":"bytes32"}],"stateMutability":"view"},{"type":"function","name":"calculateDistribution","inputs":[{"name":"_amount","type":"uint256","internalType":"uint256"}],"outputs":[{"name":"childShare","type":"uint256","internalType":"uint256"},{"name":"feeShare","type":"uint256","internalType":"uint256"},{"name":"remainingShare","type":"uint256","internalType":"uint256"}],"stateMutability":"view"},{"type":"function","name":"chainId","inputs":[],"outputs":[{"name":"","type":"uint256","internalType":"uint256"}],"stateMutability":"view"},{"type":"function","name":"childAnchor","inputs":[],"outputs":[{"name":"","type":"address","internalType":"address"}],"stateMutability":"view"},{"type":"function","name":"donateERC20","inputs":[{"name":"_token","type":"address","internalType":"address"},{"name":"_amount","type":"uint256","internalType":"uint256"},{"name":"_intentHash","type":"bytes32","internalType":"bytes32"},{"name":"_attestation","type":"bytes","internalType":"bytes"}],"outputs":[],"stateMutability":"nonpayable"},{"type":"function","name":"donateETH","inputs":[{"name":"_intentHash","type":"bytes32","internalType":"bytes32"},{"name":"_attestation","type":"bytes","internalType":"bytes"}],"outputs":[],"stateMutability":"payable"},{"type":"function","name":"everglowSeedHash","inputs":[],"outputs":[{"name":"","type":"bytes32","internalType":"bytes32"}],"stateMutability":"view"},{"type":"function","name":"feeOpsBps","inputs":[],"outputs":[{"name":"","type":"uint16","internalType":"uint16"}],"stateMutability":"view"},{"type":"function","name":"getHeldFunds","inputs":[{"name":"_txId","type":"bytes32","internalType":"bytes32"}],"outputs":[{"name":"","type":"tuple","internalType":"struct PLGGiftRouter.HeldFunds","components":[{"name":"donor","type":"address","internalType":"address"},{"name":"amount","type":"uint256","internalType":"uint256"},{"name":"token","type":"address","internalType":"address"},{"name":"timestamp","type":"uint256","internalType":"uint256"},{"name":"reason","type":"string","internalType":"string"},{"name":"resolved","type":"bool","internalType":"bool"}]}],"stateMutability":"view"},{"type":"function","name":"held","inputs":[{"name":"","type":"bytes32","internalType":"bytes32"}],"outputs":[{"name":"donor","type":"address","internalType":"address"},{"name":"amount","type":"uint256","internalType":"uint256"},{"name":"token","type":"address","internalType":"address"},{"name":"timestamp","type":"uint256","internalType":"uint256"},{"name":"reason","type":"string","internalType":"string"},{"name":"resolved","type":"bool","internalType":"bool"}],"stateMutability":"view"},{"type":"function","name":"initiateReview","inputs":[{"name":"_txId","type":"bytes32","internalType":"bytes32"}],"outputs":[],"stateMutability":"nonpayable"},{"type":"function","name":"isAttestor","inputs":[{"name":"","type":"address","internalType":"address"}],"outputs":[{"name":"","type":"bool","internalType":"bool"}],"stateMutability":"view"},{"type":"function","name":"isNode","inputs":[{"name":"","type":"address","internalType":"address"}],"outputs":[{"name":"","type":"bool","internalType":"bool"}],"stateMutability":"view"},{"type":"function","name":"minChildShareBps","inputs":[],"outputs":[{"name":"","type":"uint16","internalType":"uint16"}],"stateMutability":"view"},{"type":"function","name":"operationsWallet","inputs":[],"outputs":[{"name":"","type":"address","internalType":"address"}],"stateMutability":"view"},{"type":"function","name":"resolveHold","inputs":[{"name":"_txId","type":"bytes32","internalType":"bytes32"},{"name":"_resolution","type":"string","internalType":"string"},{"name":"_target","type":"address","internalType":"address"}],"outputs":[],"stateMutability":"nonpayable"},{"type":"function","name":"setAttestor","inputs":[{"name":"_attestor","type":"address","internalType":"address"},{"name":"_approved","type":"bool","internalType":"bool"}],"outputs":[],"stateMutability":"nonpayable"},{"type":"function","name":"setChildAnchor","inputs":[{"name":"_newChildAnchor","type":"address","internalType":"address"}],"outputs":[],"stateMutability":"nonpayable"},{"type":"function","name":"setFeeOpsBps","inputs":[{"name":"_newBps","type":"uint16","internalType":"uint16"}],"outputs":[],"stateMutability":"nonpayable"},{"type":"function","name":"setMinChildShareBps","inputs":[{"name":"_newBps","type":"uint16","internalType":"uint16"}],"outputs":[],"stateMutability":"nonpayable"},{"type":"function","name":"setNode","inputs":[{"name":"_node","type":"address","internalType":"address"},{"name":"_approved","type":"bool","internalType":"bool"}],"outputs":[],"stateMutability":"nonpayable"},{"type":"function","name":"setOperationsWallet","inputs":[{"name":"_newWallet","type":"address","internalType":"address"}],"outputs":[],"stateMutability":"nonpayable"},{"type":"function","name":"usedNonces","inputs":[{"name":"","type":"bytes32","internalType":"bytes32"}],"outputs":[{"name":"","type":"bool","internalType":"bool"}],"stateMutability":"view"},{"type":"function","name":"validatorSet","inputs":[],"outputs":[{"name":"","type":"address","internalType":"address"}],"stateMutability":"view"},{"type":"function","name":"walletWhitelistHash","inputs":[],"outputs":[{"name":"","type":"bytes32","internalType":"bytes32"}],"stateMutability":"view"},{"type":"event","name":"AttestorChanged","inputs":[{"name":"attestor","type":"address","indexed":true,"internalType":"address"},{"name":"status","type":"bool","indexed":false,"internalType":"bool"}],"anonymous":false},{"type":"event","name":"ChildAnchorRouted","inputs":[{"name":"childAddress","type":"address","indexed":true,"internalType":"address"},{"name":"amount","type":"uint256","indexed":false,"internalType":"uint256"},{"name":"token","type":"address","indexed":true,"internalType":"address"},{"name":"transactionId","type":"bytes32","indexed":true,"internalType":"bytes32"}],"anonymous":false},{"type":"event","name":"ChildShareTooSmall","inputs":[{"name":"sender","type":"address","indexed":true,"internalType":"address"},{"name":"amount","type":"uint256","indexed":false,"internalType":"uint256"},{"name":"token","type":"address","indexed":true,"internalType":"address"}],"anonymous":false},{"type":"event","name":"EverglowFiltered","inputs":[{"name":"txId","type":"bytes32","indexed":true,"internalType":"bytes32"},{"name":"passed","type":"bool","indexed":false,"internalType":"bool"},{"name":"reason","type":"string","indexed":false,"internalType":"string"}],"anonymous":false},{"type":"event","name":"FundsHeld","inputs":[{"name":"txId","type":"bytes32","indexed":true,"internalType":"bytes32"},{"name":"donor","type":"address","indexed":true,"internalType":"address"},{"name":"amount","type":"uint256","indexed":false,"internalType":"uint256"},{"name":"reason","type":"string","indexed":false,"internalType":"string"}],"anonymous":false},{"type":"event","name":"FundsReceived","inputs":[{"name":"sender","type":"address","indexed":true,"internalType":"address"},{"name":"amount","type":"uint256","indexed":false,"internalType":"uint256"},{"name":"token","type":"address","indexed":true,"internalType":"address"},{"name":"intentHash","type":"bytes32","indexed":true,"internalType":"bytes32"}],"anonymous":false},{"type":"event","name":"Genesis","inputs":[{"name":"minChildShareBps","type":"uint16","indexed":true,"internalType":"uint16"},{"name":"feeOpsBps","type":"uint16","indexed":true,"internalType":"uint16"},{"name":"everglowSeedHash","type":"bytes32","indexed":false,"internalType":"bytes32"},{"name":"walletWhitelistHash","type":"bytes32","indexed":false,"internalType":"bytes32"},{"name":"validatorSet","type":"address","indexed":true,"internalType":"address"},{"name":"chainId","type":"uint256","indexed":false,"internalType":"uint256"}],"anonymous":false},{"type":"event","name":"NodeRouted","inputs":[{"name":"nodeAddress","type":"address","indexed":true,"internalType":"address"},{"name":"amount","type":"uint256","indexed":false,"internalType":"uint256"},{"name":"token","type":"address","indexed":true,"internalType":"address"},{"name":"transactionId","type":"bytes32","indexed":true,"internalType":"bytes32"}],"anonymous":false},{"type":"event","name":"OperationsFunded","inputs":[{"name":"operationsWallet","type":"address","indexed":true,"internalType":"address"},{"name":"amount","type":"uint256","indexed":false,"internalType":"uint256"},{"name":"token","type":"address","indexed":true,"internalType":"address"}],"anonymous":false},{"type":"event","name":"ParamsUpdated","inputs":[{"name":"field","type":"string","indexed":true,"internalType":"string"},{"name":"oldValue","type":"uint256","indexed":false,"internalType":"uint256"},{"name":"newValue","type":"uint256","indexed":false,"internalType":"uint256"}],"anonymous":false},{"type":"event","name":"Resolved","inputs":[{"name":"txId","type":"bytes32","indexed":true,"internalType":"bytes32"},{"name":"resolution","type":"string","indexed":false,"internalType":"string"},{"name":"target","type":"address","indexed":true,"internalType":"address"}],"anonymous":false},{"type":"event","name":"ResonanceAttested","inputs":[{"name":"hash","type":"bytes32","indexed":true,"internalType":"bytes32"},{"name":"attestor","type":"address","indexed":true,"internalType":"address"},{"name":"level","type":"uint8","indexed":false,"internalType":"uint8"}],"anonymous":false},{"type":"event","name":"ReviewStarted","inputs":[{"name":"txId","type":"bytes32","indexed":true,"internalType":"bytes32"},{"name":"reviewInitiator","type":"address","indexed":true,"internalType":"address"}],"anonymous":false},{"type":"event","name":"WhitelistChanged","inputs":[{"name":"node","type":"address","indexed":true,"internalType":"address"},{"name":"status","type":"bool","indexed":false,"internalType":"bool"}],"anonymous":false}],"bytecode":{"object":"0x608060405234801561000f575f5ffd5b506040516159073803806159078339818101604052810190610031919061064e565b468114610073576040517f08c379a000000000000000000000000000000000000000000000000000000000815260040161006a90610759565b60405180910390fd5b5f73ffffffffffffffffffffffffffffffffffffffff168473ffffffffffffffffffffffffffffffffffffffff16036100e1576040517f08c379a00000000000000000000000000000000000000000000000000000000081526004016100d8906107c1565b60405180910390fd5b5f73ffffffffffffffffffffffffffffffffffffffff168373ffffffffffffffffffffffffffffffffffffffff160361014f576040517f08c379a000000000000000000000000000000000000000000000000000000000815260040161014690610829565b60405180910390fd5b5f73ffffffffffffffffffffffffffffffffffffffff168273ffffffffffffffffffffffffffffffffffffffff16036101bd576040517f08c379a00000000000000000000000000000000000000000000000000000000081526004016101b490610891565b60405180910390fd5b5f5f1b8603610201576040517f08c379a00000000000000000000000000000000000000000000000000000000081526004016101f8906108f9565b60405180910390fd5b6109c461ffff168861ffff16101561024e576040517f08c379a000000000000000000000000000000000000000000000000000000000815260040161024590610987565b60405180910390fd5b6103e861ffff168761ffff16111561029b576040517f08c379a0000000000000000000000000000000000000000000000000000000008152600401610292906109ef565b60405180910390fd5b61271061ffff168761ffff168961ffff166102b69190610a3a565b11156102f7576040517f08c379a00000000000000000000000000000000000000000000000000000000081526004016102ee90610ab7565b60405180910390fd5b8760015f6101000a81548161ffff021916908361ffff16021790555086600160026101000a81548161ffff021916908361ffff16021790555085600281905550846003819055508360045f6101000a81548173ffffffffffffffffffffffffffffffffffffffff021916908373ffffffffffffffffffffffffffffffffffffffff1602179055508260055f6101000a81548173ffffffffffffffffffffffffffffffffffffffff021916908373ffffffffffffffffffffffffffffffffffffffff1602179055508160075f6101000a81548173ffffffffffffffffffffffffffffffffffffffff021916908373ffffffffffffffffffffffffffffffffffffffff1602179055508060068190555061041361048160201b60201c565b5f819055508273ffffffffffffffffffffffffffffffffffffffff168761ffff168961ffff167f5f0d4546f67f67f2921a909293269194ea01ae276adf330f7b2cd603f25b542e89898660405161046c93929190610af3565b60405180910390a45050505050505050610b88565b5f5f7f8b73c3c69bb8fe3d512ecc4cf759cc79239f7b179b0ffacaa9a75d522b39400f9050806040518060400160405280600d81526020017f504c4747696674526f7574657200000000000000000000000000000000000000815250805190602001206040518060400160405280600181526020017f3100000000000000000000000000000000000000000000000000000000000000815250805190602001204630604051602001610537959493929190610b37565b6040516020818303038152906040528051906020012091505090565b5f5ffd5b5f61ffff82169050919050565b61056d81610557565b8114610577575f5ffd5b50565b5f8151905061058881610564565b92915050565b5f819050919050565b6105a08161058e565b81146105aa575f5ffd5b50565b5f815190506105bb81610597565b92915050565b5f73ffffffffffffffffffffffffffffffffffffffff82169050919050565b5f6105ea826105c1565b9050919050565b6105fa816105e0565b8114610604575f5ffd5b50565b5f81519050610615816105f1565b92915050565b5f819050919050565b61062d8161061b565b8114610637575f5ffd5b50565b5f8151905061064881610624565b92915050565b5f5f5f5f5f5f5f5f610100898b03121561066b5761066a610553565b5b5f6106788b828c0161057a565b98505060206106898b828c0161057a565b975050604061069a8b828c016105ad565b96505060606106ab8b828c016105ad565b95505060806106bc8b828c01610607565b94505060a06106cd8b828c01610607565b93505060c06106de8b828c01610607565b92505060e06106ef8b828c0161063a565b9150509295985092959890939650565b5f82825260208201905092915050565b7f57726f6e6720636861696e0000000000000000000000000000000000000000005f82015250565b5f610743600b836106ff565b915061074e8261070f565b602082019050919050565b5f6020820190508181035f83015261077081610737565b9050919050565b7f496e76616c6964206368696c6420616e63686f720000000000000000000000005f82015250565b5f6107ab6014836106ff565b91506107b682610777565b602082019050919050565b5f6020820190508181035f8301526107d88161079f565b9050919050565b7f496e76616c69642076616c696461746f720000000000000000000000000000005f82015250565b5f6108136011836106ff565b915061081e826107df565b602082019050919050565b5f6020820190508181035f83015261084081610807565b9050919050565b7f496e76616c6964206f7065726174696f6e732077616c6c6574000000000000005f82015250565b5f61087b6019836106ff565b915061088682610847565b602082019050919050565b5f6020820190508181035f8301526108a88161086f565b9050919050565b7f496e76616c6964207365656420686173680000000000000000000000000000005f82015250565b5f6108e36011836106ff565b91506108ee826108af565b602082019050919050565b5f6020820190508181035f830152610910816108d7565b9050919050565b7f4368696c642073686172652062656c6f7720666c6f6f7220286d696e203235305f8201527f3020627073290000000000000000000000000000000000000000000000000000602082015250565b5f6109716026836106ff565b915061097c82610917565b604082019050919050565b5f6020820190508181035f83015261099e81610965565b9050919050565b7f46656520657863656564732063617020286d61782031303030206270732900005f82015250565b5f6109d9601e836106ff565b91506109e4826109a5565b602082019050919050565b5f6020820190508181035f830152610a06816109cd565b9050919050565b7f4e487b71000000000000000000000000000000000000000000000000000000005f52601160045260245ffd5b5f610a448261061b565b9150610a4f8361061b565b9250828201905080821115610a6757610a66610a0d565b5b92915050565b7f546f74616c2042505320657863656564732031303025000000000000000000005f82015250565b5f610aa16016836106ff565b9150610aac82610a6d565b602082019050919050565b5f6020820190508181035f830152610ace81610a95565b9050919050565b610ade8161058e565b82525050565b610aed8161061b565b82525050565b5f606082019050610b065f830186610ad5565b610b136020830185610ad5565b610b206040830184610ae4565b949350505050565b610b31816105e0565b82525050565b5f60a082019050610b4a5f830188610ad5565b610b576020830187610ad5565b610b646040830186610ad5565b610b716060830185610ae4565b610b7e6080830184610b28565b9695505050505050565b614d7280610b955f395ff3fe6080604052600436106101c5575f3560e01c80637354a3a3116100f6578063edb91b9a11610094578063fb5d1c4111610063578063fb5d1c411461062b578063fd72e22a14610655578063fd967f471461067f578063feb61724146106a9576101cc565b8063edb91b9a14610589578063ee5ecc89146105b1578063eedba758146105d9578063f6294e8614610601576101cc565b80639a8a0592116100d05780639a8a0592146104cd578063a9339d7e146104f7578063d71b77ae14610535578063eccec5a81461055f576101cc565b80637354a3a31461045d57806388529c43146104875780639426e226146104a3576101cc565b806345df0f91116101635780634d223f651161013d5780634d223f65146103a75780635349f76b146103cf5780635bcb17c4146103f75780635c2fdaa714610433576101cc565b806345df0f9114610314578063477809b11461033e5780634b252b5c1461037f576101cc565b80632856542c1161019f5780632856542c146102605780632e2f4e241461028857806341724dd0146102c457806341addb7b146102ec576101cc565b806301750152146101d057806312470b7b1461020c578063180a4eb914610236576101cc565b366101cc57005b5f5ffd5b3480156101db575f5ffd5b506101f660048036038101906101f191906130e4565b6106e5565b6040516102039190613129565b60405180910390f35b348015610217575f5ffd5b50610220610702565b60405161022d9190613151565b60405180910390f35b348015610241575f5ffd5b5061024a610727565b6040516102579190613182565b60405180910390f35b34801561026b575f5ffd5b5061028660048036038101906102819190613259565b61074b565b005b348015610293575f5ffd5b506102ae60048036038101906102a991906130e4565b610821565b6040516102bb9190613129565b60405180910390f35b3480156102cf575f5ffd5b506102ea60048036038101906102e59190613307565b61083e565b005b3480156102f7575f5ffd5b50610312600480360381019061030d9190613307565b6109e1565b005b34801561031f575f5ffd5b50610328610b84565b6040516103359190613182565b60405180910390f35b348015610349575f5ffd5b50610364600480360381019061035f9190613345565b610b8a565b604051610376969594939291906133ef565b60405180910390f35b34801561038a575f5ffd5b506103a560048036038101906103a091906130e4565b610c92565b005b3480156103b2575f5ffd5b506103cd60048036038101906103c8919061348c565b610e71565b005b3480156103da575f5ffd5b506103f560048036038101906103f09190613345565b610fd3565b005b348015610402575f5ffd5b5061041d60048036038101906104189190613345565b611160565b60405161042a91906135b2565b60405180910390f35b34801561043e575f5ffd5b506104476112f2565b60405161045491906135e1565b60405180910390f35b348015610468575f5ffd5b506104716112f8565b60405161047e91906135e1565b60405180910390f35b6104a1600480360381019061049c91906135fa565b61130b565b005b3480156104ae575f5ffd5b506104b7611361565b6040516104c49190613151565b60405180910390f35b3480156104d8575f5ffd5b506104e1611386565b6040516104ee9190613657565b60405180910390f35b348015610502575f5ffd5b5061051d60048036038101906105189190613670565b61138c565b60405161052c9392919061369b565b60405180910390f35b348015610540575f5ffd5b50610549611414565b60405161055691906135e1565b60405180910390f35b34801561056a575f5ffd5b5061057361141a565b60405161058091906136d0565b60405180910390f35b348015610594575f5ffd5b506105af60048036038101906105aa919061348c565b611453565b005b3480156105bc575f5ffd5b506105d760048036038101906105d291906130e4565b611600565b005b3480156105e4575f5ffd5b506105ff60048036038101906105fa9190613818565b6117df565b005b34801561060c575f5ffd5b5061061561213c565b6040516106229190613182565b60405180910390f35b348015610636575f5ffd5b5061063f612142565b60405161064c91906135e1565b60405180910390f35b348015610660575f5ffd5b50610669612156565b6040516106769190613151565b60405180910390f35b34801561068a575f5ffd5b5061069361217b565b6040516106a091906135e1565b60405180910390f35b3480156106b4575f5ffd5b506106cf60048036038101906106ca9190613345565b612181565b6040516106dc9190613129565b60405180910390f35b6008602052805f5260405f205f915054906101000a900460ff1681565b60045f9054906101000a900473ffffffffffffffffffffffffffffffffffffffff1681565b7f7235363e5a3fdced7e390d4ba4e239d5bae8ae7b0a72efd25a89e26559f03a6e81565b835f811161078e576040517f08c379a0000000000000000000000000000000000000000000000000000000008152600401610785906138ce565b60405180910390fd5b8573ffffffffffffffffffffffffffffffffffffffff166323b872dd3330886040518463ffffffff1660e01b81526004016107cb939291906138ec565b6020604051808303815f875af11580156107e7573d5f5f3e3d5ffd5b505050506040513d601f19601f8201168201806040525081019061080b9190613935565b50610819858786868661219e565b505050505050565b6009602052805f5260405f205f915054906101000a900460ff1681565b60055f9054906101000a900473ffffffffffffffffffffffffffffffffffffffff1673ffffffffffffffffffffffffffffffffffffffff163373ffffffffffffffffffffffffffffffffffffffff16146108cd576040517f08c379a00000000000000000000000000000000000000000000000000000000081526004016108c4906139aa565b60405180910390fd5b5f73ffffffffffffffffffffffffffffffffffffffff168273ffffffffffffffffffffffffffffffffffffffff160361093b576040517f08c379a000000000000000000000000000000000000000000000000000000000815260040161093290613a12565b60405180910390fd5b8060095f8473ffffffffffffffffffffffffffffffffffffffff1673ffffffffffffffffffffffffffffffffffffffff1681526020019081526020015f205f6101000a81548160ff0219169083151502179055508173ffffffffffffffffffffffffffffffffffffffff167f16ed443670a97ca87ed8584bc5d8e794bb98255cb8a3baa5afd7c718b846d090826040516109d59190613129565b60405180910390a25050565b60055f9054906101000a900473ffffffffffffffffffffffffffffffffffffffff1673ffffffffffffffffffffffffffffffffffffffff163373ffffffffffffffffffffffffffffffffffffffff1614610a70576040517f08c379a0000000000000000000000000000000000000000000000000000000008152600401610a67906139aa565b60405180910390fd5b5f73ffffffffffffffffffffffffffffffffffffffff168273ffffffffffffffffffffffffffffffffffffffff1603610ade576040517f08c379a0000000000000000000000000000000000000000000000000000000008152600401610ad590613a7a565b60405180910390fd5b8060085f8473ffffffffffffffffffffffffffffffffffffffff1673ffffffffffffffffffffffffffffffffffffffff1681526020019081526020015f205f6101000a81548160ff0219169083151502179055508173ffffffffffffffffffffffffffffffffffffffff167fb840a1dbd8b09a3dc45161bba92dfb9aba643c0e44c085a447f839d1d02cf13b82604051610b789190613129565b60405180910390a25050565b60025481565b600a602052805f5260405f205f91509050805f015f9054906101000a900473ffffffffffffffffffffffffffffffffffffffff1690806001015490806002015f9054906101000a900473ffffffffffffffffffffffffffffffffffffffff1690806003015490806004018054610bff90613ac5565b80601f0160208091040260200160405190810160405280929190818152602001828054610c2b90613ac5565b8015610c765780601f10610c4d57610100808354040283529160200191610c76565b820191905f5260205f20905b815481529060010190602001808311610c5957829003601f168201915b505050505090806005015f9054906101000a900460ff16905086565b60055f9054906101000a900473ffffffffffffffffffffffffffffffffffffffff1673ffffffffffffffffffffffffffffffffffffffff163373ffffffffffffffffffffffffffffffffffffffff1614610d21576040517f08c379a0000000000000000000000000000000000000000000000000000000008152600401610d18906139aa565b60405180910390fd5b5f73ffffffffffffffffffffffffffffffffffffffff168173ffffffffffffffffffffffffffffffffffffffff1603610d8f576040517f08c379a0000000000000000000000000000000000000000000000000000000008152600401610d8690613b3f565b60405180910390fd5b5f60045f9054906101000a900473ffffffffffffffffffffffffffffffffffffffff1690508160045f6101000a81548173ffffffffffffffffffffffffffffffffffffffff021916908373ffffffffffffffffffffffffffffffffffffffff160217905550604051610e0090613bb1565b60405180910390207fc194909a05d344d541a4418f8a1afcb8c4a13f35e87d3faf2b4d1f736a2f00b68273ffffffffffffffffffffffffffffffffffffffff168473ffffffffffffffffffffffffffffffffffffffff16604051610e65929190613bc5565b60405180910390a25050565b60055f9054906101000a900473ffffffffffffffffffffffffffffffffffffffff1673ffffffffffffffffffffffffffffffffffffffff163373ffffffffffffffffffffffffffffffffffffffff1614610f00576040517f08c379a0000000000000000000000000000000000000000000000000000000008152600401610ef7906139aa565b60405180910390fd5b6103e861ffff168161ffff161115610f4d576040517f08c379a0000000000000000000000000000000000000000000000000000000008152600401610f4490613c36565b60405180910390fd5b5f600160029054906101000a900461ffff1661ffff16905081600160026101000a81548161ffff021916908361ffff160217905550604051610f8e90613c9e565b60405180910390207fc194909a05d344d541a4418f8a1afcb8c4a13f35e87d3faf2b4d1f736a2f00b68284604051610fc7929190613ceb565b60405180910390a25050565b60055f9054906101000a900473ffffffffffffffffffffffffffffffffffffffff1673ffffffffffffffffffffffffffffffffffffffff163373ffffffffffffffffffffffffffffffffffffffff1614611062576040517f08c379a0000000000000000000000000000000000000000000000000000000008152600401611059906139aa565b60405180910390fd5b5f600a5f8381526020019081526020015f2060010154116110b8576040517f08c379a00000000000000000000000000000000000000000000000000000000081526004016110af90613d82565b60405180910390fd5b600a5f8281526020019081526020015f206005015f9054906101000a900460ff1615611119576040517f08c379a000000000000000000000000000000000000000000000000000000000815260040161111090613dea565b60405180910390fd5b3373ffffffffffffffffffffffffffffffffffffffff16817fcf96fcafd40fd3a299acc199a9ef1f33d3b7039d43191a65acb6c4e2275fe68260405160405180910390a350565b61116861301a565b600a5f8381526020019081526020015f206040518060c00160405290815f82015f9054906101000a900473ffffffffffffffffffffffffffffffffffffffff1673ffffffffffffffffffffffffffffffffffffffff1673ffffffffffffffffffffffffffffffffffffffff16815260200160018201548152602001600282015f9054906101000a900473ffffffffffffffffffffffffffffffffffffffff1673ffffffffffffffffffffffffffffffffffffffff1673ffffffffffffffffffffffffffffffffffffffff1681526020016003820154815260200160048201805461125190613ac5565b80601f016020809104026020016040519081016040528092919081815260200182805461127d90613ac5565b80156112c85780601f1061129f576101008083540402835291602001916112c8565b820191905f5260205f20905b8154815290600101906020018083116112ab57829003601f168201915b50505050508152602001600582015f9054906101000a900460ff1615151515815250509050919050565b6109c481565b60015f9054906101000a900461ffff1681565b345f811161134e576040517f08c379a0000000000000000000000000000000000000000000000000000000008152600401611345906138ce565b60405180910390fd5b61135b345f86868661219e565b50505050565b60055f9054906101000a900473ffffffffffffffffffffffffffffffffffffffff1681565b60065481565b5f5f5f61271061ffff1660015f9054906101000a900461ffff1661ffff16856113b59190613e35565b6113bf9190613ea3565b925061271061ffff16600160029054906101000a900461ffff1661ffff16856113e89190613e35565b6113f29190613ea3565b91508183856114019190613ed3565b61140b9190613ed3565b90509193909250565b6103e881565b6040518060400160405280600181526020017f310000000000000000000000000000000000000000000000000000000000000081525081565b60055f9054906101000a900473ffffffffffffffffffffffffffffffffffffffff1673ffffffffffffffffffffffffffffffffffffffff163373ffffffffffffffffffffffffffffffffffffffff16146114e2576040517f08c379a00000000000000000000000000000000000000000000000000000000081526004016114d9906139aa565b60405180910390fd5b6109c461ffff168161ffff16101561152f576040517f08c379a000000000000000000000000000000000000000000000000000000000815260040161152690613f50565b60405180910390fd5b61271061ffff168161ffff16111561157c576040517f08c379a000000000000000000000000000000000000000000000000000000000815260040161157390613fb8565b60405180910390fd5b5f60015f9054906101000a900461ffff1661ffff1690508160015f6101000a81548161ffff021916908361ffff1602179055506040516115bb90614020565b60405180910390207fc194909a05d344d541a4418f8a1afcb8c4a13f35e87d3faf2b4d1f736a2f00b682846040516115f4929190613ceb565b60405180910390a25050565b60055f9054906101000a900473ffffffffffffffffffffffffffffffffffffffff1673ffffffffffffffffffffffffffffffffffffffff163373ffffffffffffffffffffffffffffffffffffffff161461168f576040517f08c379a0000000000000000000000000000000000000000000000000000000008152600401611686906139aa565b60405180910390fd5b5f73ffffffffffffffffffffffffffffffffffffffff168173ffffffffffffffffffffffffffffffffffffffff16036116fd576040517f08c379a00000000000000000000000000000000000000000000000000000000081526004016116f490613b3f565b60405180910390fd5b5f60075f9054906101000a900473ffffffffffffffffffffffffffffffffffffffff1690508160075f6101000a81548173ffffffffffffffffffffffffffffffffffffffff021916908373ffffffffffffffffffffffffffffffffffffffff16021790555060405161176e9061407e565b60405180910390207fc194909a05d344d541a4418f8a1afcb8c4a13f35e87d3faf2b4d1f736a2f00b68273ffffffffffffffffffffffffffffffffffffffff168473ffffffffffffffffffffffffffffffffffffffff166040516117d3929190613bc5565b60405180910390a25050565b60055f9054906101000a900473ffffffffffffffffffffffffffffffffffffffff1673ffffffffffffffffffffffffffffffffffffffff163373ffffffffffffffffffffffffffffffffffffffff161461186e576040517f08c379a0000000000000000000000000000000000000000000000000000000008152600401611865906139aa565b60405180910390fd5b5f600a5f8581526020019081526020015f2090505f8160010154116118c8576040517f08c379a00000000000000000000000000000000000000000000000000000000081526004016118bf906140dc565b60405180910390fd5b806005015f9054906101000a900460ff1615611919576040517f08c379a000000000000000000000000000000000000000000000000000000000815260040161191090613dea565b60405180910390fd5b6001816005015f6101000a81548160ff02191690831515021790555060405160200161194490614144565b604051602081830303815290604052805190602001208360405160200161196b9190614188565b6040516020818303038152906040528051906020012003611bb9575f73ffffffffffffffffffffffffffffffffffffffff16816002015f9054906101000a900473ffffffffffffffffffffffffffffffffffffffff1673ffffffffffffffffffffffffffffffffffffffff1603611ab0575f815f015f9054906101000a900473ffffffffffffffffffffffffffffffffffffffff1673ffffffffffffffffffffffffffffffffffffffff168260010154604051611a27906141cb565b5f6040518083038185875af1925050503d805f8114611a61576040519150601f19603f3d011682016040523d82523d5f602084013e611a66565b606091505b5050905080611aaa576040517f08c379a0000000000000000000000000000000000000000000000000000000008152600401611aa190614229565b60405180910390fd5b50611bb4565b806002015f9054906101000a900473ffffffffffffffffffffffffffffffffffffffff1673ffffffffffffffffffffffffffffffffffffffff1663a9059cbb825f015f9054906101000a900473ffffffffffffffffffffffffffffffffffffffff1683600101546040518363ffffffff1660e01b8152600401611b34929190614247565b6020604051808303815f875af1158015611b50573d5f5f3e3d5ffd5b505050506040513d601f19601f82011682018060405250810190611b749190613935565b611bb3576040517f08c379a0000000000000000000000000000000000000000000000000000000008152600401611baa906142b8565b60405180910390fd5b5b6120e7565b604051602001611bc890614320565b6040516020818303038152906040528051906020012083604051602001611bef9190614188565b6040516020818303038152906040528051906020012003611e3b575f73ffffffffffffffffffffffffffffffffffffffff16816002015f9054906101000a900473ffffffffffffffffffffffffffffffffffffffff1673ffffffffffffffffffffffffffffffffffffffff1603611d33575f60045f9054906101000a900473ffffffffffffffffffffffffffffffffffffffff1673ffffffffffffffffffffffffffffffffffffffff168260010154604051611caa906141cb565b5f6040518083038185875af1925050503d805f8114611ce4576040519150601f19603f3d011682016040523d82523d5f602084013e611ce9565b606091505b5050905080611d2d576040517f08c379a0000000000000000000000000000000000000000000000000000000008152600401611d249061437e565b60405180910390fd5b50611e36565b806002015f9054906101000a900473ffffffffffffffffffffffffffffffffffffffff1673ffffffffffffffffffffffffffffffffffffffff1663a9059cbb60045f9054906101000a900473ffffffffffffffffffffffffffffffffffffffff1683600101546040518363ffffffff1660e01b8152600401611db6929190614247565b6020604051808303815f875af1158015611dd2573d5f5f3e3d5ffd5b505050506040513d601f19601f82011682018060405250810190611df69190613935565b611e35576040517f08c379a0000000000000000000000000000000000000000000000000000000008152600401611e2c906142b8565b60405180910390fd5b5b6120e6565b604051602001611e4a906143e6565b6040516020818303038152906040528051906020012083604051602001611e719190614188565b60405160208183030381529060405280519060200120036120e5575f73ffffffffffffffffffffffffffffffffffffffff168273ffffffffffffffffffffffffffffffffffffffff1603611efa576040517f08c379a0000000000000000000000000000000000000000000000000000000008152600401611ef190614444565b60405180910390fd5b5f73ffffffffffffffffffffffffffffffffffffffff16816002015f9054906101000a900473ffffffffffffffffffffffffffffffffffffffff1673ffffffffffffffffffffffffffffffffffffffff1603612002575f8273ffffffffffffffffffffffffffffffffffffffff168260010154604051611f79906141cb565b5f6040518083038185875af1925050503d805f8114611fb3576040519150601f19603f3d011682016040523d82523d5f602084013e611fb8565b606091505b5050905080611ffc576040517f08c379a0000000000000000000000000000000000000000000000000000000008152600401611ff3906144ac565b60405180910390fd5b506120e4565b806002015f9054906101000a900473ffffffffffffffffffffffffffffffffffffffff1673ffffffffffffffffffffffffffffffffffffffff1663a9059cbb8383600101546040518363ffffffff1660e01b8152600401612064929190614247565b6020604051808303815f875af1158015612080573d5f5f3e3d5ffd5b505050506040513d601f19601f820116820180604052508101906120a49190613935565b6120e3576040517f08c379a00000000000000000000000000000000000000000000000000000000081526004016120da906142b8565b60405180910390fd5b5b5b5b5b8173ffffffffffffffffffffffffffffffffffffffff16847f5c89abac7ac45c8e3d09ff1d93532ee98b621f3be43f201b8966e3a1d43871958560405161212e91906136d0565b60405180910390a350505050565b60035481565b600160029054906101000a900461ffff1681565b60075f9054906101000a900473ffffffffffffffffffffffffffffffffffffffff1681565b61271081565b600b602052805f5260405f205f915054906101000a900460ff1681565b5f33868642436040516020016121b895949392919061452f565b6040516020818303038152906040528051906020012090505f61271061ffff1660015f9054906101000a900461ffff1661ffff16886121f79190613e35565b6122019190613ea3565b90505f61271061ffff16600160029054906101000a900461ffff1661ffff168961222b9190613e35565b6122359190613ea3565b90505f81838a6122459190613ed3565b61224f9190613ed3565b90505f83036122f8578773ffffffffffffffffffffffffffffffffffffffff163373ffffffffffffffffffffffffffffffffffffffff167f89c3c5f936bd2aacb9fa7138ce96895a718edf450ebd0c8cef4de2bdd42a43be8b6040516122b59190613657565b60405180910390a36040517f08c379a00000000000000000000000000000000000000000000000000000000081526004016122ef906145d7565b60405180910390fd5b5f6123088589338d8d8c8c61244c565b9050806123935761235185338c8c6040518060400160405280601d81526020017f534545442066696c7465722076616c69646174696f6e206661696c6564000000815250612552565b847f49b584275be4a4d994205ed43431aeb2032529552b838f0d98ed6a5b94e3ad145f604051612381919061463f565b60405180910390a25050505050612445565b847f49b584275be4a4d994205ed43431aeb2032529552b838f0d98ed6a5b94e3ad1460016040516123c491906146b5565b60405180910390a26123d9858585858d6126ec565b878973ffffffffffffffffffffffffffffffffffffffff163373ffffffffffffffffffffffffffffffffffffffff167f30ade6701143dc9532d82f356fc5b4dd544d5fe5fd6539e5cb786b34cbc04a768d6040516124379190613657565b60405180910390a450505050505b5050505050565b5f5f5f1b870361245e575f9050612547565b5f8383905003612470575f9050612547565b60418383905014612483575f9050612547565b5f612493898888888c8989612e33565b905060095f8273ffffffffffffffffffffffffffffffffffffffff1673ffffffffffffffffffffffffffffffffffffffff1681526020019081526020015f205f9054906101000a900460ff166124ec575f915050612547565b600b5f8a81526020019081526020015f205f9054906101000a900460ff1615612518575f915050612547565b6001600b5f8b81526020019081526020015f205f6101000a81548160ff02191690831515021790555060019150505b979650505050505050565b6040518060c001604052808573ffffffffffffffffffffffffffffffffffffffff1681526020018481526020018373ffffffffffffffffffffffffffffffffffffffff1681526020014281526020018281526020015f1515815250600a5f8781526020019081526020015f205f820151815f015f6101000a81548173ffffffffffffffffffffffffffffffffffffffff021916908373ffffffffffffffffffffffffffffffffffffffff160217905550602082015181600101556040820151816002015f6101000a81548173ffffffffffffffffffffffffffffffffffffffff021916908373ffffffffffffffffffffffffffffffffffffffff1602179055506060820151816003015560808201518160040190816126719190614889565b5060a0820151816005015f6101000a81548160ff0219169083151502179055509050508373ffffffffffffffffffffffffffffffffffffffff16857f87c5b92b1b6e434434112fb894a7b50b77988c5a2b5892ca1a1ea62f51ba6c9e85846040516126dd929190614958565b60405180910390a35050505050565b5f73ffffffffffffffffffffffffffffffffffffffff168173ffffffffffffffffffffffffffffffffffffffff16036127ee575f60045f9054906101000a900473ffffffffffffffffffffffffffffffffffffffff1673ffffffffffffffffffffffffffffffffffffffff1685604051612765906141cb565b5f6040518083038185875af1925050503d805f811461279f576040519150601f19603f3d011682016040523d82523d5f602084013e6127a4565b606091505b50509050806127e8576040517f08c379a00000000000000000000000000000000000000000000000000000000081526004016127df906149d0565b60405180910390fd5b506128ca565b8073ffffffffffffffffffffffffffffffffffffffff1663a9059cbb60045f9054906101000a900473ffffffffffffffffffffffffffffffffffffffff16866040518363ffffffff1660e01b815260040161284a929190614247565b6020604051808303815f875af1158015612866573d5f5f3e3d5ffd5b505050506040513d601f19601f8201168201806040525081019061288a9190613935565b6128c9576040517f08c379a00000000000000000000000000000000000000000000000000000000081526004016128c0906142b8565b60405180910390fd5b5b848173ffffffffffffffffffffffffffffffffffffffff1660045f9054906101000a900473ffffffffffffffffffffffffffffffffffffffff1673ffffffffffffffffffffffffffffffffffffffff167f91cbf2fb2fc6159419f020d7e7b2dc950b6468307d2a6b827efae89ef24b185b876040516129499190613657565b60405180910390a45f831115612bbe575f73ffffffffffffffffffffffffffffffffffffffff168173ffffffffffffffffffffffffffffffffffffffff1603612a5b575f60075f9054906101000a900473ffffffffffffffffffffffffffffffffffffffff1673ffffffffffffffffffffffffffffffffffffffff16846040516129d2906141cb565b5f6040518083038185875af1925050503d805f8114612a0c576040519150601f19603f3d011682016040523d82523d5f602084013e612a11565b606091505b5050905080612a55576040517f08c379a0000000000000000000000000000000000000000000000000000000008152600401612a4c90614a38565b60405180910390fd5b50612b37565b8073ffffffffffffffffffffffffffffffffffffffff1663a9059cbb60075f9054906101000a900473ffffffffffffffffffffffffffffffffffffffff16856040518363ffffffff1660e01b8152600401612ab7929190614247565b6020604051808303815f875af1158015612ad3573d5f5f3e3d5ffd5b505050506040513d601f19601f82011682018060405250810190612af79190613935565b612b36576040517f08c379a0000000000000000000000000000000000000000000000000000000008152600401612b2d906142b8565b60405180910390fd5b5b8073ffffffffffffffffffffffffffffffffffffffff1660075f9054906101000a900473ffffffffffffffffffffffffffffffffffffffff1673ffffffffffffffffffffffffffffffffffffffff167f79982a434f50dcafc1bb463b4c025469fecf26b5c1b547d2584220a4596a326185604051612bb59190613657565b60405180910390a35b5f821115612e2c575f73ffffffffffffffffffffffffffffffffffffffff168173ffffffffffffffffffffffffffffffffffffffff1603612cc8575f60045f9054906101000a900473ffffffffffffffffffffffffffffffffffffffff1673ffffffffffffffffffffffffffffffffffffffff1683604051612c3f906141cb565b5f6040518083038185875af1925050503d805f8114612c79576040519150601f19603f3d011682016040523d82523d5f602084013e612c7e565b606091505b5050905080612cc2576040517f08c379a0000000000000000000000000000000000000000000000000000000008152600401612cb990614aa0565b60405180910390fd5b50612da4565b8073ffffffffffffffffffffffffffffffffffffffff1663a9059cbb60045f9054906101000a900473ffffffffffffffffffffffffffffffffffffffff16846040518363ffffffff1660e01b8152600401612d24929190614247565b6020604051808303815f875af1158015612d40573d5f5f3e3d5ffd5b505050506040513d601f19601f82011682018060405250810190612d649190613935565b612da3576040517f08c379a0000000000000000000000000000000000000000000000000000000008152600401612d9a906142b8565b60405180910390fd5b5b848173ffffffffffffffffffffffffffffffffffffffff1660045f9054906101000a900473ffffffffffffffffffffffffffffffffffffffff1673ffffffffffffffffffffffffffffffffffffffff167f0907d075cd7cebd1624fa88aadc9011f555181d869b46d492aead767b28fad1385604051612e239190613657565b60405180910390a45b5050505050565b5f5f612e428989898989612eb4565b90505f5f5f612e518787612f44565b9250925092506001848484846040515f8152602001604052604051612e799493929190614ad9565b6020604051602081039080840390855afa158015612e99573d5f5f3e3d5ffd5b50505060206040510351945050505050979650505050505050565b5f5f7f7235363e5a3fdced7e390d4ba4e239d5bae8ae7b0a72efd25a89e26559f03a6e8787878787426001604051602001612ef6989796959493929190614b1c565b6040516020818303038152906040528051906020012090505f5481604051602001612f22929190614c02565b6040516020818303038152906040528051906020012091505095945050505050565b5f5f5f60418585905014612f8d576040517f08c379a0000000000000000000000000000000000000000000000000000000008152600401612f8490614c82565b60405180910390fd5b84803592506020810135915060408101355f1a935050601b8360ff161015612fbf57601b83612fbc9190614ca0565b92505b601b8360ff161480612fd45750601c8360ff16145b613013576040517f08c379a000000000000000000000000000000000000000000000000000000000815260040161300a90614d1e565b60405180910390fd5b9250925092565b6040518060c001604052805f73ffffffffffffffffffffffffffffffffffffffff1681526020015f81526020015f73ffffffffffffffffffffffffffffffffffffffff1681526020015f8152602001606081526020015f151581525090565b5f604051905090565b5f5ffd5b5f5ffd5b5f73ffffffffffffffffffffffffffffffffffffffff82169050919050565b5f6130b38261308a565b9050919050565b6130c3816130a9565b81146130cd575f5ffd5b50565b5f813590506130de816130ba565b92915050565b5f602082840312156130f9576130f8613082565b5b5f613106848285016130d0565b91505092915050565b5f8115159050919050565b6131238161310f565b82525050565b5f60208201905061313c5f83018461311a565b92915050565b61314b816130a9565b82525050565b5f6020820190506131645f830184613142565b92915050565b5f819050919050565b61317c8161316a565b82525050565b5f6020820190506131955f830184613173565b92915050565b5f819050919050565b6131ad8161319b565b81146131b7575f5ffd5b50565b5f813590506131c8816131a4565b92915050565b6131d78161316a565b81146131e1575f5ffd5b50565b5f813590506131f2816131ce565b92915050565b5f5ffd5b5f5ffd5b5f5ffd5b5f5f83601f840112613219576132186131f8565b5b8235905067ffffffffffffffff811115613236576132356131fc565b5b60208301915083600182028301111561325257613251613200565b5b9250929050565b5f5f5f5f5f6080868803121561327257613271613082565b5b5f61327f888289016130d0565b9550506020613290888289016131ba565b94505060406132a1888289016131e4565b935050606086013567ffffffffffffffff8111156132c2576132c1613086565b5b6132ce88828901613204565b92509250509295509295909350565b6132e68161310f565b81146132f0575f5ffd5b50565b5f81359050613301816132dd565b92915050565b5f5f6040838503121561331d5761331c613082565b5b5f61332a858286016130d0565b925050602061333b858286016132f3565b9150509250929050565b5f6020828403121561335a57613359613082565b5b5f613367848285016131e4565b91505092915050565b6133798161319b565b82525050565b5f81519050919050565b5f82825260208201905092915050565b8281835e5f83830152505050565b5f601f19601f8301169050919050565b5f6133c18261337f565b6133cb8185613389565b93506133db818560208601613399565b6133e4816133a7565b840191505092915050565b5f60c0820190506134025f830189613142565b61340f6020830188613370565b61341c6040830187613142565b6134296060830186613370565b818103608083015261343b81856133b7565b905061344a60a083018461311a565b979650505050505050565b5f61ffff82169050919050565b61346b81613455565b8114613475575f5ffd5b50565b5f8135905061348681613462565b92915050565b5f602082840312156134a1576134a0613082565b5b5f6134ae84828501613478565b91505092915050565b6134c0816130a9565b82525050565b6134cf8161319b565b82525050565b5f82825260208201905092915050565b5f6134ef8261337f565b6134f981856134d5565b9350613509818560208601613399565b613512816133a7565b840191505092915050565b6135268161310f565b82525050565b5f60c083015f8301516135415f8601826134b7565b50602083015161355460208601826134c6565b50604083015161356760408601826134b7565b50606083015161357a60608601826134c6565b506080830151848203608086015261359282826134e5565b91505060a08301516135a760a086018261351d565b508091505092915050565b5f6020820190508181035f8301526135ca818461352c565b905092915050565b6135db81613455565b82525050565b5f6020820190506135f45f8301846135d2565b92915050565b5f5f5f6040848603121561361157613610613082565b5b5f61361e868287016131e4565b935050602084013567ffffffffffffffff81111561363f5761363e613086565b5b61364b86828701613204565b92509250509250925092565b5f60208201905061366a5f830184613370565b92915050565b5f6020828403121561368557613684613082565b5b5f613692848285016131ba565b91505092915050565b5f6060820190506136ae5f830186613370565b6136bb6020830185613370565b6136c86040830184613370565b949350505050565b5f6020820190508181035f8301526136e881846133b7565b905092915050565b5f5ffd5b7f4e487b71000000000000000000000000000000000000000000000000000000005f52604160045260245ffd5b61372a826133a7565b810181811067ffffffffffffffff82111715613749576137486136f4565b5b80604052505050565b5f61375b613079565b90506137678282613721565b919050565b5f67ffffffffffffffff821115613786576137856136f4565b5b61378f826133a7565b9050602081019050919050565b828183375f83830152505050565b5f6137bc6137b78461376c565b613752565b9050828152602081018484840111156137d8576137d76136f0565b5b6137e384828561379c565b509392505050565b5f82601f8301126137ff576137fe6131f8565b5b813561380f8482602086016137aa565b91505092915050565b5f5f5f6060848603121561382f5761382e613082565b5b5f61383c868287016131e4565b935050602084013567ffffffffffffffff81111561385d5761385c613086565b5b613869868287016137eb565b925050604061387a868287016130d0565b9150509250925092565b7f416d6f756e74206d7573742062652067726561746572207468616e207a65726f5f82015250565b5f6138b8602083613389565b91506138c382613884565b602082019050919050565b5f6020820190508181035f8301526138e5816138ac565b9050919050565b5f6060820190506138ff5f830186613142565b61390c6020830185613142565b6139196040830184613370565b949350505050565b5f8151905061392f816132dd565b92915050565b5f6020828403121561394a57613949613082565b5b5f61395784828501613921565b91505092915050565b7f4f6e6c792076616c696461746f72207365742063616e2063616c6c00000000005f82015250565b5f613994601b83613389565b915061399f82613960565b602082019050919050565b5f6020820190508181035f8301526139c181613988565b9050919050565b7f496e76616c6964206174746573746f72206164647265737300000000000000005f82015250565b5f6139fc601883613389565b9150613a07826139c8565b602082019050919050565b5f6020820190508181035f830152613a29816139f0565b9050919050565b7f496e76616c6964206e6f646520616464726573730000000000000000000000005f82015250565b5f613a64601483613389565b9150613a6f82613a30565b602082019050919050565b5f6020820190508181035f830152613a9181613a58565b9050919050565b7f4e487b71000000000000000000000000000000000000000000000000000000005f52602260045260245ffd5b5f6002820490506001821680613adc57607f821691505b602082108103613aef57613aee613a98565b5b50919050565b7f496e76616c6964206164647265737300000000000000000000000000000000005f82015250565b5f613b29600f83613389565b9150613b3482613af5565b602082019050919050565b5f6020820190508181035f830152613b5681613b1d565b9050919050565b5f81905092915050565b7f6368696c64416e63686f720000000000000000000000000000000000000000005f82015250565b5f613b9b600b83613b5d565b9150613ba682613b67565b600b82019050919050565b5f613bbb82613b8f565b9150819050919050565b5f604082019050613bd85f830185613370565b613be56020830184613370565b9392505050565b7f45786365656473206665652063617000000000000000000000000000000000005f82015250565b5f613c20600f83613389565b9150613c2b82613bec565b602082019050919050565b5f6020820190508181035f830152613c4d81613c14565b9050919050565b7f6665654f707342707300000000000000000000000000000000000000000000005f82015250565b5f613c88600983613b5d565b9150613c9382613c54565b600982019050919050565b5f613ca882613c7c565b9150819050919050565b5f819050919050565b5f613cd5613cd0613ccb84613455565b613cb2565b61319b565b9050919050565b613ce581613cbb565b82525050565b5f604082019050613cfe5f830185613370565b613d0b6020830184613cdc565b9392505050565b7f4e6f2068656c642066756e647320666f722074686973207472616e73616374695f8201527f6f6e000000000000000000000000000000000000000000000000000000000000602082015250565b5f613d6c602283613389565b9150613d7782613d12565b604082019050919050565b5f6020820190508181035f830152613d9981613d60565b9050919050565b7f416c7265616479207265736f6c766564000000000000000000000000000000005f82015250565b5f613dd4601083613389565b9150613ddf82613da0565b602082019050919050565b5f6020820190508181035f830152613e0181613dc8565b9050919050565b7f4e487b71000000000000000000000000000000000000000000000000000000005f52601160045260245ffd5b5f613e3f8261319b565b9150613e4a8361319b565b9250828202613e588161319b565b91508282048414831517613e6f57613e6e613e08565b5b5092915050565b7f4e487b71000000000000000000000000000000000000000000000000000000005f52601260045260245ffd5b5f613ead8261319b565b9150613eb88361319b565b925082613ec857613ec7613e76565b5b828204905092915050565b5f613edd8261319b565b9150613ee88361319b565b9250828203905081811115613f0057613eff613e08565b5b92915050565b7f43616e6e6f74206c6f7765722062656c6f77206861726420666c6f6f720000005f82015250565b5f613f3a601d83613389565b9150613f4582613f06565b602082019050919050565b5f6020820190508181035f830152613f6781613f2e565b9050919050565b7f496e76616c6964204250530000000000000000000000000000000000000000005f82015250565b5f613fa2600b83613389565b9150613fad82613f6e565b602082019050919050565b5f6020820190508181035f830152613fcf81613f96565b9050919050565b7f6d696e4368696c645368617265427073000000000000000000000000000000005f82015250565b5f61400a601083613b5d565b915061401582613fd6565b601082019050919050565b5f61402a82613ffe565b9150819050919050565b7f6f7065726174696f6e7357616c6c6574000000000000000000000000000000005f82015250565b5f614068601083613b5d565b915061407382614034565b601082019050919050565b5f6140888261405c565b9150819050919050565b7f4e6f2068656c642066756e6473000000000000000000000000000000000000005f82015250565b5f6140c6600d83613389565b91506140d182614092565b602082019050919050565b5f6020820190508181035f8301526140f3816140ba565b9050919050565b7f524546554e4400000000000000000000000000000000000000000000000000005f82015250565b5f61412e600683613b5d565b9150614139826140fa565b600682019050919050565b5f61414e82614122565b9150819050919050565b5f6141628261337f565b61416c8185613b5d565b935061417c818560208601613399565b80840191505092915050565b5f6141938284614158565b915081905092915050565b5f81905092915050565b50565b5f6141b65f8361419e565b91506141c1826141a8565b5f82019050919050565b5f6141d5826141ab565b9150819050919050565b7f45544820726566756e64206661696c65640000000000000000000000000000005f82015250565b5f614213601183613389565b915061421e826141df565b602082019050919050565b5f6020820190508181035f83015261424081614207565b9050919050565b5f60408201905061425a5f830185613142565b6142676020830184613370565b9392505050565b7f5472616e73666572206661696c656400000000000000000000000000000000005f82015250565b5f6142a2600f83613389565b91506142ad8261426e565b602082019050919050565b5f6020820190508181035f8301526142cf81614296565b9050919050565b7f444f4e4154455f544f5f4348494c4400000000000000000000000000000000005f82015250565b5f61430a600f83613b5d565b9150614315826142d6565b600f82019050919050565b5f61432a826142fe565b9150819050919050565b7f45544820646f6e6174696f6e206661696c6564000000000000000000000000005f82015250565b5f614368601383613389565b915061437382614334565b602082019050919050565b5f6020820190508181035f8301526143958161435c565b9050919050565b7f5245524f555445000000000000000000000000000000000000000000000000005f82015250565b5f6143d0600783613b5d565b91506143db8261439c565b600782019050919050565b5f6143f0826143c4565b9150819050919050565b7f496e76616c69642074617267657420666f72207265726f7574650000000000005f82015250565b5f61442e601a83613389565b9150614439826143fa565b602082019050919050565b5f6020820190508181035f83015261445b81614422565b9050919050565b7f455448207265726f757465206661696c656400000000000000000000000000005f82015250565b5f614496601283613389565b91506144a182614462565b602082019050919050565b5f6020820190508181035f8301526144c38161448a565b9050919050565b5f8160601b9050919050565b5f6144e0826144ca565b9050919050565b5f6144f1826144d6565b9050919050565b614509614504826130a9565b6144e7565b82525050565b5f819050919050565b6145296145248261319b565b61450f565b82525050565b5f61453a82886144f8565b60148201915061454a8287614518565b60208201915061455a82866144f8565b60148201915061456a8285614518565b60208201915061457a8284614518565b6020820191508190509695505050505050565b7f4368696c6420736861726520746f6f20736d616c6c00000000000000000000005f82015250565b5f6145c1601583613389565b91506145cc8261458d565b602082019050919050565b5f6020820190508181035f8301526145ee816145b5565b9050919050565b7f496e74656e742076616c69646174696f6e206661696c656400000000000000005f82015250565b5f614629601883613389565b9150614634826145f5565b602082019050919050565b5f6040820190506146525f83018461311a565b81810360208301526146638161461d565b905092915050565b7f496e74656e742076616c696461746564000000000000000000000000000000005f82015250565b5f61469f601083613389565b91506146aa8261466b565b602082019050919050565b5f6040820190506146c85f83018461311a565b81810360208301526146d981614693565b905092915050565b5f819050815f5260205f209050919050565b5f6020601f8301049050919050565b5f82821b905092915050565b5f6008830261473d7fffffffffffffffffffffffffffffffffffffffffffffffffffffffffffffffff82614702565b6147478683614702565b95508019841693508086168417925050509392505050565b5f61477961477461476f8461319b565b613cb2565b61319b565b9050919050565b5f819050919050565b6147928361475f565b6147a661479e82614780565b84845461470e565b825550505050565b5f5f905090565b6147bd6147ae565b6147c8818484614789565b505050565b5f5b828110156147ee576147e35f8284016147b5565b6001810190506147cf565b505050565b601f82111561484157828211156148405761480d816146e1565b614816836146f3565b61481f856146f3565b602086101561482c575f90505b80830161483b828403826147cd565b505050505b5b505050565b5f82821c905092915050565b5f6148615f1984600802614846565b1980831691505092915050565b5f6148798383614852565b9150826002028217905092915050565b6148928261337f565b67ffffffffffffffff8111156148ab576148aa6136f4565b5b6148b58254613ac5565b6148c08282856147f3565b5f60209050601f8311600181146148f1575f84156148df578287015190505b6148e9858261486e565b865550614950565b601f1984166148ff866146e1565b5f5b8281101561492657848901518255600182019150602085019450602081019050614901565b86831015614943578489015161493f601f891682614852565b8355505b6001600288020188555050505b505050505050565b5f60408201905061496b5f830185613370565b818103602083015261497d81846133b7565b90509392505050565b7f455448207472616e7366657220746f206368696c64206661696c6564000000005f82015250565b5f6149ba601c83613389565b91506149c582614986565b602082019050919050565b5f6020820190508181035f8301526149e7816149ae565b9050919050565b7f455448207472616e7366657220746f206f7073206661696c65640000000000005f82015250565b5f614a22601a83613389565b9150614a2d826149ee565b602082019050919050565b5f6020820190508181035f830152614a4f81614a16565b9050919050565b7f455448207472616e73666572206661696c6564000000000000000000000000005f82015250565b5f614a8a601383613389565b9150614a9582614a56565b602082019050919050565b5f6020820190508181035f830152614ab781614a7e565b9050919050565b5f60ff82169050919050565b614ad381614abe565b82525050565b5f608082019050614aec5f830187613173565b614af96020830186614aca565b614b066040830185613173565b614b136060830184613173565b95945050505050565b5f61010082019050614b305f83018b613173565b614b3d602083018a613173565b614b4a6040830189613142565b614b576060830188613370565b614b646080830187613142565b614b7160a0830186613173565b614b7e60c0830185613370565b614b8b60e0830184614aca565b9998505050505050505050565b7f19010000000000000000000000000000000000000000000000000000000000005f82015250565b5f614bcc600283613b5d565b9150614bd782614b98565b600282019050919050565b5f819050919050565b614bfc614bf78261316a565b614be2565b82525050565b5f614c0c82614bc0565b9150614c188285614beb565b602082019150614c288284614beb565b6020820191508190509392505050565b7f496e76616c6964207369676e6174757265206c656e67746800000000000000005f82015250565b5f614c6c601883613389565b9150614c7782614c38565b602082019050919050565b5f6020820190508181035f830152614c9981614c60565b9050919050565b5f614caa82614abe565b9150614cb583614abe565b9250828201905060ff811115614cce57614ccd613e08565b5b92915050565b7f496e76616c6964207369676e617475726520762076616c7565000000000000005f82015250565b5f614d08601983613389565b9150614d1382614cd4565b602082019050919050565b5f6020820190508181035f830152614d3581614cfc565b905091905056fea2646970667358221220e0122908eea03ee046f3c8962bb82f4e7ab445726cdab4ff0421d2dbc48759f864736f6c63430008230033","linkReferences":{}},"methodIdentifiers":{"EIP712_VERSION()":"eccec5a8","MAX_BPS()":"fd967f47","MAX_FEE_CAP()":"d71b77ae","MIN_CHILD_FLOOR()":"5c2fdaa7","RESONANCE_ATTESTATION_TYPEHASH()":"180a4eb9","calculateDistribution(uint256)":"a9339d7e","chainId()":"9a8a0592","childAnchor()":"12470b7b","donateERC20(address,uint256,bytes32,bytes)":"2856542c","donateETH(bytes32,bytes)":"88529c43","everglowSeedHash()":"45df0f91","feeOpsBps()":"fb5d1c41","getHeldFunds(bytes32)":"5bcb17c4","held(bytes32)":"477809b1","initiateReview(bytes32)":"5349f76b","isAttestor(address)":"2e2f4e24","isNode(address)":"01750152","minChildShareBps()":"7354a3a3","operationsWallet()":"fd72e22a","resolveHold(bytes32,string,address)":"eedba758","setAttestor(address,bool)":"41724dd0","setChildAnchor(address)":"4b252b5c","setFeeOpsBps(uint16)":"4d223f65","setMinChildShareBps(uint16)":"edb91b9a","setNode(address,bool)":"41addb7b","setOperationsWallet(address)":"ee5ecc89","usedNonces(bytes32)":"feb61724","validatorSet()":"9426e226","walletWhitelistHash()":"f6294e86"},"id":19}