{"abi":[{"type":"constructor","inputs":[{"name":"_minChildShareBps","type":"uint16","internalType":"uint16"},{"name":"_feeOpsBps","type":"uint16","internalType":"uint16"},{"name":"_everglowSeedHash","type":"bytes32","internalType":"bytes32"},{"name":"_walletWhitelistHash","type":"bytes32","internalType":"bytes32"},{"name":"_childAnchor","type":"address","internalType":"address"},{"name":"_validatorSet","type":"address","internalType":"address"},{"name":"_operationsWallet","type":"address","internalType":"address"},{"name":"_chainId","type":"uint256","internalType":"uint256"}],"stateMutability":"nonpayable"},{"type":"receive","stateMutability":"payable"},{"type":"function","name":"EIP712_VERSION","inputs":[],"outputs":[{"name":"","type":"string","internalType":"string"}],"stateMutability":"view"},{"type":"function","name":"MAX_BPS","inputs":[],"outputs":[{"name":"","type":"uint16","internalType":"uint16"}],"stateMutability":"view"},{"type":"function","name":"MAX_FEE_CAP","inputs":[],"outputs":[{"name":"","type":"uint16","internalType":"uint16"}],"stateMutability":"view"},{"type":"function","name":"MIN_CHILD_FLOOR","inputs":[],"outputs":[{"name":"","type":"uint16","internalType":"uint16"}],"stateMutability":"view"},{"type":"function","name":"RESONANCE_ATTESTATION_TYPEHASH","inputs":[],"outputs":[{"name":"","type":"bytes32","internalType":"bytes32"}],"stateMutability":"view"},{"type":"function","name":"activeNodes","inputs":[{"name":"","type":"uint256","internalType":"uint256"}],"outputs":[{"name":"","type":"address","internalType":"address"}],"stateMutability":"view"},{"type":"function","name":"calculateDistribution","inputs":[{"name":"_amount","type":"uint256","internalType":"uint256"}],"outputs":[{"name":"childShare","type":"uint256","internalType":"uint256"},{"name":"feeShare","type":"uint256","internalType":"uint256"},{"name":"remainingShare","type":"uint256","internalType":"uint256"}],"stateMutability":"view"},{"type":"function","name":"calculateNodeShare","inputs":[{"name":"_node","type":"address","internalType":"address"},{"name":"_remainingAmount","type":"uint256","internalType":"uint256"}],"outputs":[{"name":"","type":"uint256","internalType":"uint256"}],"stateMutability":"view"},{"type":"function","name":"chainId","inputs":[],"outputs":[{"name":"","type":"uint256","internalType":"uint256"}],"stateMutability":"view"},{"type":"function","name":"childAnchor","inputs":[],"outputs":[{"name":"","type":"address","internalType":"address"}],"stateMutability":"view"},{"type":"function","name":"donateERC20","inputs":[{"name":"_token","type":"address","internalType":"address"},{"name":"_amount","type":"uint256","internalType":"uint256"},{"name":"_intentHash","type":"bytes32","internalType":"bytes32"},{"name":"_attestation","type":"bytes","internalType":"bytes"}],"outputs":[],"stateMutability":"nonpayable"},{"type":"function","name":"donateETH","inputs":[{"name":"_intentHash","type":"bytes32","internalType":"bytes32"},{"name":"_attestation","type":"bytes","internalType":"bytes"}],"outputs":[],"stateMutability":"payable"},{"type":"function","name":"everglowSeedHash","inputs":[],"outputs":[{"name":"","type":"bytes32","internalType":"bytes32"}],"stateMutability":"view"},{"type":"function","name":"feeOpsBps","inputs":[],"outputs":[{"name":"","type":"uint16","internalType":"uint16"}],"stateMutability":"view"},{"type":"function","name":"getActiveNodeAt","inputs":[{"name":"_index","type":"uint256","internalType":"uint256"}],"outputs":[{"name":"","type":"address","internalType":"address"}],"stateMutability":"view"},{"type":"function","name":"getActiveNodeCount","inputs":[],"outputs":[{"name":"","type":"uint256","internalType":"uint256"}],"stateMutability":"view"},{"type":"function","name":"getHeldFunds","inputs":[{"name":"_txId","type":"bytes32","internalType":"bytes32"}],"outputs":[{"name":"","type":"tuple","internalType":"struct PLGGiftRouter.HeldFunds","components":[{"name":"donor","type":"address","internalType":"address"},{"name":"amount","type":"uint256","internalType":"uint256"},{"name":"token","type":"address","internalType":"address"},{"name":"timestamp","type":"uint256","internalType":"uint256"},{"name":"reason","type":"string","internalType":"string"},{"name":"resolved","type":"bool","internalType":"bool"}]}],"stateMutability":"view"},{"type":"function","name":"getNodeRewards","inputs":[{"name":"_node","type":"address","internalType":"address"}],"outputs":[{"name":"","type":"uint256","internalType":"uint256"}],"stateMutability":"view"},{"type":"function","name":"getNodeWeight","inputs":[{"name":"_node","type":"address","internalType":"address"}],"outputs":[{"name":"","type":"uint256","internalType":"uint256"}],"stateMutability":"view"},{"type":"function","name":"held","inputs":[{"name":"","type":"bytes32","internalType":"bytes32"}],"outputs":[{"name":"donor","type":"address","internalType":"address"},{"name":"amount","type":"uint256","internalType":"uint256"},{"name":"token","type":"address","internalType":"address"},{"name":"timestamp","type":"uint256","internalType":"uint256"},{"name":"reason","type":"string","internalType":"string"},{"name":"resolved","type":"bool","internalType":"bool"}],"stateMutability":"view"},{"type":"function","name":"initiateReview","inputs":[{"name":"_txId","type":"bytes32","internalType":"bytes32"}],"outputs":[],"stateMutability":"nonpayable"},{"type":"function","name":"isAttestor","inputs":[{"name":"","type":"address","internalType":"address"}],"outputs":[{"name":"","type":"bool","internalType":"bool"}],"stateMutability":"view"},{"type":"function","name":"isNode","inputs":[{"name":"","type":"address","internalType":"address"}],"outputs":[{"name":"","type":"bool","internalType":"bool"}],"stateMutability":"view"},{"type":"function","name":"minChildShareBps","inputs":[],"outputs":[{"name":"","type":"uint16","internalType":"uint16"}],"stateMutability":"view"},{"type":"function","name":"nodeIndex","inputs":[{"name":"","type":"address","internalType":"address"}],"outputs":[{"name":"","type":"uint256","internalType":"uint256"}],"stateMutability":"view"},{"type":"function","name":"nodeRewards","inputs":[{"name":"","type":"address","internalType":"address"}],"outputs":[{"name":"","type":"uint256","internalType":"uint256"}],"stateMutability":"view"},{"type":"function","name":"nodeWeight","inputs":[{"name":"","type":"address","internalType":"address"}],"outputs":[{"name":"","type":"uint256","internalType":"uint256"}],"stateMutability":"view"},{"type":"function","name":"operationsWallet","inputs":[],"outputs":[{"name":"","type":"address","internalType":"address"}],"stateMutability":"view"},{"type":"function","name":"resolveHold","inputs":[{"name":"_txId","type":"bytes32","internalType":"bytes32"},{"name":"_resolution","type":"string","internalType":"string"},{"name":"_target","type":"address","internalType":"address"}],"outputs":[],"stateMutability":"nonpayable"},{"type":"function","name":"setAttestor","inputs":[{"name":"_attestor","type":"address","internalType":"address"},{"name":"_approved","type":"bool","internalType":"bool"}],"outputs":[],"stateMutability":"nonpayable"},{"type":"function","name":"setChildAnchor","inputs":[{"name":"_newChildAnchor","type":"address","internalType":"address"}],"outputs":[],"stateMutability":"nonpayable"},{"type":"function","name":"setFeeOpsBps","inputs":[{"name":"_newBps","type":"uint16","internalType":"uint16"}],"outputs":[],"stateMutability":"nonpayable"},{"type":"function","name":"setMinChildShareBps","inputs":[{"name":"_newBps","type":"uint16","internalType":"uint16"}],"outputs":[],"stateMutability":"nonpayable"},{"type":"function","name":"setNode","inputs":[{"name":"_node","type":"address","internalType":"address"},{"name":"_approved","type":"bool","internalType":"bool"}],"outputs":[],"stateMutability":"nonpayable"},{"type":"function","name":"setNodeWeight","inputs":[{"name":"_node","type":"address","internalType":"address"},{"name":"_weight","type":"uint256","internalType":"uint256"}],"outputs":[],"stateMutability":"nonpayable"},{"type":"function","name":"setOperationsWallet","inputs":[{"name":"_newWallet","type":"address","internalType":"address"}],"outputs":[],"stateMutability":"nonpayable"},{"type":"function","name":"totalNodeWeight","inputs":[],"outputs":[{"name":"","type":"uint256","internalType":"uint256"}],"stateMutability":"view"},{"type":"function","name":"usedNonces","inputs":[{"name":"","type":"bytes32","internalType":"bytes32"}],"outputs":[{"name":"","type":"bool","internalType":"bool"}],"stateMutability":"view"},{"type":"function","name":"validatorSet","inputs":[],"outputs":[{"name":"","type":"address","internalType":"address"}],"stateMutability":"view"},{"type":"function","name":"walletWhitelistHash","inputs":[],"outputs":[{"name":"","type":"bytes32","internalType":"bytes32"}],"stateMutability":"view"},{"type":"event","name":"AttestorChanged","inputs":[{"name":"attestor","type":"address","indexed":true,"internalType":"address"},{"name":"status","type":"bool","indexed":false,"internalType":"bool"}],"anonymous":false},{"type":"event","name":"ChildAnchorRouted","inputs":[{"name":"childAddress","type":"address","indexed":true,"internalType":"address"},{"name":"amount","type":"uint256","indexed":false,"internalType":"uint256"},{"name":"token","type":"address","indexed":true,"internalType":"address"},{"name":"transactionId","type":"bytes32","indexed":true,"internalType":"bytes32"}],"anonymous":false},{"type":"event","name":"ChildShareTooSmall","inputs":[{"name":"sender","type":"address","indexed":true,"internalType":"address"},{"name":"amount","type":"uint256","indexed":false,"internalType":"uint256"},{"name":"token","type":"address","indexed":true,"internalType":"address"}],"anonymous":false},{"type":"event","name":"EverglowFiltered","inputs":[{"name":"txId","type":"bytes32","indexed":true,"internalType":"bytes32"},{"name":"passed","type":"bool","indexed":false,"internalType":"bool"},{"name":"reason","type":"string","indexed":false,"internalType":"string"}],"anonymous":false},{"type":"event","name":"FundsHeld","inputs":[{"name":"txId","type":"bytes32","indexed":true,"internalType":"bytes32"},{"name":"donor","type":"address","indexed":true,"internalType":"address"},{"name":"amount","type":"uint256","indexed":false,"internalType":"uint256"},{"name":"reason","type":"string","indexed":false,"internalType":"string"}],"anonymous":false},{"type":"event","name":"FundsReceived","inputs":[{"name":"sender","type":"address","indexed":true,"internalType":"address"},{"name":"amount","type":"uint256","indexed":false,"internalType":"uint256"},{"name":"token","type":"address","indexed":true,"internalType":"address"},{"name":"intentHash","type":"bytes32","indexed":true,"internalType":"bytes32"}],"anonymous":false},{"type":"event","name":"Genesis","inputs":[{"name":"minChildShareBps","type":"uint16","indexed":true,"internalType":"uint16"},{"name":"feeOpsBps","type":"uint16","indexed":true,"internalType":"uint16"},{"name":"everglowSeedHash","type":"bytes32","indexed":false,"internalType":"bytes32"},{"name":"walletWhitelistHash","type":"bytes32","indexed":false,"internalType":"bytes32"},{"name":"validatorSet","type":"address","indexed":true,"internalType":"address"},{"name":"chainId","type":"uint256","indexed":false,"internalType":"uint256"}],"anonymous":false},{"type":"event","name":"NodeRewardsAccumulated","inputs":[{"name":"node","type":"address","indexed":true,"internalType":"address"},{"name":"amount","type":"uint256","indexed":false,"internalType":"uint256"},{"name":"token","type":"address","indexed":true,"internalType":"address"}],"anonymous":false},{"type":"event","name":"NodeRouted","inputs":[{"name":"nodeAddress","type":"address","indexed":true,"internalType":"address"},{"name":"amount","type":"uint256","indexed":false,"internalType":"uint256"},{"name":"token","type":"address","indexed":true,"internalType":"address"},{"name":"transactionId","type":"bytes32","indexed":true,"internalType":"bytes32"}],"anonymous":false},{"type":"event","name":"NodeWeightUpdated","inputs":[{"name":"node","type":"address","indexed":true,"internalType":"address"},{"name":"oldWeight","type":"uint256","indexed":false,"internalType":"uint256"},{"name":"newWeight","type":"uint256","indexed":false,"internalType":"uint256"},{"name":"totalWeight","type":"uint256","indexed":false,"internalType":"uint256"}],"anonymous":false},{"type":"event","name":"OperationsFunded","inputs":[{"name":"operationsWallet","type":"address","indexed":true,"internalType":"address"},{"name":"amount","type":"uint256","indexed":false,"internalType":"uint256"},{"name":"token","type":"address","indexed":true,"internalType":"address"}],"anonymous":false},{"type":"event","name":"ParamsUpdated","inputs":[{"name":"field","type":"string","indexed":true,"internalType":"string"},{"name":"oldValue","type":"uint256","indexed":false,"internalType":"uint256"},{"name":"newValue","type":"uint256","indexed":false,"internalType":"uint256"}],"anonymous":false},{"type":"event","name":"Resolved","inputs":[{"name":"txId","type":"bytes32","indexed":true,"internalType":"bytes32"},{"name":"resolution","type":"string","indexed":false,"internalType":"string"},{"name":"target","type":"address","indexed":true,"internalType":"address"}],"anonymous":false},{"type":"event","name":"ResonanceAttested","inputs":[{"name":"hash","type":"bytes32","indexed":true,"internalType":"bytes32"},{"name":"attestor","type":"address","indexed":true,"internalType":"address"},{"name":"level","type":"uint8","indexed":false,"internalType":"uint8"}],"anonymous":false},{"type":"event","name":"ReviewStarted","inputs":[{"name":"txId","type":"bytes32","indexed":true,"internalType":"bytes32"},{"name":"reviewInitiator","type":"address","indexed":true,"internalType":"address"}],"anonymous":false},{"type":"event","name":"WhitelistChanged","inputs":[{"name":"node","type":"address","indexed":true,"internalType":"address"},{"name":"status","type":"bool","indexed":false,"internalType":"bool"}],"anonymous":false}],"bytecode":{"object":"0x608060405234801561000f575f5ffd5b50604051616bdc380380616bdc8339818101604052810190610031919061064e565b468114610073576040517f08c379a000000000000000000000000000000000000000000000000000000000815260040161006a90610759565b60405180910390fd5b5f73ffffffffffffffffffffffffffffffffffffffff168473ffffffffffffffffffffffffffffffffffffffff16036100e1576040517f08c379a00000000000000000000000000000000000000000000000000000000081526004016100d8906107c1565b60405180910390fd5b5f73ffffffffffffffffffffffffffffffffffffffff168373ffffffffffffffffffffffffffffffffffffffff160361014f576040517f08c379a000000000000000000000000000000000000000000000000000000000815260040161014690610829565b60405180910390fd5b5f73ffffffffffffffffffffffffffffffffffffffff168273ffffffffffffffffffffffffffffffffffffffff16036101bd576040517f08c379a00000000000000000000000000000000000000000000000000000000081526004016101b490610891565b60405180910390fd5b5f5f1b8603610201576040517f08c379a00000000000000000000000000000000000000000000000000000000081526004016101f8906108f9565b60405180910390fd5b6109c461ffff168861ffff16101561024e576040517f08c379a000000000000000000000000000000000000000000000000000000000815260040161024590610987565b60405180910390fd5b6103e861ffff168761ffff16111561029b576040517f08c379a0000000000000000000000000000000000000000000000000000000008152600401610292906109ef565b60405180910390fd5b61271061ffff168761ffff168961ffff166102b69190610a3a565b11156102f7576040517f08c379a00000000000000000000000000000000000000000000000000000000081526004016102ee90610ab7565b60405180910390fd5b8760065f6101000a81548161ffff021916908361ffff16021790555086600660026101000a81548161ffff021916908361ffff16021790555085600781905550846008819055508360095f6101000a81548173ffffffffffffffffffffffffffffffffffffffff021916908373ffffffffffffffffffffffffffffffffffffffff16021790555082600a5f6101000a81548173ffffffffffffffffffffffffffffffffffffffff021916908373ffffffffffffffffffffffffffffffffffffffff16021790555081600c5f6101000a81548173ffffffffffffffffffffffffffffffffffffffff021916908373ffffffffffffffffffffffffffffffffffffffff16021790555080600b8190555061041361048160201b60201c565b5f819055508273ffffffffffffffffffffffffffffffffffffffff168761ffff168961ffff167f5f0d4546f67f67f2921a909293269194ea01ae276adf330f7b2cd603f25b542e89898660405161046c93929190610af3565b60405180910390a45050505050505050610b88565b5f5f7f8b73c3c69bb8fe3d512ecc4cf759cc79239f7b179b0ffacaa9a75d522b39400f9050806040518060400160405280600d81526020017f504c4747696674526f7574657200000000000000000000000000000000000000815250805190602001206040518060400160405280600181526020017f3100000000000000000000000000000000000000000000000000000000000000815250805190602001204630604051602001610537959493929190610b37565b6040516020818303038152906040528051906020012091505090565b5f5ffd5b5f61ffff82169050919050565b61056d81610557565b8114610577575f5ffd5b50565b5f8151905061058881610564565b92915050565b5f819050919050565b6105a08161058e565b81146105aa575f5ffd5b50565b5f815190506105bb81610597565b92915050565b5f73ffffffffffffffffffffffffffffffffffffffff82169050919050565b5f6105ea826105c1565b9050919050565b6105fa816105e0565b8114610604575f5ffd5b50565b5f81519050610615816105f1565b92915050565b5f819050919050565b61062d8161061b565b8114610637575f5ffd5b50565b5f8151905061064881610624565b92915050565b5f5f5f5f5f5f5f5f610100898b03121561066b5761066a610553565b5b5f6106788b828c0161057a565b98505060206106898b828c0161057a565b975050604061069a8b828c016105ad565b96505060606106ab8b828c016105ad565b95505060806106bc8b828c01610607565b94505060a06106cd8b828c01610607565b93505060c06106de8b828c01610607565b92505060e06106ef8b828c0161063a565b9150509295985092959890939650565b5f82825260208201905092915050565b7f57726f6e6720636861696e0000000000000000000000000000000000000000005f82015250565b5f610743600b836106ff565b915061074e8261070f565b602082019050919050565b5f6020820190508181035f83015261077081610737565b9050919050565b7f496e76616c6964206368696c6420616e63686f720000000000000000000000005f82015250565b5f6107ab6014836106ff565b91506107b682610777565b602082019050919050565b5f6020820190508181035f8301526107d88161079f565b9050919050565b7f496e76616c69642076616c696461746f720000000000000000000000000000005f82015250565b5f6108136011836106ff565b915061081e826107df565b602082019050919050565b5f6020820190508181035f83015261084081610807565b9050919050565b7f496e76616c6964206f7065726174696f6e732077616c6c6574000000000000005f82015250565b5f61087b6019836106ff565b915061088682610847565b602082019050919050565b5f6020820190508181035f8301526108a88161086f565b9050919050565b7f496e76616c6964207365656420686173680000000000000000000000000000005f82015250565b5f6108e36011836106ff565b91506108ee826108af565b602082019050919050565b5f6020820190508181035f830152610910816108d7565b9050919050565b7f4368696c642073686172652062656c6f7720666c6f6f7220286d696e203235305f8201527f3020627073290000000000000000000000000000000000000000000000000000602082015250565b5f6109716026836106ff565b915061097c82610917565b604082019050919050565b5f6020820190508181035f83015261099e81610965565b9050919050565b7f46656520657863656564732063617020286d61782031303030206270732900005f82015250565b5f6109d9601e836106ff565b91506109e4826109a5565b602082019050919050565b5f6020820190508181035f830152610a06816109cd565b9050919050565b7f4e487b71000000000000000000000000000000000000000000000000000000005f52601160045260245ffd5b5f610a448261061b565b9150610a4f8361061b565b9250828201905080821115610a6757610a66610a0d565b5b92915050565b7f546f74616c2042505320657863656564732031303025000000000000000000005f82015250565b5f610aa16016836106ff565b9150610aac82610a6d565b602082019050919050565b5f6020820190508181035f830152610ace81610a95565b9050919050565b610ade8161058e565b82525050565b610aed8161061b565b82525050565b5f606082019050610b065f830186610ad5565b610b136020830185610ad5565b610b206040830184610ae4565b949350505050565b610b31816105e0565b82525050565b5f60a082019050610b4a5f830188610ad5565b610b576020830187610ad5565b610b646040830186610ad5565b610b716060830185610ae4565b610b7e6080830184610b28565b9695505050505050565b61604780610b955f395ff3fe60806040526004361061023e575f3560e01c806388529c431161012d578063eccec5a8116100aa578063f6294e861161006e578063f6294e86146108d6578063fb5d1c4114610900578063fd72e22a1461092a578063fd967f4714610954578063feb617241461097e57610245565b8063eccec5a8146107f8578063edb91b9a14610822578063ee5ecc891461084a578063eedba75814610872578063f5e096771461089a57610245565b8063a9339d7e116100f1578063a9339d7e146106ee578063c5ea2b871461072c578063d673de4614610756578063d71b77ae14610792578063dff47aaf146107bc57610245565b806388529c43146106185780639426e22614610634578063949280211461065e57806396f9d983146106885780639a8a0592146106c457610245565b80634b252b5c116101bb5780635bcb17c41161017f5780635bcb17c4146105245780635c2fdaa71461056057806365db8ebe1461058a5780637354a3a3146105b2578063770ce3d8146105dc57610245565b80634b252b5c146104345780634d223f651461045c578063519f6a4d146104845780635349f76b146104c05780635adcbf11146104e857610245565b806341724dd01161020257806341724dd01461033d57806341addb7b1461036557806345df0f911461038d5780634612b319146103b7578063477809b1146103f357610245565b8063017501521461024957806312470b7b14610285578063180a4eb9146102af5780632856542c146102d95780632e2f4e241461030157610245565b3661024557005b5f5ffd5b348015610254575f5ffd5b5061026f600480360381019061026a91906140bf565b6109ba565b60405161027c9190614104565b60405180910390f35b348015610290575f5ffd5b506102996109d7565b6040516102a6919061412c565b60405180910390f35b3480156102ba575f5ffd5b506102c36109fc565b6040516102d0919061415d565b60405180910390f35b3480156102e4575f5ffd5b506102ff60048036038101906102fa9190614234565b610a20565b005b34801561030c575f5ffd5b50610327600480360381019061032291906140bf565b610af6565b6040516103349190614104565b60405180910390f35b348015610348575f5ffd5b50610363600480360381019061035e91906142e2565b610b13565b005b348015610370575f5ffd5b5061038b600480360381019061038691906142e2565b610cb6565b005b348015610398575f5ffd5b506103a1610f40565b6040516103ae919061415d565b60405180910390f35b3480156103c2575f5ffd5b506103dd60048036038101906103d891906140bf565b610f46565b6040516103ea919061432f565b60405180910390f35b3480156103fe575f5ffd5b5061041960048036038101906104149190614348565b610f5b565b60405161042b969594939291906143e3565b60405180910390f35b34801561043f575f5ffd5b5061045a600480360381019061045591906140bf565b611063565b005b348015610467575f5ffd5b50610482600480360381019061047d9190614480565b611242565b005b34801561048f575f5ffd5b506104aa60048036038101906104a591906140bf565b6113a4565b6040516104b7919061432f565b60405180910390f35b3480156104cb575f5ffd5b506104e660048036038101906104e19190614348565b6113ea565b005b3480156104f3575f5ffd5b5061050e600480360381019061050991906140bf565b611577565b60405161051b919061432f565b60405180910390f35b34801561052f575f5ffd5b5061054a60048036038101906105459190614348565b6115bd565b60405161055791906145a6565b60405180910390f35b34801561056b575f5ffd5b5061057461174f565b60405161058191906145d5565b60405180910390f35b348015610595575f5ffd5b506105b060048036038101906105ab91906145ee565b611755565b005b3480156105bd575f5ffd5b506105c6611ace565b6040516105d391906145d5565b60405180910390f35b3480156105e7575f5ffd5b5061060260048036038101906105fd91906140bf565b611ae1565b60405161060f919061432f565b60405180910390f35b610632600480360381019061062d919061462c565b611af6565b005b34801561063f575f5ffd5b50610648611b4c565b604051610655919061412c565b60405180910390f35b348015610669575f5ffd5b50610672611b71565b60405161067f919061432f565b60405180910390f35b348015610693575f5ffd5b506106ae60048036038101906106a99190614689565b611b77565b6040516106bb919061412c565b60405180910390f35b3480156106cf575f5ffd5b506106d8611bb2565b6040516106e5919061432f565b60405180910390f35b3480156106f9575f5ffd5b50610714600480360381019061070f9190614689565b611bb8565b604051610723939291906146b4565b60405180910390f35b348015610737575f5ffd5b50610740611c40565b60405161074d919061432f565b60405180910390f35b348015610761575f5ffd5b5061077c600480360381019061077791906140bf565b611c4c565b604051610789919061432f565b60405180910390f35b34801561079d575f5ffd5b506107a6611c61565b6040516107b391906145d5565b60405180910390f35b3480156107c7575f5ffd5b506107e260048036038101906107dd91906145ee565b611c67565b6040516107ef919061432f565b60405180910390f35b348015610803575f5ffd5b5061080c611d20565b60405161081991906146e9565b60405180910390f35b34801561082d575f5ffd5b5061084860048036038101906108439190614480565b611d59565b005b348015610855575f5ffd5b50610870600480360381019061086b91906140bf565b611f06565b005b34801561087d575f5ffd5b5061089860048036038101906108939190614831565b6120e5565b005b3480156108a5575f5ffd5b506108c060048036038101906108bb9190614689565b612a42565b6040516108cd919061412c565b60405180910390f35b3480156108e1575f5ffd5b506108ea612acd565b6040516108f7919061415d565b60405180910390f35b34801561090b575f5ffd5b50610914612ad3565b60405161092191906145d5565b60405180910390f35b348015610935575f5ffd5b5061093e612ae7565b60405161094b919061412c565b60405180910390f35b34801561095f575f5ffd5b50610968612b0c565b60405161097591906145d5565b60405180910390f35b348015610989575f5ffd5b506109a4600480360381019061099f9190614348565b612b12565b6040516109b19190614104565b60405180910390f35b600d602052805f5260405f205f915054906101000a900460ff1681565b60095f9054906101000a900473ffffffffffffffffffffffffffffffffffffffff1681565b7f7235363e5a3fdced7e390d4ba4e239d5bae8ae7b0a72efd25a89e26559f03a6e81565b835f8111610a63576040517f08c379a0000000000000000000000000000000000000000000000000000000008152600401610a5a906148e7565b60405180910390fd5b8573ffffffffffffffffffffffffffffffffffffffff166323b872dd3330886040518463ffffffff1660e01b8152600401610aa093929190614905565b6020604051808303815f875af1158015610abc573d5f5f3e3d5ffd5b505050506040513d601f19601f82011682018060405250810190610ae0919061494e565b50610aee8587868686612b2f565b505050505050565b600e602052805f5260405f205f915054906101000a900460ff1681565b600a5f9054906101000a900473ffffffffffffffffffffffffffffffffffffffff1673ffffffffffffffffffffffffffffffffffffffff163373ffffffffffffffffffffffffffffffffffffffff1614610ba2576040517f08c379a0000000000000000000000000000000000000000000000000000000008152600401610b99906149c3565b60405180910390fd5b5f73ffffffffffffffffffffffffffffffffffffffff168273ffffffffffffffffffffffffffffffffffffffff1603610c10576040517f08c379a0000000000000000000000000000000000000000000000000000000008152600401610c0790614a2b565b60405180910390fd5b80600e5f8473ffffffffffffffffffffffffffffffffffffffff1673ffffffffffffffffffffffffffffffffffffffff1681526020019081526020015f205f6101000a81548160ff0219169083151502179055508173ffffffffffffffffffffffffffffffffffffffff167f16ed443670a97ca87ed8584bc5d8e794bb98255cb8a3baa5afd7c718b846d09082604051610caa9190614104565b60405180910390a25050565b600a5f9054906101000a900473ffffffffffffffffffffffffffffffffffffffff1673ffffffffffffffffffffffffffffffffffffffff163373ffffffffffffffffffffffffffffffffffffffff1614610d45576040517f08c379a0000000000000000000000000000000000000000000000000000000008152600401610d3c906149c3565b60405180910390fd5b5f73ffffffffffffffffffffffffffffffffffffffff168273ffffffffffffffffffffffffffffffffffffffff1603610db3576040517f08c379a0000000000000000000000000000000000000000000000000000000008152600401610daa90614a93565b60405180910390fd5b80600d5f8473ffffffffffffffffffffffffffffffffffffffff1673ffffffffffffffffffffffffffffffffffffffff1681526020019081526020015f205f6101000a81548160ff02191690831515021790555080158015610e5157505f60025f8473ffffffffffffffffffffffffffffffffffffffff1673ffffffffffffffffffffffffffffffffffffffff1681526020019081526020015f2054115b15610eee5760025f8373ffffffffffffffffffffffffffffffffffffffff1673ffffffffffffffffffffffffffffffffffffffff1681526020019081526020015f205460015f828254610ea49190614ade565b925050819055505f60025f8473ffffffffffffffffffffffffffffffffffffffff1673ffffffffffffffffffffffffffffffffffffffff1681526020019081526020015f20819055505b8173ffffffffffffffffffffffffffffffffffffffff167fb840a1dbd8b09a3dc45161bba92dfb9aba643c0e44c085a447f839d1d02cf13b82604051610f349190614104565b60405180910390a25050565b60075481565b6002602052805f5260405f205f915090505481565b600f602052805f5260405f205f91509050805f015f9054906101000a900473ffffffffffffffffffffffffffffffffffffffff1690806001015490806002015f9054906101000a900473ffffffffffffffffffffffffffffffffffffffff1690806003015490806004018054610fd090614b3e565b80601f0160208091040260200160405190810160405280929190818152602001828054610ffc90614b3e565b80156110475780601f1061101e57610100808354040283529160200191611047565b820191905f5260205f20905b81548152906001019060200180831161102a57829003601f168201915b505050505090806005015f9054906101000a900460ff16905086565b600a5f9054906101000a900473ffffffffffffffffffffffffffffffffffffffff1673ffffffffffffffffffffffffffffffffffffffff163373ffffffffffffffffffffffffffffffffffffffff16146110f2576040517f08c379a00000000000000000000000000000000000000000000000000000000081526004016110e9906149c3565b60405180910390fd5b5f73ffffffffffffffffffffffffffffffffffffffff168173ffffffffffffffffffffffffffffffffffffffff1603611160576040517f08c379a000000000000000000000000000000000000000000000000000000000815260040161115790614bb8565b60405180910390fd5b5f60095f9054906101000a900473ffffffffffffffffffffffffffffffffffffffff1690508160095f6101000a81548173ffffffffffffffffffffffffffffffffffffffff021916908373ffffffffffffffffffffffffffffffffffffffff1602179055506040516111d190614c2a565b60405180910390207fc194909a05d344d541a4418f8a1afcb8c4a13f35e87d3faf2b4d1f736a2f00b68273ffffffffffffffffffffffffffffffffffffffff168473ffffffffffffffffffffffffffffffffffffffff16604051611236929190614c3e565b60405180910390a25050565b600a5f9054906101000a900473ffffffffffffffffffffffffffffffffffffffff1673ffffffffffffffffffffffffffffffffffffffff163373ffffffffffffffffffffffffffffffffffffffff16146112d1576040517f08c379a00000000000000000000000000000000000000000000000000000000081526004016112c8906149c3565b60405180910390fd5b6103e861ffff168161ffff16111561131e576040517f08c379a000000000000000000000000000000000000000000000000000000000815260040161131590614caf565b60405180910390fd5b5f600660029054906101000a900461ffff1661ffff16905081600660026101000a81548161ffff021916908361ffff16021790555060405161135f90614d17565b60405180910390207fc194909a05d344d541a4418f8a1afcb8c4a13f35e87d3faf2b4d1f736a2f00b68284604051611398929190614d64565b60405180910390a25050565b5f60035f8373ffffffffffffffffffffffffffffffffffffffff1673ffffffffffffffffffffffffffffffffffffffff1681526020019081526020015f20549050919050565b600a5f9054906101000a900473ffffffffffffffffffffffffffffffffffffffff1673ffffffffffffffffffffffffffffffffffffffff163373ffffffffffffffffffffffffffffffffffffffff1614611479576040517f08c379a0000000000000000000000000000000000000000000000000000000008152600401611470906149c3565b60405180910390fd5b5f600f5f8381526020019081526020015f2060010154116114cf576040517f08c379a00000000000000000000000000000000000000000000000000000000081526004016114c690614dfb565b60405180910390fd5b600f5f8281526020019081526020015f206005015f9054906101000a900460ff1615611530576040517f08c379a000000000000000000000000000000000000000000000000000000000815260040161152790614e63565b60405180910390fd5b3373ffffffffffffffffffffffffffffffffffffffff16817fcf96fcafd40fd3a299acc199a9ef1f33d3b7039d43191a65acb6c4e2275fe68260405160405180910390a350565b5f60025f8373ffffffffffffffffffffffffffffffffffffffff1673ffffffffffffffffffffffffffffffffffffffff1681526020019081526020015f20549050919050565b6115c5613ff5565b600f5f8381526020019081526020015f206040518060c00160405290815f82015f9054906101000a900473ffffffffffffffffffffffffffffffffffffffff1673ffffffffffffffffffffffffffffffffffffffff1673ffffffffffffffffffffffffffffffffffffffff16815260200160018201548152602001600282015f9054906101000a900473ffffffffffffffffffffffffffffffffffffffff1673ffffffffffffffffffffffffffffffffffffffff1673ffffffffffffffffffffffffffffffffffffffff168152602001600382015481526020016004820180546116ae90614b3e565b80601f01602080910402602001604051908101604052809291908181526020018280546116da90614b3e565b80156117255780601f106116fc57610100808354040283529160200191611725565b820191905f5260205f20905b81548152906001019060200180831161170857829003601f168201915b50505050508152602001600582015f9054906101000a900460ff1615151515815250509050919050565b6109c481565b600a5f9054906101000a900473ffffffffffffffffffffffffffffffffffffffff1673ffffffffffffffffffffffffffffffffffffffff163373ffffffffffffffffffffffffffffffffffffffff16146117e4576040517f08c379a00000000000000000000000000000000000000000000000000000000081526004016117db906149c3565b60405180910390fd5b5f73ffffffffffffffffffffffffffffffffffffffff168273ffffffffffffffffffffffffffffffffffffffff1603611852576040517f08c379a000000000000000000000000000000000000000000000000000000000815260040161184990614a93565b60405180910390fd5b600d5f8373ffffffffffffffffffffffffffffffffffffffff1673ffffffffffffffffffffffffffffffffffffffff1681526020019081526020015f205f9054906101000a900460ff166118db576040517f08c379a00000000000000000000000000000000000000000000000000000000081526004016118d290614ecb565b60405180910390fd5b5f60025f8473ffffffffffffffffffffffffffffffffffffffff1673ffffffffffffffffffffffffffffffffffffffff1681526020019081526020015f205490505f5f821190505f821115611943578160015f82825461193b9190614ade565b925050819055505b8260025f8673ffffffffffffffffffffffffffffffffffffffff1673ffffffffffffffffffffffffffffffffffffffff1681526020019081526020015f20819055505f831115611a63578260015f82825461199e9190614ee9565b9250508190555080611a5e5760016004805490506119bc9190614ee9565b60055f8673ffffffffffffffffffffffffffffffffffffffff1673ffffffffffffffffffffffffffffffffffffffff1681526020019081526020015f2081905550600484908060018154018082558091505060019003905f5260205f20015f9091909190916101000a81548173ffffffffffffffffffffffffffffffffffffffff021916908373ffffffffffffffffffffffffffffffffffffffff1602179055505b611a74565b8015611a7357611a7284612ddd565b5b5b8373ffffffffffffffffffffffffffffffffffffffff167f8e283146cdb726ff0d2b1637115df2af465c7bc375c24e5d7bf12b83454b281b8385600154604051611ac0939291906146b4565b60405180910390a250505050565b60065f9054906101000a900461ffff1681565b6003602052805f5260405f205f915090505481565b345f8111611b39576040517f08c379a0000000000000000000000000000000000000000000000000000000008152600401611b30906148e7565b60405180910390fd5b611b46345f868686612b2f565b50505050565b600a5f9054906101000a900473ffffffffffffffffffffffffffffffffffffffff1681565b60015481565b60048181548110611b86575f80fd5b905f5260205f20015f915054906101000a900473ffffffffffffffffffffffffffffffffffffffff1681565b600b5481565b5f5f5f61271061ffff1660065f9054906101000a900461ffff1661ffff1685611be19190614f1c565b611beb9190614f8a565b925061271061ffff16600660029054906101000a900461ffff1661ffff1685611c149190614f1c565b611c1e9190614f8a565b9150818385611c2d9190614ade565b611c379190614ade565b90509193909250565b5f600480549050905090565b6005602052805f5260405f205f915090505481565b6103e881565b5f5f6001541480611cb457505f60025f8573ffffffffffffffffffffffffffffffffffffffff1673ffffffffffffffffffffffffffffffffffffffff1681526020019081526020015f2054145b15611cc1575f9050611d1a565b60015460025f8573ffffffffffffffffffffffffffffffffffffffff1673ffffffffffffffffffffffffffffffffffffffff1681526020019081526020015f205483611d0d9190614f1c565b611d179190614f8a565b90505b92915050565b6040518060400160405280600181526020017f310000000000000000000000000000000000000000000000000000000000000081525081565b600a5f9054906101000a900473ffffffffffffffffffffffffffffffffffffffff1673ffffffffffffffffffffffffffffffffffffffff163373ffffffffffffffffffffffffffffffffffffffff1614611de8576040517f08c379a0000000000000000000000000000000000000000000000000000000008152600401611ddf906149c3565b60405180910390fd5b6109c461ffff168161ffff161015611e35576040517f08c379a0000000000000000000000000000000000000000000000000000000008152600401611e2c90615004565b60405180910390fd5b61271061ffff168161ffff161115611e82576040517f08c379a0000000000000000000000000000000000000000000000000000000008152600401611e799061506c565b60405180910390fd5b5f60065f9054906101000a900461ffff1661ffff1690508160065f6101000a81548161ffff021916908361ffff160217905550604051611ec1906150d4565b60405180910390207fc194909a05d344d541a4418f8a1afcb8c4a13f35e87d3faf2b4d1f736a2f00b68284604051611efa929190614d64565b60405180910390a25050565b600a5f9054906101000a900473ffffffffffffffffffffffffffffffffffffffff1673ffffffffffffffffffffffffffffffffffffffff163373ffffffffffffffffffffffffffffffffffffffff1614611f95576040517f08c379a0000000000000000000000000000000000000000000000000000000008152600401611f8c906149c3565b60405180910390fd5b5f73ffffffffffffffffffffffffffffffffffffffff168173ffffffffffffffffffffffffffffffffffffffff1603612003576040517f08c379a0000000000000000000000000000000000000000000000000000000008152600401611ffa90614bb8565b60405180910390fd5b5f600c5f9054906101000a900473ffffffffffffffffffffffffffffffffffffffff16905081600c5f6101000a81548173ffffffffffffffffffffffffffffffffffffffff021916908373ffffffffffffffffffffffffffffffffffffffff16021790555060405161207490615132565b60405180910390207fc194909a05d344d541a4418f8a1afcb8c4a13f35e87d3faf2b4d1f736a2f00b68273ffffffffffffffffffffffffffffffffffffffff168473ffffffffffffffffffffffffffffffffffffffff166040516120d9929190614c3e565b60405180910390a25050565b600a5f9054906101000a900473ffffffffffffffffffffffffffffffffffffffff1673ffffffffffffffffffffffffffffffffffffffff163373ffffffffffffffffffffffffffffffffffffffff1614612174576040517f08c379a000000000000000000000000000000000000000000000000000000000815260040161216b906149c3565b60405180910390fd5b5f600f5f8581526020019081526020015f2090505f8160010154116121ce576040517f08c379a00000000000000000000000000000000000000000000000000000000081526004016121c590615190565b60405180910390fd5b806005015f9054906101000a900460ff161561221f576040517f08c379a000000000000000000000000000000000000000000000000000000000815260040161221690614e63565b60405180910390fd5b6001816005015f6101000a81548160ff02191690831515021790555060405160200161224a906151f8565b6040516020818303038152906040528051906020012083604051602001612271919061523c565b60405160208183030381529060405280519060200120036124bf575f73ffffffffffffffffffffffffffffffffffffffff16816002015f9054906101000a900473ffffffffffffffffffffffffffffffffffffffff1673ffffffffffffffffffffffffffffffffffffffff16036123b6575f815f015f9054906101000a900473ffffffffffffffffffffffffffffffffffffffff1673ffffffffffffffffffffffffffffffffffffffff16826001015460405161232d9061527f565b5f6040518083038185875af1925050503d805f8114612367576040519150601f19603f3d011682016040523d82523d5f602084013e61236c565b606091505b50509050806123b0576040517f08c379a00000000000000000000000000000000000000000000000000000000081526004016123a7906152dd565b60405180910390fd5b506124ba565b806002015f9054906101000a900473ffffffffffffffffffffffffffffffffffffffff1673ffffffffffffffffffffffffffffffffffffffff1663a9059cbb825f015f9054906101000a900473ffffffffffffffffffffffffffffffffffffffff1683600101546040518363ffffffff1660e01b815260040161243a9291906152fb565b6020604051808303815f875af1158015612456573d5f5f3e3d5ffd5b505050506040513d601f19601f8201168201806040525081019061247a919061494e565b6124b9576040517f08c379a00000000000000000000000000000000000000000000000000000000081526004016124b09061536c565b60405180910390fd5b5b6129ed565b6040516020016124ce906153d4565b60405160208183030381529060405280519060200120836040516020016124f5919061523c565b6040516020818303038152906040528051906020012003612741575f73ffffffffffffffffffffffffffffffffffffffff16816002015f9054906101000a900473ffffffffffffffffffffffffffffffffffffffff1673ffffffffffffffffffffffffffffffffffffffff1603612639575f60095f9054906101000a900473ffffffffffffffffffffffffffffffffffffffff1673ffffffffffffffffffffffffffffffffffffffff1682600101546040516125b09061527f565b5f6040518083038185875af1925050503d805f81146125ea576040519150601f19603f3d011682016040523d82523d5f602084013e6125ef565b606091505b5050905080612633576040517f08c379a000000000000000000000000000000000000000000000000000000000815260040161262a90615432565b60405180910390fd5b5061273c565b806002015f9054906101000a900473ffffffffffffffffffffffffffffffffffffffff1673ffffffffffffffffffffffffffffffffffffffff1663a9059cbb60095f9054906101000a900473ffffffffffffffffffffffffffffffffffffffff1683600101546040518363ffffffff1660e01b81526004016126bc9291906152fb565b6020604051808303815f875af11580156126d8573d5f5f3e3d5ffd5b505050506040513d601f19601f820116820180604052508101906126fc919061494e565b61273b576040517f08c379a00000000000000000000000000000000000000000000000000000000081526004016127329061536c565b60405180910390fd5b5b6129ec565b6040516020016127509061549a565b6040516020818303038152906040528051906020012083604051602001612777919061523c565b60405160208183030381529060405280519060200120036129eb575f73ffffffffffffffffffffffffffffffffffffffff168273ffffffffffffffffffffffffffffffffffffffff1603612800576040517f08c379a00000000000000000000000000000000000000000000000000000000081526004016127f7906154f8565b60405180910390fd5b5f73ffffffffffffffffffffffffffffffffffffffff16816002015f9054906101000a900473ffffffffffffffffffffffffffffffffffffffff1673ffffffffffffffffffffffffffffffffffffffff1603612908575f8273ffffffffffffffffffffffffffffffffffffffff16826001015460405161287f9061527f565b5f6040518083038185875af1925050503d805f81146128b9576040519150601f19603f3d011682016040523d82523d5f602084013e6128be565b606091505b5050905080612902576040517f08c379a00000000000000000000000000000000000000000000000000000000081526004016128f990615560565b60405180910390fd5b506129ea565b806002015f9054906101000a900473ffffffffffffffffffffffffffffffffffffffff1673ffffffffffffffffffffffffffffffffffffffff1663a9059cbb8383600101546040518363ffffffff1660e01b815260040161296a9291906152fb565b6020604051808303815f875af1158015612986573d5f5f3e3d5ffd5b505050506040513d601f19601f820116820180604052508101906129aa919061494e565b6129e9576040517f08c379a00000000000000000000000000000000000000000000000000000000081526004016129e09061536c565b60405180910390fd5b5b5b5b5b8173ffffffffffffffffffffffffffffffffffffffff16847f5c89abac7ac45c8e3d09ff1d93532ee98b621f3be43f201b8966e3a1d438719585604051612a3491906146e9565b60405180910390a350505050565b5f6004805490508210612a8a576040517f08c379a0000000000000000000000000000000000000000000000000000000008152600401612a81906155c8565b60405180910390fd5b60048281548110612a9e57612a9d6155e6565b5b905f5260205f20015f9054906101000a900473ffffffffffffffffffffffffffffffffffffffff169050919050565b60085481565b600660029054906101000a900461ffff1681565b600c5f9054906101000a900473ffffffffffffffffffffffffffffffffffffffff1681565b61271081565b6010602052805f5260405f205f915054906101000a900460ff1681565b5f3386864243604051602001612b49959493929190615678565b6040516020818303038152906040528051906020012090505f61271061ffff1660065f9054906101000a900461ffff1661ffff1688612b889190614f1c565b612b929190614f8a565b90505f61271061ffff16600660029054906101000a900461ffff1661ffff1689612bbc9190614f1c565b612bc69190614f8a565b90505f81838a612bd69190614ade565b612be09190614ade565b90505f8303612c89578773ffffffffffffffffffffffffffffffffffffffff163373ffffffffffffffffffffffffffffffffffffffff167f89c3c5f936bd2aacb9fa7138ce96895a718edf450ebd0c8cef4de2bdd42a43be8b604051612c46919061432f565b60405180910390a36040517f08c379a0000000000000000000000000000000000000000000000000000000008152600401612c8090615720565b60405180910390fd5b5f612c998589338d8d8c8c61300b565b905080612d2457612ce285338c8c6040518060400160405280601d81526020017f534545442066696c7465722076616c69646174696f6e206661696c6564000000815250613111565b847f49b584275be4a4d994205ed43431aeb2032529552b838f0d98ed6a5b94e3ad145f604051612d129190615788565b60405180910390a25050505050612dd6565b847f49b584275be4a4d994205ed43431aeb2032529552b838f0d98ed6a5b94e3ad146001604051612d5591906157fe565b60405180910390a2612d6a858585858d6132ab565b878973ffffffffffffffffffffffffffffffffffffffff163373ffffffffffffffffffffffffffffffffffffffff167f30ade6701143dc9532d82f356fc5b4dd544d5fe5fd6539e5cb786b34cbc04a768d604051612dc8919061432f565b60405180910390a450505050505b5050505050565b5f60055f8373ffffffffffffffffffffffffffffffffffffffff1673ffffffffffffffffffffffffffffffffffffffff1681526020019081526020015f205490505f8111612e60576040517f08c379a0000000000000000000000000000000000000000000000000000000008152600401612e5790615874565b60405180910390fd5b8080612e6b90615892565b9150506001600480549050612e809190614ade565b811015612f81575f60046001600480549050612e9c9190614ade565b81548110612ead57612eac6155e6565b5b905f5260205f20015f9054906101000a900473ffffffffffffffffffffffffffffffffffffffff1690508060048381548110612eec57612eeb6155e6565b5b905f5260205f20015f6101000a81548173ffffffffffffffffffffffffffffffffffffffff021916908373ffffffffffffffffffffffffffffffffffffffff160217905550600182612f3e9190614ee9565b60055f8373ffffffffffffffffffffffffffffffffffffffff1673ffffffffffffffffffffffffffffffffffffffff1681526020019081526020015f2081905550505b6004805480612f9357612f926158b9565b5b600190038181905f5260205f20015f6101000a81549073ffffffffffffffffffffffffffffffffffffffff021916905590555f60055f8473ffffffffffffffffffffffffffffffffffffffff1673ffffffffffffffffffffffffffffffffffffffff1681526020019081526020015f20819055505050565b5f5f5f1b870361301d575f9050613106565b5f838390500361302f575f9050613106565b60418383905014613042575f9050613106565b5f613052898888888c8989613798565b9050600e5f8273ffffffffffffffffffffffffffffffffffffffff1673ffffffffffffffffffffffffffffffffffffffff1681526020019081526020015f205f9054906101000a900460ff166130ab575f915050613106565b60105f8a81526020019081526020015f205f9054906101000a900460ff16156130d7575f915050613106565b600160105f8b81526020019081526020015f205f6101000a81548160ff02191690831515021790555060019150505b979650505050505050565b6040518060c001604052808573ffffffffffffffffffffffffffffffffffffffff1681526020018481526020018373ffffffffffffffffffffffffffffffffffffffff1681526020014281526020018281526020015f1515815250600f5f8781526020019081526020015f205f820151815f015f6101000a81548173ffffffffffffffffffffffffffffffffffffffff021916908373ffffffffffffffffffffffffffffffffffffffff160217905550602082015181600101556040820151816002015f6101000a81548173ffffffffffffffffffffffffffffffffffffffff021916908373ffffffffffffffffffffffffffffffffffffffff1602179055506060820151816003015560808201518160040190816132309190615a8e565b5060a0820151816005015f6101000a81548160ff0219169083151502179055509050508373ffffffffffffffffffffffffffffffffffffffff16857f87c5b92b1b6e434434112fb894a7b50b77988c5a2b5892ca1a1ea62f51ba6c9e858460405161329c929190615b5d565b60405180910390a35050505050565b5f73ffffffffffffffffffffffffffffffffffffffff168173ffffffffffffffffffffffffffffffffffffffff16036133ad575f60095f9054906101000a900473ffffffffffffffffffffffffffffffffffffffff1673ffffffffffffffffffffffffffffffffffffffff16856040516133249061527f565b5f6040518083038185875af1925050503d805f811461335e576040519150601f19603f3d011682016040523d82523d5f602084013e613363565b606091505b50509050806133a7576040517f08c379a000000000000000000000000000000000000000000000000000000000815260040161339e90615bd5565b60405180910390fd5b50613489565b8073ffffffffffffffffffffffffffffffffffffffff1663a9059cbb60095f9054906101000a900473ffffffffffffffffffffffffffffffffffffffff16866040518363ffffffff1660e01b81526004016134099291906152fb565b6020604051808303815f875af1158015613425573d5f5f3e3d5ffd5b505050506040513d601f19601f82011682018060405250810190613449919061494e565b613488576040517f08c379a000000000000000000000000000000000000000000000000000000000815260040161347f9061536c565b60405180910390fd5b5b848173ffffffffffffffffffffffffffffffffffffffff1660095f9054906101000a900473ffffffffffffffffffffffffffffffffffffffff1673ffffffffffffffffffffffffffffffffffffffff167f91cbf2fb2fc6159419f020d7e7b2dc950b6468307d2a6b827efae89ef24b185b87604051613508919061432f565b60405180910390a45f83111561377d575f73ffffffffffffffffffffffffffffffffffffffff168173ffffffffffffffffffffffffffffffffffffffff160361361a575f600c5f9054906101000a900473ffffffffffffffffffffffffffffffffffffffff1673ffffffffffffffffffffffffffffffffffffffff16846040516135919061527f565b5f6040518083038185875af1925050503d805f81146135cb576040519150601f19603f3d011682016040523d82523d5f602084013e6135d0565b606091505b5050905080613614576040517f08c379a000000000000000000000000000000000000000000000000000000000815260040161360b90615c3d565b60405180910390fd5b506136f6565b8073ffffffffffffffffffffffffffffffffffffffff1663a9059cbb600c5f9054906101000a900473ffffffffffffffffffffffffffffffffffffffff16856040518363ffffffff1660e01b81526004016136769291906152fb565b6020604051808303815f875af1158015613692573d5f5f3e3d5ffd5b505050506040513d601f19601f820116820180604052508101906136b6919061494e565b6136f5576040517f08c379a00000000000000000000000000000000000000000000000000000000081526004016136ec9061536c565b60405180910390fd5b5b8073ffffffffffffffffffffffffffffffffffffffff16600c5f9054906101000a900473ffffffffffffffffffffffffffffffffffffffff1673ffffffffffffffffffffffffffffffffffffffff167f79982a434f50dcafc1bb463b4c025469fecf26b5c1b547d2584220a4596a326185604051613774919061432f565b60405180910390a35b5f82111561379157613790858383613819565b5b5050505050565b5f5f6137a78989898989613e04565b90505f5f5f6137b68787613e94565b9250925092506001848484846040515f81526020016040526040516137de9493929190615c76565b6020604051602081039080840390855afa1580156137fe573d5f5f3e3d5ffd5b50505060206040510351945050505050979650505050505050565b5f60015403613a8c575f73ffffffffffffffffffffffffffffffffffffffff168173ffffffffffffffffffffffffffffffffffffffff1603613924575f60095f9054906101000a900473ffffffffffffffffffffffffffffffffffffffff1673ffffffffffffffffffffffffffffffffffffffff168360405161389b9061527f565b5f6040518083038185875af1925050503d805f81146138d5576040519150601f19603f3d011682016040523d82523d5f602084013e6138da565b606091505b505090508061391e576040517f08c379a000000000000000000000000000000000000000000000000000000000815260040161391590615d03565b60405180910390fd5b50613a00565b8073ffffffffffffffffffffffffffffffffffffffff1663a9059cbb60095f9054906101000a900473ffffffffffffffffffffffffffffffffffffffff16846040518363ffffffff1660e01b81526004016139809291906152fb565b6020604051808303815f875af115801561399c573d5f5f3e3d5ffd5b505050506040513d601f19601f820116820180604052508101906139c0919061494e565b6139ff576040517f08c379a00000000000000000000000000000000000000000000000000000000081526004016139f69061536c565b60405180910390fd5b5b828173ffffffffffffffffffffffffffffffffffffffff1660095f9054906101000a900473ffffffffffffffffffffffffffffffffffffffff1673ffffffffffffffffffffffffffffffffffffffff167f0907d075cd7cebd1624fa88aadc9011f555181d869b46d492aead767b28fad1385604051613a7f919061432f565b60405180910390a4613dff565b5f613a95613f6a565b90505f5f90505b8151811015613dfc575f828281518110613ab957613ab86155e6565b5b602002602001015190505f60025f8373ffffffffffffffffffffffffffffffffffffffff1673ffffffffffffffffffffffffffffffffffffffff1681526020019081526020015f205490505f811115613ded575f6001548288613b1c9190614f1c565b613b269190614f8a565b90505f811115613deb575f73ffffffffffffffffffffffffffffffffffffffff168673ffffffffffffffffffffffffffffffffffffffff1603613c11575f8373ffffffffffffffffffffffffffffffffffffffff1682604051613b889061527f565b5f6040518083038185875af1925050503d805f8114613bc2576040519150601f19603f3d011682016040523d82523d5f602084013e613bc7565b606091505b5050905080613c0b576040517f08c379a0000000000000000000000000000000000000000000000000000000008152600401613c0290615d6b565b60405180910390fd5b50613ccc565b8573ffffffffffffffffffffffffffffffffffffffff1663a9059cbb84836040518363ffffffff1660e01b8152600401613c4c9291906152fb565b6020604051808303815f875af1158015613c68573d5f5f3e3d5ffd5b505050506040513d601f19601f82011682018060405250810190613c8c919061494e565b613ccb576040517f08c379a0000000000000000000000000000000000000000000000000000000008152600401613cc290615dd3565b60405180910390fd5b5b8060035f8573ffffffffffffffffffffffffffffffffffffffff1673ffffffffffffffffffffffffffffffffffffffff1681526020019081526020015f205f828254613d189190614ee9565b92505081905550878673ffffffffffffffffffffffffffffffffffffffff168473ffffffffffffffffffffffffffffffffffffffff167f0907d075cd7cebd1624fa88aadc9011f555181d869b46d492aead767b28fad1384604051613d7d919061432f565b60405180910390a48573ffffffffffffffffffffffffffffffffffffffff168373ffffffffffffffffffffffffffffffffffffffff167f7d1f32aa96cac2a380ba19a07ef18136c8f0a5887c5ce7a243a4b0dae6e80b4783604051613de2919061432f565b60405180910390a35b505b50508080600101915050613a9c565b50505b505050565b5f5f7f7235363e5a3fdced7e390d4ba4e239d5bae8ae7b0a72efd25a89e26559f03a6e8787878787426001604051602001613e46989796959493929190615df1565b6040516020818303038152906040528051906020012090505f5481604051602001613e72929190615ed7565b6040516020818303038152906040528051906020012091505095945050505050565b5f5f5f60418585905014613edd576040517f08c379a0000000000000000000000000000000000000000000000000000000008152600401613ed490615f57565b60405180910390fd5b84803592506020810135915060408101355f1a935050601b8360ff161015613f0f57601b83613f0c9190615f75565b92505b601b8360ff161480613f245750601c8360ff16145b613f63576040517f08c379a0000000000000000000000000000000000000000000000000000000008152600401613f5a90615ff3565b60405180910390fd5b9250925092565b60606004805480602002602001604051908101604052809291908181526020018280548015613feb57602002820191905f5260205f20905b815f9054906101000a900473ffffffffffffffffffffffffffffffffffffffff1673ffffffffffffffffffffffffffffffffffffffff1681526020019060010190808311613fa2575b5050505050905090565b6040518060c001604052805f73ffffffffffffffffffffffffffffffffffffffff1681526020015f81526020015f73ffffffffffffffffffffffffffffffffffffffff1681526020015f8152602001606081526020015f151581525090565b5f604051905090565b5f5ffd5b5f5ffd5b5f73ffffffffffffffffffffffffffffffffffffffff82169050919050565b5f61408e82614065565b9050919050565b61409e81614084565b81146140a8575f5ffd5b50565b5f813590506140b981614095565b92915050565b5f602082840312156140d4576140d361405d565b5b5f6140e1848285016140ab565b91505092915050565b5f8115159050919050565b6140fe816140ea565b82525050565b5f6020820190506141175f8301846140f5565b92915050565b61412681614084565b82525050565b5f60208201905061413f5f83018461411d565b92915050565b5f819050919050565b61415781614145565b82525050565b5f6020820190506141705f83018461414e565b92915050565b5f819050919050565b61418881614176565b8114614192575f5ffd5b50565b5f813590506141a38161417f565b92915050565b6141b281614145565b81146141bc575f5ffd5b50565b5f813590506141cd816141a9565b92915050565b5f5ffd5b5f5ffd5b5f5ffd5b5f5f83601f8401126141f4576141f36141d3565b5b8235905067ffffffffffffffff811115614211576142106141d7565b5b60208301915083600182028301111561422d5761422c6141db565b5b9250929050565b5f5f5f5f5f6080868803121561424d5761424c61405d565b5b5f61425a888289016140ab565b955050602061426b88828901614195565b945050604061427c888289016141bf565b935050606086013567ffffffffffffffff81111561429d5761429c614061565b5b6142a9888289016141df565b92509250509295509295909350565b6142c1816140ea565b81146142cb575f5ffd5b50565b5f813590506142dc816142b8565b92915050565b5f5f604083850312156142f8576142f761405d565b5b5f614305858286016140ab565b9250506020614316858286016142ce565b9150509250929050565b61432981614176565b82525050565b5f6020820190506143425f830184614320565b92915050565b5f6020828403121561435d5761435c61405d565b5b5f61436a848285016141bf565b91505092915050565b5f81519050919050565b5f82825260208201905092915050565b8281835e5f83830152505050565b5f601f19601f8301169050919050565b5f6143b582614373565b6143bf818561437d565b93506143cf81856020860161438d565b6143d88161439b565b840191505092915050565b5f60c0820190506143f65f83018961411d565b6144036020830188614320565b614410604083018761411d565b61441d6060830186614320565b818103608083015261442f81856143ab565b905061443e60a08301846140f5565b979650505050505050565b5f61ffff82169050919050565b61445f81614449565b8114614469575f5ffd5b50565b5f8135905061447a81614456565b92915050565b5f602082840312156144955761449461405d565b5b5f6144a28482850161446c565b91505092915050565b6144b481614084565b82525050565b6144c381614176565b82525050565b5f82825260208201905092915050565b5f6144e382614373565b6144ed81856144c9565b93506144fd81856020860161438d565b6145068161439b565b840191505092915050565b61451a816140ea565b82525050565b5f60c083015f8301516145355f8601826144ab565b50602083015161454860208601826144ba565b50604083015161455b60408601826144ab565b50606083015161456e60608601826144ba565b506080830151848203608086015261458682826144d9565b91505060a083015161459b60a0860182614511565b508091505092915050565b5f6020820190508181035f8301526145be8184614520565b905092915050565b6145cf81614449565b82525050565b5f6020820190506145e85f8301846145c6565b92915050565b5f5f604083850312156146045761460361405d565b5b5f614611858286016140ab565b925050602061462285828601614195565b9150509250929050565b5f5f5f604084860312156146435761464261405d565b5b5f614650868287016141bf565b935050602084013567ffffffffffffffff81111561467157614670614061565b5b61467d868287016141df565b92509250509250925092565b5f6020828403121561469e5761469d61405d565b5b5f6146ab84828501614195565b91505092915050565b5f6060820190506146c75f830186614320565b6146d46020830185614320565b6146e16040830184614320565b949350505050565b5f6020820190508181035f83015261470181846143ab565b905092915050565b5f5ffd5b7f4e487b71000000000000000000000000000000000000000000000000000000005f52604160045260245ffd5b6147438261439b565b810181811067ffffffffffffffff821117156147625761476161470d565b5b80604052505050565b5f614774614054565b9050614780828261473a565b919050565b5f67ffffffffffffffff82111561479f5761479e61470d565b5b6147a88261439b565b9050602081019050919050565b828183375f83830152505050565b5f6147d56147d084614785565b61476b565b9050828152602081018484840111156147f1576147f0614709565b5b6147fc8482856147b5565b509392505050565b5f82601f830112614818576148176141d3565b5b81356148288482602086016147c3565b91505092915050565b5f5f5f606084860312156148485761484761405d565b5b5f614855868287016141bf565b935050602084013567ffffffffffffffff81111561487657614875614061565b5b61488286828701614804565b9250506040614893868287016140ab565b9150509250925092565b7f416d6f756e74206d7573742062652067726561746572207468616e207a65726f5f82015250565b5f6148d160208361437d565b91506148dc8261489d565b602082019050919050565b5f6020820190508181035f8301526148fe816148c5565b9050919050565b5f6060820190506149185f83018661411d565b614925602083018561411d565b6149326040830184614320565b949350505050565b5f81519050614948816142b8565b92915050565b5f602082840312156149635761496261405d565b5b5f6149708482850161493a565b91505092915050565b7f4f6e6c792076616c696461746f72207365742063616e2063616c6c00000000005f82015250565b5f6149ad601b8361437d565b91506149b882614979565b602082019050919050565b5f6020820190508181035f8301526149da816149a1565b9050919050565b7f496e76616c6964206174746573746f72206164647265737300000000000000005f82015250565b5f614a1560188361437d565b9150614a20826149e1565b602082019050919050565b5f6020820190508181035f830152614a4281614a09565b9050919050565b7f496e76616c6964206e6f646520616464726573730000000000000000000000005f82015250565b5f614a7d60148361437d565b9150614a8882614a49565b602082019050919050565b5f6020820190508181035f830152614aaa81614a71565b9050919050565b7f4e487b71000000000000000000000000000000000000000000000000000000005f52601160045260245ffd5b5f614ae882614176565b9150614af383614176565b9250828203905081811115614b0b57614b0a614ab1565b5b92915050565b7f4e487b71000000000000000000000000000000000000000000000000000000005f52602260045260245ffd5b5f6002820490506001821680614b5557607f821691505b602082108103614b6857614b67614b11565b5b50919050565b7f496e76616c6964206164647265737300000000000000000000000000000000005f82015250565b5f614ba2600f8361437d565b9150614bad82614b6e565b602082019050919050565b5f6020820190508181035f830152614bcf81614b96565b9050919050565b5f81905092915050565b7f6368696c64416e63686f720000000000000000000000000000000000000000005f82015250565b5f614c14600b83614bd6565b9150614c1f82614be0565b600b82019050919050565b5f614c3482614c08565b9150819050919050565b5f604082019050614c515f830185614320565b614c5e6020830184614320565b9392505050565b7f45786365656473206665652063617000000000000000000000000000000000005f82015250565b5f614c99600f8361437d565b9150614ca482614c65565b602082019050919050565b5f6020820190508181035f830152614cc681614c8d565b9050919050565b7f6665654f707342707300000000000000000000000000000000000000000000005f82015250565b5f614d01600983614bd6565b9150614d0c82614ccd565b600982019050919050565b5f614d2182614cf5565b9150819050919050565b5f819050919050565b5f614d4e614d49614d4484614449565b614d2b565b614176565b9050919050565b614d5e81614d34565b82525050565b5f604082019050614d775f830185614320565b614d846020830184614d55565b9392505050565b7f4e6f2068656c642066756e647320666f722074686973207472616e73616374695f8201527f6f6e000000000000000000000000000000000000000000000000000000000000602082015250565b5f614de560228361437d565b9150614df082614d8b565b604082019050919050565b5f6020820190508181035f830152614e1281614dd9565b9050919050565b7f416c7265616479207265736f6c766564000000000000000000000000000000005f82015250565b5f614e4d60108361437d565b9150614e5882614e19565b602082019050919050565b5f6020820190508181035f830152614e7a81614e41565b9050919050565b7f4e6f6465206e6f742077686974656c69737465640000000000000000000000005f82015250565b5f614eb560148361437d565b9150614ec082614e81565b602082019050919050565b5f6020820190508181035f830152614ee281614ea9565b9050919050565b5f614ef382614176565b9150614efe83614176565b9250828201905080821115614f1657614f15614ab1565b5b92915050565b5f614f2682614176565b9150614f3183614176565b9250828202614f3f81614176565b91508282048414831517614f5657614f55614ab1565b5b5092915050565b7f4e487b71000000000000000000000000000000000000000000000000000000005f52601260045260245ffd5b5f614f9482614176565b9150614f9f83614176565b925082614faf57614fae614f5d565b5b828204905092915050565b7f43616e6e6f74206c6f7765722062656c6f77206861726420666c6f6f720000005f82015250565b5f614fee601d8361437d565b9150614ff982614fba565b602082019050919050565b5f6020820190508181035f83015261501b81614fe2565b9050919050565b7f496e76616c6964204250530000000000000000000000000000000000000000005f82015250565b5f615056600b8361437d565b915061506182615022565b602082019050919050565b5f6020820190508181035f8301526150838161504a565b9050919050565b7f6d696e4368696c645368617265427073000000000000000000000000000000005f82015250565b5f6150be601083614bd6565b91506150c98261508a565b601082019050919050565b5f6150de826150b2565b9150819050919050565b7f6f7065726174696f6e7357616c6c6574000000000000000000000000000000005f82015250565b5f61511c601083614bd6565b9150615127826150e8565b601082019050919050565b5f61513c82615110565b9150819050919050565b7f4e6f2068656c642066756e6473000000000000000000000000000000000000005f82015250565b5f61517a600d8361437d565b915061518582615146565b602082019050919050565b5f6020820190508181035f8301526151a78161516e565b9050919050565b7f524546554e4400000000000000000000000000000000000000000000000000005f82015250565b5f6151e2600683614bd6565b91506151ed826151ae565b600682019050919050565b5f615202826151d6565b9150819050919050565b5f61521682614373565b6152208185614bd6565b935061523081856020860161438d565b80840191505092915050565b5f615247828461520c565b915081905092915050565b5f81905092915050565b50565b5f61526a5f83615252565b91506152758261525c565b5f82019050919050565b5f6152898261525f565b9150819050919050565b7f45544820726566756e64206661696c65640000000000000000000000000000005f82015250565b5f6152c760118361437d565b91506152d282615293565b602082019050919050565b5f6020820190508181035f8301526152f4816152bb565b9050919050565b5f60408201905061530e5f83018561411d565b61531b6020830184614320565b9392505050565b7f5472616e73666572206661696c656400000000000000000000000000000000005f82015250565b5f615356600f8361437d565b915061536182615322565b602082019050919050565b5f6020820190508181035f8301526153838161534a565b9050919050565b7f444f4e4154455f544f5f4348494c4400000000000000000000000000000000005f82015250565b5f6153be600f83614bd6565b91506153c98261538a565b600f82019050919050565b5f6153de826153b2565b9150819050919050565b7f45544820646f6e6174696f6e206661696c6564000000000000000000000000005f82015250565b5f61541c60138361437d565b9150615427826153e8565b602082019050919050565b5f6020820190508181035f83015261544981615410565b9050919050565b7f5245524f555445000000000000000000000000000000000000000000000000005f82015250565b5f615484600783614bd6565b915061548f82615450565b600782019050919050565b5f6154a482615478565b9150819050919050565b7f496e76616c69642074617267657420666f72207265726f7574650000000000005f82015250565b5f6154e2601a8361437d565b91506154ed826154ae565b602082019050919050565b5f6020820190508181035f83015261550f816154d6565b9050919050565b7f455448207265726f757465206661696c656400000000000000000000000000005f82015250565b5f61554a60128361437d565b915061555582615516565b602082019050919050565b5f6020820190508181035f8301526155778161553e565b9050919050565b7f496e646578206f7574206f6620626f756e6473000000000000000000000000005f82015250565b5f6155b260138361437d565b91506155bd8261557e565b602082019050919050565b5f6020820190508181035f8301526155df816155a6565b9050919050565b7f4e487b71000000000000000000000000000000000000000000000000000000005f52603260045260245ffd5b5f8160601b9050919050565b5f61562982615613565b9050919050565b5f61563a8261561f565b9050919050565b61565261564d82614084565b615630565b82525050565b5f819050919050565b61567261566d82614176565b615658565b82525050565b5f6156838288615641565b6014820191506156938287615661565b6020820191506156a38286615641565b6014820191506156b38285615661565b6020820191506156c38284615661565b6020820191508190509695505050505050565b7f4368696c6420736861726520746f6f20736d616c6c00000000000000000000005f82015250565b5f61570a60158361437d565b9150615715826156d6565b602082019050919050565b5f6020820190508181035f830152615737816156fe565b9050919050565b7f496e74656e742076616c69646174696f6e206661696c656400000000000000005f82015250565b5f61577260188361437d565b915061577d8261573e565b602082019050919050565b5f60408201905061579b5f8301846140f5565b81810360208301526157ac81615766565b905092915050565b7f496e74656e742076616c696461746564000000000000000000000000000000005f82015250565b5f6157e860108361437d565b91506157f3826157b4565b602082019050919050565b5f6040820190506158115f8301846140f5565b8181036020830152615822816157dc565b905092915050565b7f4e6f6465206e6f7420696e20616374697665206c6973740000000000000000005f82015250565b5f61585e60178361437d565b91506158698261582a565b602082019050919050565b5f6020820190508181035f83015261588b81615852565b9050919050565b5f61589c82614176565b91505f82036158ae576158ad614ab1565b5b600182039050919050565b7f4e487b71000000000000000000000000000000000000000000000000000000005f52603160045260245ffd5b5f819050815f5260205f209050919050565b5f6020601f8301049050919050565b5f82821b905092915050565b5f600883026159427fffffffffffffffffffffffffffffffffffffffffffffffffffffffffffffffff82615907565b61594c8683615907565b95508019841693508086168417925050509392505050565b5f61597e61597961597484614176565b614d2b565b614176565b9050919050565b5f819050919050565b61599783615964565b6159ab6159a382615985565b848454615913565b825550505050565b5f5f905090565b6159c26159b3565b6159cd81848461598e565b505050565b5f5b828110156159f3576159e85f8284016159ba565b6001810190506159d4565b505050565b601f821115615a465782821115615a4557615a12816158e6565b615a1b836158f8565b615a24856158f8565b6020861015615a31575f90505b808301615a40828403826159d2565b505050505b5b505050565b5f82821c905092915050565b5f615a665f1984600802615a4b565b1980831691505092915050565b5f615a7e8383615a57565b9150826002028217905092915050565b615a9782614373565b67ffffffffffffffff811115615ab057615aaf61470d565b5b615aba8254614b3e565b615ac58282856159f8565b5f60209050601f831160018114615af6575f8415615ae4578287015190505b615aee8582615a73565b865550615b55565b601f198416615b04866158e6565b5f5b82811015615b2b57848901518255600182019150602085019450602081019050615b06565b86831015615b485784890151615b44601f891682615a57565b8355505b6001600288020188555050505b505050505050565b5f604082019050615b705f830185614320565b8181036020830152615b8281846143ab565b90509392505050565b7f455448207472616e7366657220746f206368696c64206661696c6564000000005f82015250565b5f615bbf601c8361437d565b9150615bca82615b8b565b602082019050919050565b5f6020820190508181035f830152615bec81615bb3565b9050919050565b7f455448207472616e7366657220746f206f7073206661696c65640000000000005f82015250565b5f615c27601a8361437d565b9150615c3282615bf3565b602082019050919050565b5f6020820190508181035f830152615c5481615c1b565b9050919050565b5f60ff82169050919050565b615c7081615c5b565b82525050565b5f608082019050615c895f83018761414e565b615c966020830186615c67565b615ca3604083018561414e565b615cb0606083018461414e565b95945050505050565b7f455448207472616e73666572206661696c6564000000000000000000000000005f82015250565b5f615ced60138361437d565b9150615cf882615cb9565b602082019050919050565b5f6020820190508181035f830152615d1a81615ce1565b9050919050565b7f455448207472616e7366657220746f206e6f6465206661696c656400000000005f82015250565b5f615d55601b8361437d565b9150615d6082615d21565b602082019050919050565b5f6020820190508181035f830152615d8281615d49565b9050919050565b7f4e6f6465207472616e73666572206661696c65640000000000000000000000005f82015250565b5f615dbd60148361437d565b9150615dc882615d89565b602082019050919050565b5f6020820190508181035f830152615dea81615db1565b9050919050565b5f61010082019050615e055f83018b61414e565b615e12602083018a61414e565b615e1f604083018961411d565b615e2c6060830188614320565b615e39608083018761411d565b615e4660a083018661414e565b615e5360c0830185614320565b615e6060e0830184615c67565b9998505050505050505050565b7f19010000000000000000000000000000000000000000000000000000000000005f82015250565b5f615ea1600283614bd6565b9150615eac82615e6d565b600282019050919050565b5f819050919050565b615ed1615ecc82614145565b615eb7565b82525050565b5f615ee182615e95565b9150615eed8285615ec0565b602082019150615efd8284615ec0565b6020820191508190509392505050565b7f496e76616c6964207369676e6174757265206c656e67746800000000000000005f82015250565b5f615f4160188361437d565b9150615f4c82615f0d565b602082019050919050565b5f6020820190508181035f830152615f6e81615f35565b9050919050565b5f615f7f82615c5b565b9150615f8a83615c5b565b9250828201905060ff811115615fa357615fa2614ab1565b5b92915050565b7f496e76616c6964207369676e617475726520762076616c7565000000000000005f82015250565b5f615fdd60198361437d565b9150615fe882615fa9565b602082019050919050565b5f6020820190508181035f83015261600a81615fd1565b905091905056fea26469706673582212206a1012c5691fcb8992ff52678409613c1a8091d8d86808a2f4a7dd60be09c06264736f6c63430008230033","linkReferences":{}},"methodIdentifiers":{"EIP712_VERSION()":"eccec5a8","MAX_BPS()":"fd967f47","MAX_FEE_CAP()":"d71b77ae","MIN_CHILD_FLOOR()":"5c2fdaa7","RESONANCE_ATTESTATION_TYPEHASH()":"180a4eb9","activeNodes(uint256)":"96f9d983","calculateDistribution(uint256)":"a9339d7e","calculateNodeShare(address,uint256)":"dff47aaf","chainId()":"9a8a0592","childAnchor()":"12470b7b","donateERC20(address,uint256,bytes32,bytes)":"2856542c","donateETH(bytes32,bytes)":"88529c43","everglowSeedHash()":"45df0f91","feeOpsBps()":"fb5d1c41","getActiveNodeAt(uint256)":"f5e09677","getActiveNodeCount()":"c5ea2b87","getHeldFunds(bytes32)":"5bcb17c4","getNodeRewards(address)":"519f6a4d","getNodeWeight(address)":"5adcbf11","held(bytes32)":"477809b1","initiateReview(bytes32)":"5349f76b","isAttestor(address)":"2e2f4e24","isNode(address)":"01750152","minChildShareBps()":"7354a3a3","nodeIndex(address)":"d673de46","nodeRewards(address)":"770ce3d8","nodeWeight(address)":"4612b319","operationsWallet()":"fd72e22a","resolveHold(bytes32,string,address)":"eedba758","setAttestor(address,bool)":"41724dd0","setChildAnchor(address)":"4b252b5c","setFeeOpsBps(uint16)":"4d223f65","setMinChildShareBps(uint16)":"edb91b9a","setNode(address,bool)":"41addb7b","setNodeWeight(address,uint256)":"65db8ebe","setOperationsWallet(address)":"ee5ecc89","totalNodeWeight()":"94928021","usedNonces(bytes32)":"feb61724","validatorSet()":"9426e226","walletWhitelistHash()":"f6294e86"},"id":19}