{"abi":[{"type":"constructor","inputs":[{"name":"_minChildShareBps","type":"uint16","internalType":"uint16"},{"name":"_feeOpsBps","type":"uint16","internalType":"uint16"},{"name":"_everglowSeedHash","type":"bytes32","internalType":"bytes32"},{"name":"_walletWhitelistHash","type":"bytes32","internalType":"bytes32"},{"name":"_childAnchor","type":"address","internalType":"address"},{"name":"_validatorSet","type":"address","internalType":"address"},{"name":"_operationsWallet","type":"address","internalType":"address"},{"name":"_chainId","type":"uint256","internalType":"uint256"}],"stateMutability":"nonpayable"},{"type":"receive","stateMutability":"payable"},{"type":"function","name":"MAX_BPS","inputs":[],"outputs":[{"name":"","type":"uint16","internalType":"uint16"}],"stateMutability":"view"},{"type":"function","name":"MAX_FEE_CAP","inputs":[],"outputs":[{"name":"","type":"uint16","internalType":"uint16"}],"stateMutability":"view"},{"type":"function","name":"MIN_CHILD_FLOOR","inputs":[],"outputs":[{"name":"","type":"uint16","internalType":"uint16"}],"stateMutability":"view"},{"type":"function","name":"calculateDistribution","inputs":[{"name":"_amount","type":"uint256","internalType":"uint256"}],"outputs":[{"name":"childShare","type":"uint256","internalType":"uint256"},{"name":"feeShare","type":"uint256","internalType":"uint256"},{"name":"remainingShare","type":"uint256","internalType":"uint256"}],"stateMutability":"view"},{"type":"function","name":"chainId","inputs":[],"outputs":[{"name":"","type":"uint256","internalType":"uint256"}],"stateMutability":"view"},{"type":"function","name":"childAnchor","inputs":[],"outputs":[{"name":"","type":"address","internalType":"address"}],"stateMutability":"view"},{"type":"function","name":"donateERC20","inputs":[{"name":"_token","type":"address","internalType":"address"},{"name":"_amount","type":"uint256","internalType":"uint256"},{"name":"_intentHash","type":"bytes32","internalType":"bytes32"},{"name":"_attestation","type":"bytes","internalType":"bytes"}],"outputs":[],"stateMutability":"nonpayable"},{"type":"function","name":"donateETH","inputs":[{"name":"_intentHash","type":"bytes32","internalType":"bytes32"},{"name":"_attestation","type":"bytes","internalType":"bytes"}],"outputs":[],"stateMutability":"payable"},{"type":"function","name":"everglowSeedHash","inputs":[],"outputs":[{"name":"","type":"bytes32","internalType":"bytes32"}],"stateMutability":"view"},{"type":"function","name":"feeOpsBps","inputs":[],"outputs":[{"name":"","type":"uint16","internalType":"uint16"}],"stateMutability":"view"},{"type":"function","name":"getHeldFunds","inputs":[{"name":"_txId","type":"bytes32","internalType":"bytes32"}],"outputs":[{"name":"","type":"tuple","internalType":"struct PLGGiftRouter.HeldFunds","components":[{"name":"donor","type":"address","internalType":"address"},{"name":"amount","type":"uint256","internalType":"uint256"},{"name":"token","type":"address","internalType":"address"},{"name":"timestamp","type":"uint256","internalType":"uint256"},{"name":"reason","type":"string","internalType":"string"},{"name":"resolved","type":"bool","internalType":"bool"}]}],"stateMutability":"view"},{"type":"function","name":"held","inputs":[{"name":"","type":"bytes32","internalType":"bytes32"}],"outputs":[{"name":"donor","type":"address","internalType":"address"},{"name":"amount","type":"uint256","internalType":"uint256"},{"name":"token","type":"address","internalType":"address"},{"name":"timestamp","type":"uint256","internalType":"uint256"},{"name":"reason","type":"string","internalType":"string"},{"name":"resolved","type":"bool","internalType":"bool"}],"stateMutability":"view"},{"type":"function","name":"initiateReview","inputs":[{"name":"_txId","type":"bytes32","internalType":"bytes32"}],"outputs":[],"stateMutability":"nonpayable"},{"type":"function","name":"isAttestor","inputs":[{"name":"","type":"address","internalType":"address"}],"outputs":[{"name":"","type":"bool","internalType":"bool"}],"stateMutability":"view"},{"type":"function","name":"isNode","inputs":[{"name":"","type":"address","internalType":"address"}],"outputs":[{"name":"","type":"bool","internalType":"bool"}],"stateMutability":"view"},{"type":"function","name":"minChildShareBps","inputs":[],"outputs":[{"name":"","type":"uint16","internalType":"uint16"}],"stateMutability":"view"},{"type":"function","name":"operationsWallet","inputs":[],"outputs":[{"name":"","type":"address","internalType":"address"}],"stateMutability":"view"},{"type":"function","name":"resolveHold","inputs":[{"name":"_txId","type":"bytes32","internalType":"bytes32"},{"name":"_resolution","type":"string","internalType":"string"},{"name":"_target","type":"address","internalType":"address"}],"outputs":[],"stateMutability":"nonpayable"},{"type":"function","name":"setAttestor","inputs":[{"name":"_attestor","type":"address","internalType":"address"},{"name":"_approved","type":"bool","internalType":"bool"}],"outputs":[],"stateMutability":"nonpayable"},{"type":"function","name":"setChildAnchor","inputs":[{"name":"_newChildAnchor","type":"address","internalType":"address"}],"outputs":[],"stateMutability":"nonpayable"},{"type":"function","name":"setFeeOpsBps","inputs":[{"name":"_newBps","type":"uint16","internalType":"uint16"}],"outputs":[],"stateMutability":"nonpayable"},{"type":"function","name":"setMinChildShareBps","inputs":[{"name":"_newBps","type":"uint16","internalType":"uint16"}],"outputs":[],"stateMutability":"nonpayable"},{"type":"function","name":"setNode","inputs":[{"name":"_node","type":"address","internalType":"address"},{"name":"_approved","type":"bool","internalType":"bool"}],"outputs":[],"stateMutability":"nonpayable"},{"type":"function","name":"setOperationsWallet","inputs":[{"name":"_newWallet","type":"address","internalType":"address"}],"outputs":[],"stateMutability":"nonpayable"},{"type":"function","name":"validatorSet","inputs":[],"outputs":[{"name":"","type":"address","internalType":"address"}],"stateMutability":"view"},{"type":"function","name":"walletWhitelistHash","inputs":[],"outputs":[{"name":"","type":"bytes32","internalType":"bytes32"}],"stateMutability":"view"},{"type":"event","name":"AttestorChanged","inputs":[{"name":"attestor","type":"address","indexed":true,"internalType":"address"},{"name":"status","type":"bool","indexed":false,"internalType":"bool"}],"anonymous":false},{"type":"event","name":"ChildAnchorRouted","inputs":[{"name":"childAddress","type":"address","indexed":true,"internalType":"address"},{"name":"amount","type":"uint256","indexed":false,"internalType":"uint256"},{"name":"token","type":"address","indexed":true,"internalType":"address"},{"name":"transactionId","type":"bytes32","indexed":true,"internalType":"bytes32"}],"anonymous":false},{"type":"event","name":"ChildShareTooSmall","inputs":[{"name":"sender","type":"address","indexed":true,"internalType":"address"},{"name":"amount","type":"uint256","indexed":false,"internalType":"uint256"},{"name":"token","type":"address","indexed":true,"internalType":"address"}],"anonymous":false},{"type":"event","name":"EverglowFiltered","inputs":[{"name":"txId","type":"bytes32","indexed":true,"internalType":"bytes32"},{"name":"passed","type":"bool","indexed":false,"internalType":"bool"},{"name":"reason","type":"string","indexed":false,"internalType":"string"}],"anonymous":false},{"type":"event","name":"FundsHeld","inputs":[{"name":"txId","type":"bytes32","indexed":true,"internalType":"bytes32"},{"name":"donor","type":"address","indexed":true,"internalType":"address"},{"name":"amount","type":"uint256","indexed":false,"internalType":"uint256"},{"name":"reason","type":"string","indexed":false,"internalType":"string"}],"anonymous":false},{"type":"event","name":"FundsReceived","inputs":[{"name":"sender","type":"address","indexed":true,"internalType":"address"},{"name":"amount","type":"uint256","indexed":false,"internalType":"uint256"},{"name":"token","type":"address","indexed":true,"internalType":"address"},{"name":"intentHash","type":"bytes32","indexed":true,"internalType":"bytes32"}],"anonymous":false},{"type":"event","name":"Genesis","inputs":[{"name":"minChildShareBps","type":"uint16","indexed":true,"internalType":"uint16"},{"name":"feeOpsBps","type":"uint16","indexed":true,"internalType":"uint16"},{"name":"everglowSeedHash","type":"bytes32","indexed":false,"internalType":"bytes32"},{"name":"walletWhitelistHash","type":"bytes32","indexed":false,"internalType":"bytes32"},{"name":"validatorSet","type":"address","indexed":true,"internalType":"address"},{"name":"chainId","type":"uint256","indexed":false,"internalType":"uint256"}],"anonymous":false},{"type":"event","name":"NodeRouted","inputs":[{"name":"nodeAddress","type":"address","indexed":true,"internalType":"address"},{"name":"amount","type":"uint256","indexed":false,"internalType":"uint256"},{"name":"token","type":"address","indexed":true,"internalType":"address"},{"name":"transactionId","type":"bytes32","indexed":true,"internalType":"bytes32"}],"anonymous":false},{"type":"event","name":"OperationsFunded","inputs":[{"name":"operationsWallet","type":"address","indexed":true,"internalType":"address"},{"name":"amount","type":"uint256","indexed":false,"internalType":"uint256"},{"name":"token","type":"address","indexed":true,"internalType":"address"}],"anonymous":false},{"type":"event","name":"ParamsUpdated","inputs":[{"name":"field","type":"string","indexed":true,"internalType":"string"},{"name":"oldValue","type":"uint256","indexed":false,"internalType":"uint256"},{"name":"newValue","type":"uint256","indexed":false,"internalType":"uint256"}],"anonymous":false},{"type":"event","name":"Resolved","inputs":[{"name":"txId","type":"bytes32","indexed":true,"internalType":"bytes32"},{"name":"resolution","type":"string","indexed":false,"internalType":"string"},{"name":"target","type":"address","indexed":true,"internalType":"address"}],"anonymous":false},{"type":"event","name":"ResonanceAttested","inputs":[{"name":"hash","type":"bytes32","indexed":true,"internalType":"bytes32"},{"name":"attestor","type":"address","indexed":true,"internalType":"address"},{"name":"level","type":"uint8","indexed":false,"internalType":"uint8"}],"anonymous":false},{"type":"event","name":"ReviewStarted","inputs":[{"name":"txId","type":"bytes32","indexed":true,"internalType":"bytes32"},{"name":"reviewInitiator","type":"address","indexed":true,"internalType":"address"}],"anonymous":false},{"type":"event","name":"WhitelistChanged","inputs":[{"name":"node","type":"address","indexed":true,"internalType":"address"},{"name":"status","type":"bool","indexed":false,"internalType":"bool"}],"anonymous":false}],"bytecode":{"object":"0x608060405234801561000f575f5ffd5b5060405161512c38038061512c83398181016040528101906100319190610567565b468114610073576040517f08c379a000000000000000000000000000000000000000000000000000000000815260040161006a90610672565b60405180910390fd5b5f73ffffffffffffffffffffffffffffffffffffffff168473ffffffffffffffffffffffffffffffffffffffff16036100e1576040517f08c379a00000000000000000000000000000000000000000000000000000000081526004016100d8906106da565b60405180910390fd5b5f73ffffffffffffffffffffffffffffffffffffffff168373ffffffffffffffffffffffffffffffffffffffff160361014f576040517f08c379a000000000000000000000000000000000000000000000000000000000815260040161014690610742565b60405180910390fd5b5f73ffffffffffffffffffffffffffffffffffffffff168273ffffffffffffffffffffffffffffffffffffffff16036101bd576040517f08c379a00000000000000000000000000000000000000000000000000000000081526004016101b4906107aa565b60405180910390fd5b5f5f1b8603610201576040517f08c379a00000000000000000000000000000000000000000000000000000000081526004016101f890610812565b60405180910390fd5b6109c461ffff168861ffff16101561024e576040517f08c379a0000000000000000000000000000000000000000000000000000000008152600401610245906108a0565b60405180910390fd5b6103e861ffff168761ffff16111561029b576040517f08c379a000000000000000000000000000000000000000000000000000000000815260040161029290610908565b60405180910390fd5b61271061ffff168761ffff168961ffff166102b69190610953565b11156102f7576040517f08c379a00000000000000000000000000000000000000000000000000000000081526004016102ee906109d0565b60405180910390fd5b875f5f6101000a81548161ffff021916908361ffff160217905550865f60026101000a81548161ffff021916908361ffff16021790555085600181905550846002819055508360035f6101000a81548173ffffffffffffffffffffffffffffffffffffffff021916908373ffffffffffffffffffffffffffffffffffffffff1602179055508260045f6101000a81548173ffffffffffffffffffffffffffffffffffffffff021916908373ffffffffffffffffffffffffffffffffffffffff1602179055508160065f6101000a81548173ffffffffffffffffffffffffffffffffffffffff021916908373ffffffffffffffffffffffffffffffffffffffff160217905550806005819055508273ffffffffffffffffffffffffffffffffffffffff168761ffff168961ffff167f5f0d4546f67f67f2921a909293269194ea01ae276adf330f7b2cd603f25b542e89898660405161045793929190610a0c565b60405180910390a45050505050505050610a41565b5f5ffd5b5f61ffff82169050919050565b61048681610470565b8114610490575f5ffd5b50565b5f815190506104a18161047d565b92915050565b5f819050919050565b6104b9816104a7565b81146104c3575f5ffd5b50565b5f815190506104d4816104b0565b92915050565b5f73ffffffffffffffffffffffffffffffffffffffff82169050919050565b5f610503826104da565b9050919050565b610513816104f9565b811461051d575f5ffd5b50565b5f8151905061052e8161050a565b92915050565b5f819050919050565b61054681610534565b8114610550575f5ffd5b50565b5f815190506105618161053d565b92915050565b5f5f5f5f5f5f5f5f610100898b0312156105845761058361046c565b5b5f6105918b828c01610493565b98505060206105a28b828c01610493565b97505060406105b38b828c016104c6565b96505060606105c48b828c016104c6565b95505060806105d58b828c01610520565b94505060a06105e68b828c01610520565b93505060c06105f78b828c01610520565b92505060e06106088b828c01610553565b9150509295985092959890939650565b5f82825260208201905092915050565b7f57726f6e6720636861696e0000000000000000000000000000000000000000005f82015250565b5f61065c600b83610618565b915061066782610628565b602082019050919050565b5f6020820190508181035f83015261068981610650565b9050919050565b7f496e76616c6964206368696c6420616e63686f720000000000000000000000005f82015250565b5f6106c4601483610618565b91506106cf82610690565b602082019050919050565b5f6020820190508181035f8301526106f1816106b8565b9050919050565b7f496e76616c69642076616c696461746f720000000000000000000000000000005f82015250565b5f61072c601183610618565b9150610737826106f8565b602082019050919050565b5f6020820190508181035f83015261075981610720565b9050919050565b7f496e76616c6964206f7065726174696f6e732077616c6c6574000000000000005f82015250565b5f610794601983610618565b915061079f82610760565b602082019050919050565b5f6020820190508181035f8301526107c181610788565b9050919050565b7f496e76616c6964207365656420686173680000000000000000000000000000005f82015250565b5f6107fc601183610618565b9150610807826107c8565b602082019050919050565b5f6020820190508181035f830152610829816107f0565b9050919050565b7f4368696c642073686172652062656c6f7720666c6f6f7220286d696e203235305f8201527f3020627073290000000000000000000000000000000000000000000000000000602082015250565b5f61088a602683610618565b915061089582610830565b604082019050919050565b5f6020820190508181035f8301526108b78161087e565b9050919050565b7f46656520657863656564732063617020286d61782031303030206270732900005f82015250565b5f6108f2601e83610618565b91506108fd826108be565b602082019050919050565b5f6020820190508181035f83015261091f816108e6565b9050919050565b7f4e487b71000000000000000000000000000000000000000000000000000000005f52601160045260245ffd5b5f61095d82610534565b915061096883610534565b92508282019050808211156109805761097f610926565b5b92915050565b7f546f74616c2042505320657863656564732031303025000000000000000000005f82015250565b5f6109ba601683610618565b91506109c582610986565b602082019050919050565b5f6020820190508181035f8301526109e7816109ae565b9050919050565b6109f7816104a7565b82525050565b610a0681610534565b82525050565b5f606082019050610a1f5f8301866109ee565b610a2c60208301856109ee565b610a3960408301846109fd565b949350505050565b6146de80610a4e5f395ff3fe608060405260043610610184575f3560e01c80637354a3a3116100d0578063edb91b9a11610089578063f6294e8611610063578063f6294e861461056c578063fb5d1c4114610596578063fd72e22a146105c0578063fd967f47146105ea5761018b565b8063edb91b9a146104f4578063ee5ecc891461051c578063eedba758146105445761018b565b80637354a3a3146103f257806388529c431461041c5780639426e226146104385780639a8a059214610462578063a9339d7e1461048c578063d71b77ae146104ca5761018b565b806345df0f911161013d5780634d223f65116101175780634d223f651461033c5780635349f76b146103645780635bcb17c41461038c5780635c2fdaa7146103c85761018b565b806345df0f91146102a9578063477809b1146102d35780634b252b5c146103145761018b565b8063017501521461018f57806312470b7b146101cb5780632856542c146101f55780632e2f4e241461021d57806341724dd01461025957806341addb7b146102815761018b565b3661018b57005b5f5ffd5b34801561019a575f5ffd5b506101b560048036038101906101b09190612cce565b610614565b6040516101c29190612d13565b60405180910390f35b3480156101d6575f5ffd5b506101df610631565b6040516101ec9190612d3b565b60405180910390f35b348015610200575f5ffd5b5061021b60048036038101906102169190612e1b565b610656565b005b348015610228575f5ffd5b50610243600480360381019061023e9190612cce565b61072c565b6040516102509190612d13565b60405180910390f35b348015610264575f5ffd5b5061027f600480360381019061027a9190612ec9565b610749565b005b34801561028c575f5ffd5b506102a760048036038101906102a29190612ec9565b6108ec565b005b3480156102b4575f5ffd5b506102bd610a8f565b6040516102ca9190612f16565b60405180910390f35b3480156102de575f5ffd5b506102f960048036038101906102f49190612f2f565b610a95565b60405161030b96959493929190612fd9565b60405180910390f35b34801561031f575f5ffd5b5061033a60048036038101906103359190612cce565b610b9d565b005b348015610347575f5ffd5b50610362600480360381019061035d9190613076565b610d7c565b005b34801561036f575f5ffd5b5061038a60048036038101906103859190612f2f565b610edc565b005b348015610397575f5ffd5b506103b260048036038101906103ad9190612f2f565b611069565b6040516103bf919061319c565b60405180910390f35b3480156103d3575f5ffd5b506103dc6111fb565b6040516103e991906131cb565b60405180910390f35b3480156103fd575f5ffd5b50610406611201565b60405161041391906131cb565b60405180910390f35b610436600480360381019061043191906131e4565b611213565b005b348015610443575f5ffd5b5061044c611269565b6040516104599190612d3b565b60405180910390f35b34801561046d575f5ffd5b5061047661128e565b6040516104839190613241565b60405180910390f35b348015610497575f5ffd5b506104b260048036038101906104ad919061325a565b611294565b6040516104c193929190613285565b60405180910390f35b3480156104d5575f5ffd5b506104de61131a565b6040516104eb91906131cb565b60405180910390f35b3480156104ff575f5ffd5b5061051a60048036038101906105159190613076565b611320565b005b348015610527575f5ffd5b50610542600480360381019061053d9190612cce565b6114cb565b005b34801561054f575f5ffd5b5061056a600480360381019061056591906133e2565b6116aa565b005b348015610577575f5ffd5b50610580612007565b60405161058d9190612f16565b60405180910390f35b3480156105a1575f5ffd5b506105aa61200d565b6040516105b791906131cb565b60405180910390f35b3480156105cb575f5ffd5b506105d4612020565b6040516105e19190612d3b565b60405180910390f35b3480156105f5575f5ffd5b506105fe612045565b60405161060b91906131cb565b60405180910390f35b6007602052805f5260405f205f915054906101000a900460ff1681565b60035f9054906101000a900473ffffffffffffffffffffffffffffffffffffffff1681565b835f8111610699576040517f08c379a000000000000000000000000000000000000000000000000000000000815260040161069090613498565b60405180910390fd5b8573ffffffffffffffffffffffffffffffffffffffff166323b872dd3330886040518463ffffffff1660e01b81526004016106d6939291906134b6565b6020604051808303815f875af11580156106f2573d5f5f3e3d5ffd5b505050506040513d601f19601f8201168201806040525081019061071691906134ff565b50610724858786868661204b565b505050505050565b6008602052805f5260405f205f915054906101000a900460ff1681565b60045f9054906101000a900473ffffffffffffffffffffffffffffffffffffffff1673ffffffffffffffffffffffffffffffffffffffff163373ffffffffffffffffffffffffffffffffffffffff16146107d8576040517f08c379a00000000000000000000000000000000000000000000000000000000081526004016107cf90613574565b60405180910390fd5b5f73ffffffffffffffffffffffffffffffffffffffff168273ffffffffffffffffffffffffffffffffffffffff1603610846576040517f08c379a000000000000000000000000000000000000000000000000000000000815260040161083d906135dc565b60405180910390fd5b8060085f8473ffffffffffffffffffffffffffffffffffffffff1673ffffffffffffffffffffffffffffffffffffffff1681526020019081526020015f205f6101000a81548160ff0219169083151502179055508173ffffffffffffffffffffffffffffffffffffffff167f16ed443670a97ca87ed8584bc5d8e794bb98255cb8a3baa5afd7c718b846d090826040516108e09190612d13565b60405180910390a25050565b60045f9054906101000a900473ffffffffffffffffffffffffffffffffffffffff1673ffffffffffffffffffffffffffffffffffffffff163373ffffffffffffffffffffffffffffffffffffffff161461097b576040517f08c379a000000000000000000000000000000000000000000000000000000000815260040161097290613574565b60405180910390fd5b5f73ffffffffffffffffffffffffffffffffffffffff168273ffffffffffffffffffffffffffffffffffffffff16036109e9576040517f08c379a00000000000000000000000000000000000000000000000000000000081526004016109e090613644565b60405180910390fd5b8060075f8473ffffffffffffffffffffffffffffffffffffffff1673ffffffffffffffffffffffffffffffffffffffff1681526020019081526020015f205f6101000a81548160ff0219169083151502179055508173ffffffffffffffffffffffffffffffffffffffff167fb840a1dbd8b09a3dc45161bba92dfb9aba643c0e44c085a447f839d1d02cf13b82604051610a839190612d13565b60405180910390a25050565b60015481565b6009602052805f5260405f205f91509050805f015f9054906101000a900473ffffffffffffffffffffffffffffffffffffffff1690806001015490806002015f9054906101000a900473ffffffffffffffffffffffffffffffffffffffff1690806003015490806004018054610b0a9061368f565b80601f0160208091040260200160405190810160405280929190818152602001828054610b369061368f565b8015610b815780601f10610b5857610100808354040283529160200191610b81565b820191905f5260205f20905b815481529060010190602001808311610b6457829003601f168201915b505050505090806005015f9054906101000a900460ff16905086565b60045f9054906101000a900473ffffffffffffffffffffffffffffffffffffffff1673ffffffffffffffffffffffffffffffffffffffff163373ffffffffffffffffffffffffffffffffffffffff1614610c2c576040517f08c379a0000000000000000000000000000000000000000000000000000000008152600401610c2390613574565b60405180910390fd5b5f73ffffffffffffffffffffffffffffffffffffffff168173ffffffffffffffffffffffffffffffffffffffff1603610c9a576040517f08c379a0000000000000000000000000000000000000000000000000000000008152600401610c9190613709565b60405180910390fd5b5f60035f9054906101000a900473ffffffffffffffffffffffffffffffffffffffff1690508160035f6101000a81548173ffffffffffffffffffffffffffffffffffffffff021916908373ffffffffffffffffffffffffffffffffffffffff160217905550604051610d0b9061377b565b60405180910390207fc194909a05d344d541a4418f8a1afcb8c4a13f35e87d3faf2b4d1f736a2f00b68273ffffffffffffffffffffffffffffffffffffffff168473ffffffffffffffffffffffffffffffffffffffff16604051610d7092919061378f565b60405180910390a25050565b60045f9054906101000a900473ffffffffffffffffffffffffffffffffffffffff1673ffffffffffffffffffffffffffffffffffffffff163373ffffffffffffffffffffffffffffffffffffffff1614610e0b576040517f08c379a0000000000000000000000000000000000000000000000000000000008152600401610e0290613574565b60405180910390fd5b6103e861ffff168161ffff161115610e58576040517f08c379a0000000000000000000000000000000000000000000000000000000008152600401610e4f90613800565b60405180910390fd5b5f5f60029054906101000a900461ffff1661ffff169050815f60026101000a81548161ffff021916908361ffff160217905550604051610e9790613868565b60405180910390207fc194909a05d344d541a4418f8a1afcb8c4a13f35e87d3faf2b4d1f736a2f00b68284604051610ed09291906138b5565b60405180910390a25050565b60045f9054906101000a900473ffffffffffffffffffffffffffffffffffffffff1673ffffffffffffffffffffffffffffffffffffffff163373ffffffffffffffffffffffffffffffffffffffff1614610f6b576040517f08c379a0000000000000000000000000000000000000000000000000000000008152600401610f6290613574565b60405180910390fd5b5f60095f8381526020019081526020015f206001015411610fc1576040517f08c379a0000000000000000000000000000000000000000000000000000000008152600401610fb89061394c565b60405180910390fd5b60095f8281526020019081526020015f206005015f9054906101000a900460ff1615611022576040517f08c379a0000000000000000000000000000000000000000000000000000000008152600401611019906139b4565b60405180910390fd5b3373ffffffffffffffffffffffffffffffffffffffff16817fcf96fcafd40fd3a299acc199a9ef1f33d3b7039d43191a65acb6c4e2275fe68260405160405180910390a350565b611071612c04565b60095f8381526020019081526020015f206040518060c00160405290815f82015f9054906101000a900473ffffffffffffffffffffffffffffffffffffffff1673ffffffffffffffffffffffffffffffffffffffff1673ffffffffffffffffffffffffffffffffffffffff16815260200160018201548152602001600282015f9054906101000a900473ffffffffffffffffffffffffffffffffffffffff1673ffffffffffffffffffffffffffffffffffffffff1673ffffffffffffffffffffffffffffffffffffffff1681526020016003820154815260200160048201805461115a9061368f565b80601f01602080910402602001604051908101604052809291908181526020018280546111869061368f565b80156111d15780601f106111a8576101008083540402835291602001916111d1565b820191905f5260205f20905b8154815290600101906020018083116111b457829003601f168201915b50505050508152602001600582015f9054906101000a900460ff1615151515815250509050919050565b6109c481565b5f5f9054906101000a900461ffff1681565b345f8111611256576040517f08c379a000000000000000000000000000000000000000000000000000000000815260040161124d90613498565b60405180910390fd5b611263345f86868661204b565b50505050565b60045f9054906101000a900473ffffffffffffffffffffffffffffffffffffffff1681565b60055481565b5f5f5f61271061ffff165f5f9054906101000a900461ffff1661ffff16856112bc91906139ff565b6112c69190613a6d565b925061271061ffff165f60029054906101000a900461ffff1661ffff16856112ee91906139ff565b6112f89190613a6d565b91508183856113079190613a9d565b6113119190613a9d565b90509193909250565b6103e881565b60045f9054906101000a900473ffffffffffffffffffffffffffffffffffffffff1673ffffffffffffffffffffffffffffffffffffffff163373ffffffffffffffffffffffffffffffffffffffff16146113af576040517f08c379a00000000000000000000000000000000000000000000000000000000081526004016113a690613574565b60405180910390fd5b6109c461ffff168161ffff1610156113fc576040517f08c379a00000000000000000000000000000000000000000000000000000000081526004016113f390613b1a565b60405180910390fd5b61271061ffff168161ffff161115611449576040517f08c379a000000000000000000000000000000000000000000000000000000000815260040161144090613b82565b60405180910390fd5b5f5f5f9054906101000a900461ffff1661ffff169050815f5f6101000a81548161ffff021916908361ffff16021790555060405161148690613bea565b60405180910390207fc194909a05d344d541a4418f8a1afcb8c4a13f35e87d3faf2b4d1f736a2f00b682846040516114bf9291906138b5565b60405180910390a25050565b60045f9054906101000a900473ffffffffffffffffffffffffffffffffffffffff1673ffffffffffffffffffffffffffffffffffffffff163373ffffffffffffffffffffffffffffffffffffffff161461155a576040517f08c379a000000000000000000000000000000000000000000000000000000000815260040161155190613574565b60405180910390fd5b5f73ffffffffffffffffffffffffffffffffffffffff168173ffffffffffffffffffffffffffffffffffffffff16036115c8576040517f08c379a00000000000000000000000000000000000000000000000000000000081526004016115bf90613709565b60405180910390fd5b5f60065f9054906101000a900473ffffffffffffffffffffffffffffffffffffffff1690508160065f6101000a81548173ffffffffffffffffffffffffffffffffffffffff021916908373ffffffffffffffffffffffffffffffffffffffff16021790555060405161163990613c48565b60405180910390207fc194909a05d344d541a4418f8a1afcb8c4a13f35e87d3faf2b4d1f736a2f00b68273ffffffffffffffffffffffffffffffffffffffff168473ffffffffffffffffffffffffffffffffffffffff1660405161169e92919061378f565b60405180910390a25050565b60045f9054906101000a900473ffffffffffffffffffffffffffffffffffffffff1673ffffffffffffffffffffffffffffffffffffffff163373ffffffffffffffffffffffffffffffffffffffff1614611739576040517f08c379a000000000000000000000000000000000000000000000000000000000815260040161173090613574565b60405180910390fd5b5f60095f8581526020019081526020015f2090505f816001015411611793576040517f08c379a000000000000000000000000000000000000000000000000000000000815260040161178a90613ca6565b60405180910390fd5b806005015f9054906101000a900460ff16156117e4576040517f08c379a00000000000000000000000000000000000000000000000000000000081526004016117db906139b4565b60405180910390fd5b6001816005015f6101000a81548160ff02191690831515021790555060405160200161180f90613d0e565b60405160208183030381529060405280519060200120836040516020016118369190613d52565b6040516020818303038152906040528051906020012003611a84575f73ffffffffffffffffffffffffffffffffffffffff16816002015f9054906101000a900473ffffffffffffffffffffffffffffffffffffffff1673ffffffffffffffffffffffffffffffffffffffff160361197b575f815f015f9054906101000a900473ffffffffffffffffffffffffffffffffffffffff1673ffffffffffffffffffffffffffffffffffffffff1682600101546040516118f290613d95565b5f6040518083038185875af1925050503d805f811461192c576040519150601f19603f3d011682016040523d82523d5f602084013e611931565b606091505b5050905080611975576040517f08c379a000000000000000000000000000000000000000000000000000000000815260040161196c90613df3565b60405180910390fd5b50611a7f565b806002015f9054906101000a900473ffffffffffffffffffffffffffffffffffffffff1673ffffffffffffffffffffffffffffffffffffffff1663a9059cbb825f015f9054906101000a900473ffffffffffffffffffffffffffffffffffffffff1683600101546040518363ffffffff1660e01b81526004016119ff929190613e11565b6020604051808303815f875af1158015611a1b573d5f5f3e3d5ffd5b505050506040513d601f19601f82011682018060405250810190611a3f91906134ff565b611a7e576040517f08c379a0000000000000000000000000000000000000000000000000000000008152600401611a7590613e82565b60405180910390fd5b5b611fb2565b604051602001611a9390613eea565b6040516020818303038152906040528051906020012083604051602001611aba9190613d52565b6040516020818303038152906040528051906020012003611d06575f73ffffffffffffffffffffffffffffffffffffffff16816002015f9054906101000a900473ffffffffffffffffffffffffffffffffffffffff1673ffffffffffffffffffffffffffffffffffffffff1603611bfe575f60035f9054906101000a900473ffffffffffffffffffffffffffffffffffffffff1673ffffffffffffffffffffffffffffffffffffffff168260010154604051611b7590613d95565b5f6040518083038185875af1925050503d805f8114611baf576040519150601f19603f3d011682016040523d82523d5f602084013e611bb4565b606091505b5050905080611bf8576040517f08c379a0000000000000000000000000000000000000000000000000000000008152600401611bef90613f48565b60405180910390fd5b50611d01565b806002015f9054906101000a900473ffffffffffffffffffffffffffffffffffffffff1673ffffffffffffffffffffffffffffffffffffffff1663a9059cbb60035f9054906101000a900473ffffffffffffffffffffffffffffffffffffffff1683600101546040518363ffffffff1660e01b8152600401611c81929190613e11565b6020604051808303815f875af1158015611c9d573d5f5f3e3d5ffd5b505050506040513d601f19601f82011682018060405250810190611cc191906134ff565b611d00576040517f08c379a0000000000000000000000000000000000000000000000000000000008152600401611cf790613e82565b60405180910390fd5b5b611fb1565b604051602001611d1590613fb0565b6040516020818303038152906040528051906020012083604051602001611d3c9190613d52565b6040516020818303038152906040528051906020012003611fb0575f73ffffffffffffffffffffffffffffffffffffffff168273ffffffffffffffffffffffffffffffffffffffff1603611dc5576040517f08c379a0000000000000000000000000000000000000000000000000000000008152600401611dbc9061400e565b60405180910390fd5b5f73ffffffffffffffffffffffffffffffffffffffff16816002015f9054906101000a900473ffffffffffffffffffffffffffffffffffffffff1673ffffffffffffffffffffffffffffffffffffffff1603611ecd575f8273ffffffffffffffffffffffffffffffffffffffff168260010154604051611e4490613d95565b5f6040518083038185875af1925050503d805f8114611e7e576040519150601f19603f3d011682016040523d82523d5f602084013e611e83565b606091505b5050905080611ec7576040517f08c379a0000000000000000000000000000000000000000000000000000000008152600401611ebe90614076565b60405180910390fd5b50611faf565b806002015f9054906101000a900473ffffffffffffffffffffffffffffffffffffffff1673ffffffffffffffffffffffffffffffffffffffff1663a9059cbb8383600101546040518363ffffffff1660e01b8152600401611f2f929190613e11565b6020604051808303815f875af1158015611f4b573d5f5f3e3d5ffd5b505050506040513d601f19601f82011682018060405250810190611f6f91906134ff565b611fae576040517f08c379a0000000000000000000000000000000000000000000000000000000008152600401611fa590613e82565b60405180910390fd5b5b5b5b5b8173ffffffffffffffffffffffffffffffffffffffff16847f5c89abac7ac45c8e3d09ff1d93532ee98b621f3be43f201b8966e3a1d438719585604051611ff99190614094565b60405180910390a350505050565b60025481565b5f60029054906101000a900461ffff1681565b60065f9054906101000a900473ffffffffffffffffffffffffffffffffffffffff1681565b61271081565b5f3386864243604051602001612065959493929190614119565b6040516020818303038152906040528051906020012090505f61271061ffff165f5f9054906101000a900461ffff1661ffff16886120a391906139ff565b6120ad9190613a6d565b90505f61271061ffff165f60029054906101000a900461ffff1661ffff16896120d691906139ff565b6120e09190613a6d565b90505f81838a6120f09190613a9d565b6120fa9190613a9d565b90505f83036121a3578773ffffffffffffffffffffffffffffffffffffffff163373ffffffffffffffffffffffffffffffffffffffff167f89c3c5f936bd2aacb9fa7138ce96895a718edf450ebd0c8cef4de2bdd42a43be8b6040516121609190613241565b60405180910390a36040517f08c379a000000000000000000000000000000000000000000000000000000000815260040161219a906141c1565b60405180910390fd5b5f6121af8888886122f3565b90508061223a576121f885338c8c6040518060400160405280601d81526020017f534545442066696c7465722076616c69646174696f6e206661696c6564000000815250612323565b847f49b584275be4a4d994205ed43431aeb2032529552b838f0d98ed6a5b94e3ad145f6040516122289190614229565b60405180910390a250505050506122ec565b847f49b584275be4a4d994205ed43431aeb2032529552b838f0d98ed6a5b94e3ad14600160405161226b919061429f565b60405180910390a2612280858585858d6124bd565b878973ffffffffffffffffffffffffffffffffffffffff163373ffffffffffffffffffffffffffffffffffffffff167f30ade6701143dc9532d82f356fc5b4dd544d5fe5fd6539e5cb786b34cbc04a768d6040516122de9190613241565b60405180910390a450505050505b5050505050565b5f5f5f1b8403612305575f905061231c565b5f8383905003612317575f905061231c565b600190505b9392505050565b6040518060c001604052808573ffffffffffffffffffffffffffffffffffffffff1681526020018481526020018373ffffffffffffffffffffffffffffffffffffffff1681526020014281526020018281526020015f151581525060095f8781526020019081526020015f205f820151815f015f6101000a81548173ffffffffffffffffffffffffffffffffffffffff021916908373ffffffffffffffffffffffffffffffffffffffff160217905550602082015181600101556040820151816002015f6101000a81548173ffffffffffffffffffffffffffffffffffffffff021916908373ffffffffffffffffffffffffffffffffffffffff1602179055506060820151816003015560808201518160040190816124429190614473565b5060a0820151816005015f6101000a81548160ff0219169083151502179055509050508373ffffffffffffffffffffffffffffffffffffffff16857f87c5b92b1b6e434434112fb894a7b50b77988c5a2b5892ca1a1ea62f51ba6c9e85846040516124ae929190614542565b60405180910390a35050505050565b5f73ffffffffffffffffffffffffffffffffffffffff168173ffffffffffffffffffffffffffffffffffffffff16036125bf575f60035f9054906101000a900473ffffffffffffffffffffffffffffffffffffffff1673ffffffffffffffffffffffffffffffffffffffff168560405161253690613d95565b5f6040518083038185875af1925050503d805f8114612570576040519150601f19603f3d011682016040523d82523d5f602084013e612575565b606091505b50509050806125b9576040517f08c379a00000000000000000000000000000000000000000000000000000000081526004016125b0906145ba565b60405180910390fd5b5061269b565b8073ffffffffffffffffffffffffffffffffffffffff1663a9059cbb60035f9054906101000a900473ffffffffffffffffffffffffffffffffffffffff16866040518363ffffffff1660e01b815260040161261b929190613e11565b6020604051808303815f875af1158015612637573d5f5f3e3d5ffd5b505050506040513d601f19601f8201168201806040525081019061265b91906134ff565b61269a576040517f08c379a000000000000000000000000000000000000000000000000000000000815260040161269190613e82565b60405180910390fd5b5b848173ffffffffffffffffffffffffffffffffffffffff1660035f9054906101000a900473ffffffffffffffffffffffffffffffffffffffff1673ffffffffffffffffffffffffffffffffffffffff167f91cbf2fb2fc6159419f020d7e7b2dc950b6468307d2a6b827efae89ef24b185b8760405161271a9190613241565b60405180910390a45f83111561298f575f73ffffffffffffffffffffffffffffffffffffffff168173ffffffffffffffffffffffffffffffffffffffff160361282c575f60065f9054906101000a900473ffffffffffffffffffffffffffffffffffffffff1673ffffffffffffffffffffffffffffffffffffffff16846040516127a390613d95565b5f6040518083038185875af1925050503d805f81146127dd576040519150601f19603f3d011682016040523d82523d5f602084013e6127e2565b606091505b5050905080612826576040517f08c379a000000000000000000000000000000000000000000000000000000000815260040161281d90614622565b60405180910390fd5b50612908565b8073ffffffffffffffffffffffffffffffffffffffff1663a9059cbb60065f9054906101000a900473ffffffffffffffffffffffffffffffffffffffff16856040518363ffffffff1660e01b8152600401612888929190613e11565b6020604051808303815f875af11580156128a4573d5f5f3e3d5ffd5b505050506040513d601f19601f820116820180604052508101906128c891906134ff565b612907576040517f08c379a00000000000000000000000000000000000000000000000000000000081526004016128fe90613e82565b60405180910390fd5b5b8073ffffffffffffffffffffffffffffffffffffffff1660065f9054906101000a900473ffffffffffffffffffffffffffffffffffffffff1673ffffffffffffffffffffffffffffffffffffffff167f79982a434f50dcafc1bb463b4c025469fecf26b5c1b547d2584220a4596a3261856040516129869190613241565b60405180910390a35b5f821115612bfd575f73ffffffffffffffffffffffffffffffffffffffff168173ffffffffffffffffffffffffffffffffffffffff1603612a99575f60035f9054906101000a900473ffffffffffffffffffffffffffffffffffffffff1673ffffffffffffffffffffffffffffffffffffffff1683604051612a1090613d95565b5f6040518083038185875af1925050503d805f8114612a4a576040519150601f19603f3d011682016040523d82523d5f602084013e612a4f565b606091505b5050905080612a93576040517f08c379a0000000000000000000000000000000000000000000000000000000008152600401612a8a9061468a565b60405180910390fd5b50612b75565b8073ffffffffffffffffffffffffffffffffffffffff1663a9059cbb60035f9054906101000a900473ffffffffffffffffffffffffffffffffffffffff16846040518363ffffffff1660e01b8152600401612af5929190613e11565b6020604051808303815f875af1158015612b11573d5f5f3e3d5ffd5b505050506040513d601f19601f82011682018060405250810190612b3591906134ff565b612b74576040517f08c379a0000000000000000000000000000000000000000000000000000000008152600401612b6b90613e82565b60405180910390fd5b5b848173ffffffffffffffffffffffffffffffffffffffff1660035f9054906101000a900473ffffffffffffffffffffffffffffffffffffffff1673ffffffffffffffffffffffffffffffffffffffff167f0907d075cd7cebd1624fa88aadc9011f555181d869b46d492aead767b28fad1385604051612bf49190613241565b60405180910390a45b5050505050565b6040518060c001604052805f73ffffffffffffffffffffffffffffffffffffffff1681526020015f81526020015f73ffffffffffffffffffffffffffffffffffffffff1681526020015f8152602001606081526020015f151581525090565b5f604051905090565b5f5ffd5b5f5ffd5b5f73ffffffffffffffffffffffffffffffffffffffff82169050919050565b5f612c9d82612c74565b9050919050565b612cad81612c93565b8114612cb7575f5ffd5b50565b5f81359050612cc881612ca4565b92915050565b5f60208284031215612ce357612ce2612c6c565b5b5f612cf084828501612cba565b91505092915050565b5f8115159050919050565b612d0d81612cf9565b82525050565b5f602082019050612d265f830184612d04565b92915050565b612d3581612c93565b82525050565b5f602082019050612d4e5f830184612d2c565b92915050565b5f819050919050565b612d6681612d54565b8114612d70575f5ffd5b50565b5f81359050612d8181612d5d565b92915050565b5f819050919050565b612d9981612d87565b8114612da3575f5ffd5b50565b5f81359050612db481612d90565b92915050565b5f5ffd5b5f5ffd5b5f5ffd5b5f5f83601f840112612ddb57612dda612dba565b5b8235905067ffffffffffffffff811115612df857612df7612dbe565b5b602083019150836001820283011115612e1457612e13612dc2565b5b9250929050565b5f5f5f5f5f60808688031215612e3457612e33612c6c565b5b5f612e4188828901612cba565b9550506020612e5288828901612d73565b9450506040612e6388828901612da6565b935050606086013567ffffffffffffffff811115612e8457612e83612c70565b5b612e9088828901612dc6565b92509250509295509295909350565b612ea881612cf9565b8114612eb2575f5ffd5b50565b5f81359050612ec381612e9f565b92915050565b5f5f60408385031215612edf57612ede612c6c565b5b5f612eec85828601612cba565b9250506020612efd85828601612eb5565b9150509250929050565b612f1081612d87565b82525050565b5f602082019050612f295f830184612f07565b92915050565b5f60208284031215612f4457612f43612c6c565b5b5f612f5184828501612da6565b91505092915050565b612f6381612d54565b82525050565b5f81519050919050565b5f82825260208201905092915050565b8281835e5f83830152505050565b5f601f19601f8301169050919050565b5f612fab82612f69565b612fb58185612f73565b9350612fc5818560208601612f83565b612fce81612f91565b840191505092915050565b5f60c082019050612fec5f830189612d2c565b612ff96020830188612f5a565b6130066040830187612d2c565b6130136060830186612f5a565b81810360808301526130258185612fa1565b905061303460a0830184612d04565b979650505050505050565b5f61ffff82169050919050565b6130558161303f565b811461305f575f5ffd5b50565b5f813590506130708161304c565b92915050565b5f6020828403121561308b5761308a612c6c565b5b5f61309884828501613062565b91505092915050565b6130aa81612c93565b82525050565b6130b981612d54565b82525050565b5f82825260208201905092915050565b5f6130d982612f69565b6130e381856130bf565b93506130f3818560208601612f83565b6130fc81612f91565b840191505092915050565b61311081612cf9565b82525050565b5f60c083015f83015161312b5f8601826130a1565b50602083015161313e60208601826130b0565b50604083015161315160408601826130a1565b50606083015161316460608601826130b0565b506080830151848203608086015261317c82826130cf565b91505060a083015161319160a0860182613107565b508091505092915050565b5f6020820190508181035f8301526131b48184613116565b905092915050565b6131c58161303f565b82525050565b5f6020820190506131de5f8301846131bc565b92915050565b5f5f5f604084860312156131fb576131fa612c6c565b5b5f61320886828701612da6565b935050602084013567ffffffffffffffff81111561322957613228612c70565b5b61323586828701612dc6565b92509250509250925092565b5f6020820190506132545f830184612f5a565b92915050565b5f6020828403121561326f5761326e612c6c565b5b5f61327c84828501612d73565b91505092915050565b5f6060820190506132985f830186612f5a565b6132a56020830185612f5a565b6132b26040830184612f5a565b949350505050565b5f5ffd5b7f4e487b71000000000000000000000000000000000000000000000000000000005f52604160045260245ffd5b6132f482612f91565b810181811067ffffffffffffffff82111715613313576133126132be565b5b80604052505050565b5f613325612c63565b905061333182826132eb565b919050565b5f67ffffffffffffffff8211156133505761334f6132be565b5b61335982612f91565b9050602081019050919050565b828183375f83830152505050565b5f61338661338184613336565b61331c565b9050828152602081018484840111156133a2576133a16132ba565b5b6133ad848285613366565b509392505050565b5f82601f8301126133c9576133c8612dba565b5b81356133d9848260208601613374565b91505092915050565b5f5f5f606084860312156133f9576133f8612c6c565b5b5f61340686828701612da6565b935050602084013567ffffffffffffffff81111561342757613426612c70565b5b613433868287016133b5565b925050604061344486828701612cba565b9150509250925092565b7f416d6f756e74206d7573742062652067726561746572207468616e207a65726f5f82015250565b5f613482602083612f73565b915061348d8261344e565b602082019050919050565b5f6020820190508181035f8301526134af81613476565b9050919050565b5f6060820190506134c95f830186612d2c565b6134d66020830185612d2c565b6134e36040830184612f5a565b949350505050565b5f815190506134f981612e9f565b92915050565b5f6020828403121561351457613513612c6c565b5b5f613521848285016134eb565b91505092915050565b7f4f6e6c792076616c696461746f72207365742063616e2063616c6c00000000005f82015250565b5f61355e601b83612f73565b91506135698261352a565b602082019050919050565b5f6020820190508181035f83015261358b81613552565b9050919050565b7f496e76616c6964206174746573746f72206164647265737300000000000000005f82015250565b5f6135c6601883612f73565b91506135d182613592565b602082019050919050565b5f6020820190508181035f8301526135f3816135ba565b9050919050565b7f496e76616c6964206e6f646520616464726573730000000000000000000000005f82015250565b5f61362e601483612f73565b9150613639826135fa565b602082019050919050565b5f6020820190508181035f83015261365b81613622565b9050919050565b7f4e487b71000000000000000000000000000000000000000000000000000000005f52602260045260245ffd5b5f60028204905060018216806136a657607f821691505b6020821081036136b9576136b8613662565b5b50919050565b7f496e76616c6964206164647265737300000000000000000000000000000000005f82015250565b5f6136f3600f83612f73565b91506136fe826136bf565b602082019050919050565b5f6020820190508181035f830152613720816136e7565b9050919050565b5f81905092915050565b7f6368696c64416e63686f720000000000000000000000000000000000000000005f82015250565b5f613765600b83613727565b915061377082613731565b600b82019050919050565b5f61378582613759565b9150819050919050565b5f6040820190506137a25f830185612f5a565b6137af6020830184612f5a565b9392505050565b7f45786365656473206665652063617000000000000000000000000000000000005f82015250565b5f6137ea600f83612f73565b91506137f5826137b6565b602082019050919050565b5f6020820190508181035f830152613817816137de565b9050919050565b7f6665654f707342707300000000000000000000000000000000000000000000005f82015250565b5f613852600983613727565b915061385d8261381e565b600982019050919050565b5f61387282613846565b9150819050919050565b5f819050919050565b5f61389f61389a6138958461303f565b61387c565b612d54565b9050919050565b6138af81613885565b82525050565b5f6040820190506138c85f830185612f5a565b6138d560208301846138a6565b9392505050565b7f4e6f2068656c642066756e647320666f722074686973207472616e73616374695f8201527f6f6e000000000000000000000000000000000000000000000000000000000000602082015250565b5f613936602283612f73565b9150613941826138dc565b604082019050919050565b5f6020820190508181035f8301526139638161392a565b9050919050565b7f416c7265616479207265736f6c766564000000000000000000000000000000005f82015250565b5f61399e601083612f73565b91506139a98261396a565b602082019050919050565b5f6020820190508181035f8301526139cb81613992565b9050919050565b7f4e487b71000000000000000000000000000000000000000000000000000000005f52601160045260245ffd5b5f613a0982612d54565b9150613a1483612d54565b9250828202613a2281612d54565b91508282048414831517613a3957613a386139d2565b5b5092915050565b7f4e487b71000000000000000000000000000000000000000000000000000000005f52601260045260245ffd5b5f613a7782612d54565b9150613a8283612d54565b925082613a9257613a91613a40565b5b828204905092915050565b5f613aa782612d54565b9150613ab283612d54565b9250828203905081811115613aca57613ac96139d2565b5b92915050565b7f43616e6e6f74206c6f7765722062656c6f77206861726420666c6f6f720000005f82015250565b5f613b04601d83612f73565b9150613b0f82613ad0565b602082019050919050565b5f6020820190508181035f830152613b3181613af8565b9050919050565b7f496e76616c6964204250530000000000000000000000000000000000000000005f82015250565b5f613b6c600b83612f73565b9150613b7782613b38565b602082019050919050565b5f6020820190508181035f830152613b9981613b60565b9050919050565b7f6d696e4368696c645368617265427073000000000000000000000000000000005f82015250565b5f613bd4601083613727565b9150613bdf82613ba0565b601082019050919050565b5f613bf482613bc8565b9150819050919050565b7f6f7065726174696f6e7357616c6c6574000000000000000000000000000000005f82015250565b5f613c32601083613727565b9150613c3d82613bfe565b601082019050919050565b5f613c5282613c26565b9150819050919050565b7f4e6f2068656c642066756e6473000000000000000000000000000000000000005f82015250565b5f613c90600d83612f73565b9150613c9b82613c5c565b602082019050919050565b5f6020820190508181035f830152613cbd81613c84565b9050919050565b7f524546554e4400000000000000000000000000000000000000000000000000005f82015250565b5f613cf8600683613727565b9150613d0382613cc4565b600682019050919050565b5f613d1882613cec565b9150819050919050565b5f613d2c82612f69565b613d368185613727565b9350613d46818560208601612f83565b80840191505092915050565b5f613d5d8284613d22565b915081905092915050565b5f81905092915050565b50565b5f613d805f83613d68565b9150613d8b82613d72565b5f82019050919050565b5f613d9f82613d75565b9150819050919050565b7f45544820726566756e64206661696c65640000000000000000000000000000005f82015250565b5f613ddd601183612f73565b9150613de882613da9565b602082019050919050565b5f6020820190508181035f830152613e0a81613dd1565b9050919050565b5f604082019050613e245f830185612d2c565b613e316020830184612f5a565b9392505050565b7f5472616e73666572206661696c656400000000000000000000000000000000005f82015250565b5f613e6c600f83612f73565b9150613e7782613e38565b602082019050919050565b5f6020820190508181035f830152613e9981613e60565b9050919050565b7f444f4e4154455f544f5f4348494c4400000000000000000000000000000000005f82015250565b5f613ed4600f83613727565b9150613edf82613ea0565b600f82019050919050565b5f613ef482613ec8565b9150819050919050565b7f45544820646f6e6174696f6e206661696c6564000000000000000000000000005f82015250565b5f613f32601383612f73565b9150613f3d82613efe565b602082019050919050565b5f6020820190508181035f830152613f5f81613f26565b9050919050565b7f5245524f555445000000000000000000000000000000000000000000000000005f82015250565b5f613f9a600783613727565b9150613fa582613f66565b600782019050919050565b5f613fba82613f8e565b9150819050919050565b7f496e76616c69642074617267657420666f72207265726f7574650000000000005f82015250565b5f613ff8601a83612f73565b915061400382613fc4565b602082019050919050565b5f6020820190508181035f83015261402581613fec565b9050919050565b7f455448207265726f757465206661696c656400000000000000000000000000005f82015250565b5f614060601283612f73565b915061406b8261402c565b602082019050919050565b5f6020820190508181035f83015261408d81614054565b9050919050565b5f6020820190508181035f8301526140ac8184612fa1565b905092915050565b5f8160601b9050919050565b5f6140ca826140b4565b9050919050565b5f6140db826140c0565b9050919050565b6140f36140ee82612c93565b6140d1565b82525050565b5f819050919050565b61411361410e82612d54565b6140f9565b82525050565b5f61412482886140e2565b6014820191506141348287614102565b60208201915061414482866140e2565b6014820191506141548285614102565b6020820191506141648284614102565b6020820191508190509695505050505050565b7f4368696c6420736861726520746f6f20736d616c6c00000000000000000000005f82015250565b5f6141ab601583612f73565b91506141b682614177565b602082019050919050565b5f6020820190508181035f8301526141d88161419f565b9050919050565b7f496e74656e742076616c69646174696f6e206661696c656400000000000000005f82015250565b5f614213601883612f73565b915061421e826141df565b602082019050919050565b5f60408201905061423c5f830184612d04565b818103602083015261424d81614207565b905092915050565b7f496e74656e742076616c696461746564000000000000000000000000000000005f82015250565b5f614289601083612f73565b915061429482614255565b602082019050919050565b5f6040820190506142b25f830184612d04565b81810360208301526142c38161427d565b905092915050565b5f819050815f5260205f209050919050565b5f6020601f8301049050919050565b5f82821b905092915050565b5f600883026143277fffffffffffffffffffffffffffffffffffffffffffffffffffffffffffffffff826142ec565b61433186836142ec565b95508019841693508086168417925050509392505050565b5f61436361435e61435984612d54565b61387c565b612d54565b9050919050565b5f819050919050565b61437c83614349565b6143906143888261436a565b8484546142f8565b825550505050565b5f5f905090565b6143a7614398565b6143b2818484614373565b505050565b5f5b828110156143d8576143cd5f82840161439f565b6001810190506143b9565b505050565b601f82111561442b578282111561442a576143f7816142cb565b614400836142dd565b614409856142dd565b6020861015614416575f90505b808301614425828403826143b7565b505050505b5b505050565b5f82821c905092915050565b5f61444b5f1984600802614430565b1980831691505092915050565b5f614463838361443c565b9150826002028217905092915050565b61447c82612f69565b67ffffffffffffffff811115614495576144946132be565b5b61449f825461368f565b6144aa8282856143dd565b5f60209050601f8311600181146144db575f84156144c9578287015190505b6144d38582614458565b86555061453a565b601f1984166144e9866142cb565b5f5b82811015614510578489015182556001820191506020850194506020810190506144eb565b8683101561452d5784890151614529601f89168261443c565b8355505b6001600288020188555050505b505050505050565b5f6040820190506145555f830185612f5a565b81810360208301526145678184612fa1565b90509392505050565b7f455448207472616e7366657220746f206368696c64206661696c6564000000005f82015250565b5f6145a4601c83612f73565b91506145af82614570565b602082019050919050565b5f6020820190508181035f8301526145d181614598565b9050919050565b7f455448207472616e7366657220746f206f7073206661696c65640000000000005f82015250565b5f61460c601a83612f73565b9150614617826145d8565b602082019050919050565b5f6020820190508181035f83015261463981614600565b9050919050565b7f455448207472616e73666572206661696c6564000000000000000000000000005f82015250565b5f614674601383612f73565b915061467f82614640565b602082019050919050565b5f6020820190508181035f8301526146a181614668565b905091905056fea2646970667358221220de779646848a9b0452d74ce9ccb328e46c54fe57d9281611db7750795c254c7964736f6c63430008230033","linkReferences":{}},"methodIdentifiers":{"MAX_BPS()":"fd967f47","MAX_FEE_CAP()":"d71b77ae","MIN_CHILD_FLOOR()":"5c2fdaa7","calculateDistribution(uint256)":"a9339d7e","chainId()":"9a8a0592","childAnchor()":"12470b7b","donateERC20(address,uint256,bytes32,bytes)":"2856542c","donateETH(bytes32,bytes)":"88529c43","everglowSeedHash()":"45df0f91","feeOpsBps()":"fb5d1c41","getHeldFunds(bytes32)":"5bcb17c4","held(bytes32)":"477809b1","initiateReview(bytes32)":"5349f76b","isAttestor(address)":"2e2f4e24","isNode(address)":"01750152","minChildShareBps()":"7354a3a3","operationsWallet()":"fd72e22a","resolveHold(bytes32,string,address)":"eedba758","setAttestor(address,bool)":"41724dd0","setChildAnchor(address)":"4b252b5c","setFeeOpsBps(uint16)":"4d223f65","setMinChildShareBps(uint16)":"edb91b9a","setNode(address,bool)":"41addb7b","setOperationsWallet(address)":"ee5ecc89","validatorSet()":"9426e226","walletWhitelistHash()":"f6294e86"},"id":19}