{"abi":[{"type":"constructor","inputs":[{"name":"_token","type":"address","internalType":"contract IVotes"},{"name":"_timelock","type":"address","internalType":"contract TimelockController"},{"name":"_votingDelay","type":"uint48","internalType":"uint48"},{"name":"_votingPeriod","type":"uint32","internalType":"uint32"},{"name":"_proposalThreshold","type":"uint256","internalType":"uint256"},{"name":"_quorumNumerator","type":"uint256","internalType":"uint256"}],"stateMutability":"nonpayable"},{"type":"receive","stateMutability":"payable"},{"type":"function","name":"BALLOT_TYPEHASH","inputs":[],"outputs":[{"name":"","type":"bytes32","internalType":"bytes32"}],"stateMutability":"view"},{"type":"function","name":"CLOCK_MODE","inputs":[],"outputs":[{"name":"","type":"string","internalType":"string"}],"stateMutability":"view"},{"type":"function","name":"COUNTING_MODE","inputs":[],"outputs":[{"name":"","type":"string","internalType":"string"}],"stateMutability":"pure"},{"type":"function","name":"EXTENDED_BALLOT_TYPEHASH","inputs":[],"outputs":[{"name":"","type":"bytes32","internalType":"bytes32"}],"stateMutability":"view"},{"type":"function","name":"cancel","inputs":[{"name":"targets","type":"address[]","internalType":"address[]"},{"name":"values","type":"uint256[]","internalType":"uint256[]"},{"name":"calldatas","type":"bytes[]","internalType":"bytes[]"},{"name":"descriptionHash","type":"bytes32","internalType":"bytes32"}],"outputs":[{"name":"","type":"uint256","internalType":"uint256"}],"stateMutability":"nonpayable"},{"type":"function","name":"castVote","inputs":[{"name":"proposalId","type":"uint256","internalType":"uint256"},{"name":"support","type":"uint8","internalType":"uint8"}],"outputs":[{"name":"","type":"uint256","internalType":"uint256"}],"stateMutability":"nonpayable"},{"type":"function","name":"castVoteBySig","inputs":[{"name":"proposalId","type":"uint256","internalType":"uint256"},{"name":"support","type":"uint8","internalType":"uint8"},{"name":"voter","type":"address","internalType":"address"},{"name":"signature","type":"bytes","internalType":"bytes"}],"outputs":[{"name":"","type":"uint256","internalType":"uint256"}],"stateMutability":"nonpayable"},{"type":"function","name":"castVoteWithReason","inputs":[{"name":"proposalId","type":"uint256","internalType":"uint256"},{"name":"support","type":"uint8","internalType":"uint8"},{"name":"reason","type":"string","internalType":"string"}],"outputs":[{"name":"","type":"uint256","internalType":"uint256"}],"stateMutability":"nonpayable"},{"type":"function","name":"castVoteWithReasonAndParams","inputs":[{"name":"proposalId","type":"uint256","internalType":"uint256"},{"name":"support","type":"uint8","internalType":"uint8"},{"name":"reason","type":"string","internalType":"string"},{"name":"params","type":"bytes","internalType":"bytes"}],"outputs":[{"name":"","type":"uint256","internalType":"uint256"}],"stateMutability":"nonpayable"},{"type":"function","name":"castVoteWithReasonAndParamsBySig","inputs":[{"name":"proposalId","type":"uint256","internalType":"uint256"},{"name":"support","type":"uint8","internalType":"uint8"},{"name":"voter","type":"address","internalType":"address"},{"name":"reason","type":"string","internalType":"string"},{"name":"params","type":"bytes","internalType":"bytes"},{"name":"signature","type":"bytes","internalType":"bytes"}],"outputs":[{"name":"","type":"uint256","internalType":"uint256"}],"stateMutability":"nonpayable"},{"type":"function","name":"clock","inputs":[],"outputs":[{"name":"","type":"uint48","internalType":"uint48"}],"stateMutability":"view"},{"type":"function","name":"eip712Domain","inputs":[],"outputs":[{"name":"fields","type":"bytes1","internalType":"bytes1"},{"name":"name","type":"string","internalType":"string"},{"name":"version","type":"string","internalType":"string"},{"name":"chainId","type":"uint256","internalType":"uint256"},{"name":"verifyingContract","type":"address","internalType":"address"},{"name":"salt","type":"bytes32","internalType":"bytes32"},{"name":"extensions","type":"uint256[]","internalType":"uint256[]"}],"stateMutability":"view"},{"type":"function","name":"execute","inputs":[{"name":"targets","type":"address[]","internalType":"address[]"},{"name":"values","type":"uint256[]","internalType":"uint256[]"},{"name":"calldatas","type":"bytes[]","internalType":"bytes[]"},{"name":"descriptionHash","type":"bytes32","internalType":"bytes32"}],"outputs":[{"name":"","type":"uint256","internalType":"uint256"}],"stateMutability":"payable"},{"type":"function","name":"getProposalId","inputs":[{"name":"targets","type":"address[]","internalType":"address[]"},{"name":"values","type":"uint256[]","internalType":"uint256[]"},{"name":"calldatas","type":"bytes[]","internalType":"bytes[]"},{"name":"descriptionHash","type":"bytes32","internalType":"bytes32"}],"outputs":[{"name":"","type":"uint256","internalType":"uint256"}],"stateMutability":"view"},{"type":"function","name":"getVotes","inputs":[{"name":"account","type":"address","internalType":"address"},{"name":"timepoint","type":"uint256","internalType":"uint256"}],"outputs":[{"name":"","type":"uint256","internalType":"uint256"}],"stateMutability":"view"},{"type":"function","name":"getVotesWithParams","inputs":[{"name":"account","type":"address","internalType":"address"},{"name":"timepoint","type":"uint256","internalType":"uint256"},{"name":"params","type":"bytes","internalType":"bytes"}],"outputs":[{"name":"","type":"uint256","internalType":"uint256"}],"stateMutability":"view"},{"type":"function","name":"hasVoted","inputs":[{"name":"proposalId","type":"uint256","internalType":"uint256"},{"name":"account","type":"address","internalType":"address"}],"outputs":[{"name":"","type":"bool","internalType":"bool"}],"stateMutability":"view"},{"type":"function","name":"hashProposal","inputs":[{"name":"targets","type":"address[]","internalType":"address[]"},{"name":"values","type":"uint256[]","internalType":"uint256[]"},{"name":"calldatas","type":"bytes[]","internalType":"bytes[]"},{"name":"descriptionHash","type":"bytes32","internalType":"bytes32"}],"outputs":[{"name":"","type":"uint256","internalType":"uint256"}],"stateMutability":"pure"},{"type":"function","name":"name","inputs":[],"outputs":[{"name":"","type":"string","internalType":"string"}],"stateMutability":"view"},{"type":"function","name":"nonces","inputs":[{"name":"owner","type":"address","internalType":"address"}],"outputs":[{"name":"","type":"uint256","internalType":"uint256"}],"stateMutability":"view"},{"type":"function","name":"onERC1155BatchReceived","inputs":[{"name":"","type":"address","internalType":"address"},{"name":"","type":"address","internalType":"address"},{"name":"","type":"uint256[]","internalType":"uint256[]"},{"name":"","type":"uint256[]","internalType":"uint256[]"},{"name":"","type":"bytes","internalType":"bytes"}],"outputs":[{"name":"","type":"bytes4","internalType":"bytes4"}],"stateMutability":"nonpayable"},{"type":"function","name":"onERC1155Received","inputs":[{"name":"","type":"address","internalType":"address"},{"name":"","type":"address","internalType":"address"},{"name":"","type":"uint256","internalType":"uint256"},{"name":"","type":"uint256","internalType":"uint256"},{"name":"","type":"bytes","internalType":"bytes"}],"outputs":[{"name":"","type":"bytes4","internalType":"bytes4"}],"stateMutability":"nonpayable"},{"type":"function","name":"onERC721Received","inputs":[{"name":"","type":"address","internalType":"address"},{"name":"","type":"address","internalType":"address"},{"name":"","type":"uint256","internalType":"uint256"},{"name":"","type":"bytes","internalType":"bytes"}],"outputs":[{"name":"","type":"bytes4","internalType":"bytes4"}],"stateMutability":"nonpayable"},{"type":"function","name":"proposalDeadline","inputs":[{"name":"proposalId","type":"uint256","internalType":"uint256"}],"outputs":[{"name":"","type":"uint256","internalType":"uint256"}],"stateMutability":"view"},{"type":"function","name":"proposalEta","inputs":[{"name":"proposalId","type":"uint256","internalType":"uint256"}],"outputs":[{"name":"","type":"uint256","internalType":"uint256"}],"stateMutability":"view"},{"type":"function","name":"proposalNeedsQueuing","inputs":[{"name":"proposalId","type":"uint256","internalType":"uint256"}],"outputs":[{"name":"","type":"bool","internalType":"bool"}],"stateMutability":"view"},{"type":"function","name":"proposalProposer","inputs":[{"name":"proposalId","type":"uint256","internalType":"uint256"}],"outputs":[{"name":"","type":"address","internalType":"address"}],"stateMutability":"view"},{"type":"function","name":"proposalSnapshot","inputs":[{"name":"proposalId","type":"uint256","internalType":"uint256"}],"outputs":[{"name":"","type":"uint256","internalType":"uint256"}],"stateMutability":"view"},{"type":"function","name":"proposalThreshold","inputs":[],"outputs":[{"name":"","type":"uint256","internalType":"uint256"}],"stateMutability":"view"},{"type":"function","name":"proposalVotes","inputs":[{"name":"proposalId","type":"uint256","internalType":"uint256"}],"outputs":[{"name":"againstVotes","type":"uint256","internalType":"uint256"},{"name":"forVotes","type":"uint256","internalType":"uint256"},{"name":"abstainVotes","type":"uint256","internalType":"uint256"}],"stateMutability":"view"},{"type":"function","name":"propose","inputs":[{"name":"targets","type":"address[]","internalType":"address[]"},{"name":"values","type":"uint256[]","internalType":"uint256[]"},{"name":"calldatas","type":"bytes[]","internalType":"bytes[]"},{"name":"description","type":"string","internalType":"string"}],"outputs":[{"name":"","type":"uint256","internalType":"uint256"}],"stateMutability":"nonpayable"},{"type":"function","name":"queue","inputs":[{"name":"targets","type":"address[]","internalType":"address[]"},{"name":"values","type":"uint256[]","internalType":"uint256[]"},{"name":"calldatas","type":"bytes[]","internalType":"bytes[]"},{"name":"descriptionHash","type":"bytes32","internalType":"bytes32"}],"outputs":[{"name":"","type":"uint256","internalType":"uint256"}],"stateMutability":"nonpayable"},{"type":"function","name":"quorum","inputs":[{"name":"blockNumber","type":"uint256","internalType":"uint256"}],"outputs":[{"name":"","type":"uint256","internalType":"uint256"}],"stateMutability":"view"},{"type":"function","name":"quorumDenominator","inputs":[],"outputs":[{"name":"","type":"uint256","internalType":"uint256"}],"stateMutability":"view"},{"type":"function","name":"quorumNumerator","inputs":[{"name":"timepoint","type":"uint256","internalType":"uint256"}],"outputs":[{"name":"","type":"uint256","internalType":"uint256"}],"stateMutability":"view"},{"type":"function","name":"quorumNumerator","inputs":[],"outputs":[{"name":"","type":"uint256","internalType":"uint256"}],"stateMutability":"view"},{"type":"function","name":"relay","inputs":[{"name":"target","type":"address","internalType":"address"},{"name":"value","type":"uint256","internalType":"uint256"},{"name":"data","type":"bytes","internalType":"bytes"}],"outputs":[],"stateMutability":"payable"},{"type":"function","name":"setProposalThreshold","inputs":[{"name":"newProposalThreshold","type":"uint256","internalType":"uint256"}],"outputs":[],"stateMutability":"nonpayable"},{"type":"function","name":"setVotingDelay","inputs":[{"name":"newVotingDelay","type":"uint48","internalType":"uint48"}],"outputs":[],"stateMutability":"nonpayable"},{"type":"function","name":"setVotingPeriod","inputs":[{"name":"newVotingPeriod","type":"uint32","internalType":"uint32"}],"outputs":[],"stateMutability":"nonpayable"},{"type":"function","name":"state","inputs":[{"name":"proposalId","type":"uint256","internalType":"uint256"}],"outputs":[{"name":"","type":"uint8","internalType":"enum IGovernor.ProposalState"}],"stateMutability":"view"},{"type":"function","name":"supportsInterface","inputs":[{"name":"interfaceId","type":"bytes4","internalType":"bytes4"}],"outputs":[{"name":"","type":"bool","internalType":"bool"}],"stateMutability":"view"},{"type":"function","name":"timelock","inputs":[],"outputs":[{"name":"","type":"address","internalType":"address"}],"stateMutability":"view"},{"type":"function","name":"token","inputs":[],"outputs":[{"name":"","type":"address","internalType":"contract IERC5805"}],"stateMutability":"view"},{"type":"function","name":"updateQuorumNumerator","inputs":[{"name":"newQuorumNumerator","type":"uint256","internalType":"uint256"}],"outputs":[],"stateMutability":"nonpayable"},{"type":"function","name":"updateTimelock","inputs":[{"name":"newTimelock","type":"address","internalType":"contract TimelockController"}],"outputs":[],"stateMutability":"nonpayable"},{"type":"function","name":"version","inputs":[],"outputs":[{"name":"","type":"string","internalType":"string"}],"stateMutability":"view"},{"type":"function","name":"votingDelay","inputs":[],"outputs":[{"name":"","type":"uint256","internalType":"uint256"}],"stateMutability":"view"},{"type":"function","name":"votingPeriod","inputs":[],"outputs":[{"name":"","type":"uint256","internalType":"uint256"}],"stateMutability":"view"},{"type":"event","name":"EIP712DomainChanged","inputs":[],"anonymous":false},{"type":"event","name":"ProposalCanceled","inputs":[{"name":"proposalId","type":"uint256","indexed":false,"internalType":"uint256"}],"anonymous":false},{"type":"event","name":"ProposalCreated","inputs":[{"name":"proposalId","type":"uint256","indexed":false,"internalType":"uint256"},{"name":"proposer","type":"address","indexed":false,"internalType":"address"},{"name":"targets","type":"address[]","indexed":false,"internalType":"address[]"},{"name":"values","type":"uint256[]","indexed":false,"internalType":"uint256[]"},{"name":"signatures","type":"string[]","indexed":false,"internalType":"string[]"},{"name":"calldatas","type":"bytes[]","indexed":false,"internalType":"bytes[]"},{"name":"voteStart","type":"uint256","indexed":false,"internalType":"uint256"},{"name":"voteEnd","type":"uint256","indexed":false,"internalType":"uint256"},{"name":"description","type":"string","indexed":false,"internalType":"string"}],"anonymous":false},{"type":"event","name":"ProposalExecuted","inputs":[{"name":"proposalId","type":"uint256","indexed":false,"internalType":"uint256"}],"anonymous":false},{"type":"event","name":"ProposalQueued","inputs":[{"name":"proposalId","type":"uint256","indexed":false,"internalType":"uint256"},{"name":"etaSeconds","type":"uint256","indexed":false,"internalType":"uint256"}],"anonymous":false},{"type":"event","name":"ProposalThresholdSet","inputs":[{"name":"oldProposalThreshold","type":"uint256","indexed":false,"internalType":"uint256"},{"name":"newProposalThreshold","type":"uint256","indexed":false,"internalType":"uint256"}],"anonymous":false},{"type":"event","name":"QuorumNumeratorUpdated","inputs":[{"name":"oldQuorumNumerator","type":"uint256","indexed":false,"internalType":"uint256"},{"name":"newQuorumNumerator","type":"uint256","indexed":false,"internalType":"uint256"}],"anonymous":false},{"type":"event","name":"TimelockChange","inputs":[{"name":"oldTimelock","type":"address","indexed":false,"internalType":"address"},{"name":"newTimelock","type":"address","indexed":false,"internalType":"address"}],"anonymous":false},{"type":"event","name":"VoteCast","inputs":[{"name":"voter","type":"address","indexed":true,"internalType":"address"},{"name":"proposalId","type":"uint256","indexed":false,"internalType":"uint256"},{"name":"support","type":"uint8","indexed":false,"internalType":"uint8"},{"name":"weight","type":"uint256","indexed":false,"internalType":"uint256"},{"name":"reason","type":"string","indexed":false,"internalType":"string"}],"anonymous":false},{"type":"event","name":"VoteCastWithParams","inputs":[{"name":"voter","type":"address","indexed":true,"internalType":"address"},{"name":"proposalId","type":"uint256","indexed":false,"internalType":"uint256"},{"name":"support","type":"uint8","indexed":false,"internalType":"uint8"},{"name":"weight","type":"uint256","indexed":false,"internalType":"uint256"},{"name":"reason","type":"string","indexed":false,"internalType":"string"},{"name":"params","type":"bytes","indexed":false,"internalType":"bytes"}],"anonymous":false},{"type":"event","name":"VotingDelaySet","inputs":[{"name":"oldVotingDelay","type":"uint256","indexed":false,"internalType":"uint256"},{"name":"newVotingDelay","type":"uint256","indexed":false,"internalType":"uint256"}],"anonymous":false},{"type":"event","name":"VotingPeriodSet","inputs":[{"name":"oldVotingPeriod","type":"uint256","indexed":false,"internalType":"uint256"},{"name":"newVotingPeriod","type":"uint256","indexed":false,"internalType":"uint256"}],"anonymous":false},{"type":"error","name":"CheckpointUnorderedInsertion","inputs":[]},{"type":"error","name":"ERC6372InconsistentClock","inputs":[]},{"type":"error","name":"FailedCall","inputs":[]},{"type":"error","name":"GovernorAlreadyCastVote","inputs":[{"name":"voter","type":"address","internalType":"address"}]},{"type":"error","name":"GovernorAlreadyQueuedProposal","inputs":[{"name":"proposalId","type":"uint256","internalType":"uint256"}]},{"type":"error","name":"GovernorDisabledDeposit","inputs":[]},{"type":"error","name":"GovernorInsufficientProposerVotes","inputs":[{"name":"proposer","type":"address","internalType":"address"},{"name":"votes","type":"uint256","internalType":"uint256"},{"name":"threshold","type":"uint256","internalType":"uint256"}]},{"type":"error","name":"GovernorInvalidProposalLength","inputs":[{"name":"targets","type":"uint256","internalType":"uint256"},{"name":"calldatas","type":"uint256","internalType":"uint256"},{"name":"values","type":"uint256","internalType":"uint256"}]},{"type":"error","name":"GovernorInvalidQuorumFraction","inputs":[{"name":"quorumNumerator","type":"uint256","internalType":"uint256"},{"name":"quorumDenominator","type":"uint256","internalType":"uint256"}]},{"type":"error","name":"GovernorInvalidSignature","inputs":[{"name":"voter","type":"address","internalType":"address"}]},{"type":"error","name":"GovernorInvalidVoteParams","inputs":[]},{"type":"error","name":"GovernorInvalidVoteType","inputs":[]},{"type":"error","name":"GovernorInvalidVotingPeriod","inputs":[{"name":"votingPeriod","type":"uint256","internalType":"uint256"}]},{"type":"error","name":"GovernorNonexistentProposal","inputs":[{"name":"proposalId","type":"uint256","internalType":"uint256"}]},{"type":"error","name":"GovernorOnlyExecutor","inputs":[{"name":"account","type":"address","internalType":"address"}]},{"type":"error","name":"GovernorProposalQueueingFailed","inputs":[{"name":"proposalId","type":"uint256","internalType":"uint256"}]},{"type":"error","name":"GovernorProposalQueueingNotRequired","inputs":[{"name":"proposalId","type":"uint256","internalType":"uint256"}]},{"type":"error","name":"GovernorRestrictedProposer","inputs":[{"name":"proposer","type":"address","internalType":"address"}]},{"type":"error","name":"GovernorUnableToCancel","inputs":[{"name":"proposalId","type":"uint256","internalType":"uint256"},{"name":"account","type":"address","internalType":"address"}]},{"type":"error","name":"GovernorUnexpectedProposalState","inputs":[{"name":"proposalId","type":"uint256","internalType":"uint256"},{"name":"current","type":"uint8","internalType":"enum IGovernor.ProposalState"},{"name":"expectedStates","type":"bytes32","internalType":"bytes32"}]},{"type":"error","name":"InvalidAccountNonce","inputs":[{"name":"account","type":"address","internalType":"address"},{"name":"currentNonce","type":"uint256","internalType":"uint256"}]},{"type":"error","name":"InvalidShortString","inputs":[]},{"type":"error","name":"SafeCastOverflowedUintDowncast","inputs":[{"name":"bits","type":"uint8","internalType":"uint8"},{"name":"value","type":"uint256","internalType":"uint256"}]},{"type":"error","name":"StringTooLong","inputs":[{"name":"str","type":"string","internalType":"string"}]}],"bytecode":{"object":"0x610180604052348015610010575f5ffd5b506040516185a23803806185a283398181016040528101906100329190610caf565b8481878686866040518060400160405280600b81526020017f504c47476f7665726e6f720000000000000000000000000000000000000000008152508061007d6101c860201b60201c565b6100905f8361020560201b90919060201c565b61012081815250506100ac60018261020560201b90919060201c565b6101408181525050818051906020012060e08181525050808051906020012061010081815250504660a081815250506100e961025260201b60201c565b608081815250503073ffffffffffffffffffffffffffffffffffffffff1660c08173ffffffffffffffffffffffffffffffffffffffff1681525050505080600390816101359190610f7d565b5050610146836102ac60201b60201c565b6101558261031f60201b60201c565b610164816103d860201b60201c565b5050508073ffffffffffffffffffffffffffffffffffffffff166101608173ffffffffffffffffffffffffffffffffffffffff1681525050506101ac8161041d60201b60201c565b506101bc816104f760201b60201c565b50505050505050611491565b60606040518060400160405280600181526020017f3100000000000000000000000000000000000000000000000000000000000000815250905090565b5f6020835110156102265761021f8361059460201b60201c565b905061024c565b82610236836105f960201b60201c565b5f0190816102449190610f7d565b5060ff5f1b90505b92915050565b5f7f8b73c3c69bb8fe3d512ecc4cf759cc79239f7b179b0ffacaa9a75d522b39400f60e051610100514630604051602001610291959493929190611082565b60405160208183030381529060405280519060200120905090565b7fc565b045403dc03c2eea82b81a0465edad9e2e7fc4d97e11421c209da93d7a9360085f9054906101000a900465ffffffffffff16826040516102f0929190611103565b60405180910390a18060085f6101000a81548165ffffffffffff021916908365ffffffffffff16021790555050565b5f8163ffffffff1603610369575f6040517ff1cfbf050000000000000000000000000000000000000000000000000000000081526004016103609190611163565b60405180910390fd5b7f7e3f7f0708a84de9203036abaa450dccc85ad5ff52f78c170f3edb55cf5e8828600860069054906101000a900463ffffffff16826040516103ac9291906111ac565b60405180910390a180600860066101000a81548163ffffffff021916908363ffffffff16021790555050565b7fccb45da8d5717e6c4544694297c4ba5cf151d455c9bb0ed4fc7a38411bc054616007548260405161040b9291906111d3565b60405180910390a18060078190555050565b5f61042c61060260201b60201c565b9050808211156104755781816040517f243e544500000000000000000000000000000000000000000000000000000000815260040161046c9291906111d3565b60405180910390fd5b5f61048461060a60201b60201c565b90506104b761049761063c60201b60201c565b6104a6856106d360201b60201c565b600a61074060201b9092919060201c565b50507f0553476bf02ef2726e8ce5ced78d63e26e602e4a2257b1f559418e24b463399781846040516104ea9291906111d3565b60405180910390a1505050565b7f08f74ea46ef7894f65eabfb5e6e695de773a000b47c529ab559178069b226401600b5f9054906101000a900473ffffffffffffffffffffffffffffffffffffffff16826040516105499291906111fa565b60405180910390a180600b5f6101000a81548173ffffffffffffffffffffffffffffffffffffffff021916908373ffffffffffffffffffffffffffffffffffffffff16021790555050565b5f5f829050601f815111156105e057826040517f305a27a90000000000000000000000000000000000000000000000000000000081526004016105d79190611287565b60405180910390fd5b8051816105ec906112d4565b5f1c175f1b915050919050565b5f819050919050565b5f6064905090565b5f61061b600a61076160201b60201c565b79ffffffffffffffffffffffffffffffffffffffffffffffffffff16905090565b5f61064b6107c960201b60201c565b73ffffffffffffffffffffffffffffffffffffffff166391ddadf46040518163ffffffff1660e01b8152600401602060405180830381865afa9250505080156106b257506040513d601f19601f820116820180604052508101906106af919061133a565b60015b6106cb576106c46107d360201b60201c565b90506106d0565b809150505b90565b5f79ffffffffffffffffffffffffffffffffffffffffffffffffffff80168211156107385760d0826040517f6dfcc65000000000000000000000000000000000000000000000000000000000815260040161072f9291906113aa565b60405180910390fd5b819050919050565b5f5f610755855f0185856107e860201b60201c565b91509150935093915050565b5f5f825f018054905090505f81146107bf57610791835f0160018361078691906113fe565b610ae260201b60201c565b5f0160069054906101000a900479ffffffffffffffffffffffffffffffffffffffffffffffffffff166107c1565b5f5b915050919050565b5f61016051905090565b5f6107e343610af460201b60201c565b905090565b5f5f5f858054905090505f8111156109fa575f6108178760018461080c91906113fe565b610ae260201b60201c565b90505f815f015f9054906101000a900465ffffffffffff1690505f825f0160069054906101000a900479ffffffffffffffffffffffffffffffffffffffffffffffffffff1690508765ffffffffffff168265ffffffffffff1611156108a8576040517f2520601d00000000000000000000000000000000000000000000000000000000815260040160405180910390fd5b8765ffffffffffff168265ffffffffffff16036109125786835f0160066101000a81548179ffffffffffffffffffffffffffffffffffffffffffffffffffff021916908379ffffffffffffffffffffffffffffffffffffffffffffffffffff1602179055506109eb565b8860405180604001604052808a65ffffffffffff1681526020018979ffffffffffffffffffffffffffffffffffffffffffffffffffff16815250908060018154018082558091505060019003905f5260205f20015f909190919091505f820151815f015f6101000a81548165ffffffffffff021916908365ffffffffffff1602179055506020820151815f0160066101000a81548179ffffffffffffffffffffffffffffffffffffffffffffffffffff021916908379ffffffffffffffffffffffffffffffffffffffffffffffffffff16021790555050505b80879550955050505050610ada565b8560405180604001604052808765ffffffffffff1681526020018679ffffffffffffffffffffffffffffffffffffffffffffffffffff16815250908060018154018082558091505060019003905f5260205f20015f909190919091505f820151815f015f6101000a81548165ffffffffffff021916908365ffffffffffff1602179055506020820151815f0160066101000a81548179ffffffffffffffffffffffffffffffffffffffffffffffffffff021916908379ffffffffffffffffffffffffffffffffffffffffffffffffffff16021790555050505f8492509250505b935093915050565b5f825f528160205f2001905092915050565b5f65ffffffffffff8016821115610b45576030826040517f6dfcc650000000000000000000000000000000000000000000000000000000008152600401610b3c92919061146a565b60405180910390fd5b819050919050565b5f5ffd5b5f73ffffffffffffffffffffffffffffffffffffffff82169050919050565b5f610b7a82610b51565b9050919050565b5f610b8b82610b70565b9050919050565b610b9b81610b81565b8114610ba5575f5ffd5b50565b5f81519050610bb681610b92565b92915050565b5f610bc682610b51565b9050919050565b5f610bd782610bbc565b9050919050565b610be781610bcd565b8114610bf1575f5ffd5b50565b5f81519050610c0281610bde565b92915050565b5f65ffffffffffff82169050919050565b610c2281610c08565b8114610c2c575f5ffd5b50565b5f81519050610c3d81610c19565b92915050565b5f63ffffffff82169050919050565b610c5b81610c43565b8114610c65575f5ffd5b50565b5f81519050610c7681610c52565b92915050565b5f819050919050565b610c8e81610c7c565b8114610c98575f5ffd5b50565b5f81519050610ca981610c85565b92915050565b5f5f5f5f5f5f60c08789031215610cc957610cc8610b4d565b5b5f610cd689828a01610ba8565b9650506020610ce789828a01610bf4565b9550506040610cf889828a01610c2f565b9450506060610d0989828a01610c68565b9350506080610d1a89828a01610c9b565b92505060a0610d2b89828a01610c9b565b9150509295509295509295565b5f81519050919050565b7f4e487b71000000000000000000000000000000000000000000000000000000005f52604160045260245ffd5b7f4e487b71000000000000000000000000000000000000000000000000000000005f52602260045260245ffd5b5f6002820490506001821680610db357607f821691505b602082108103610dc657610dc5610d6f565b5b50919050565b5f819050815f5260205f209050919050565b5f6020601f8301049050919050565b5f82821b905092915050565b5f60088302610e287fffffffffffffffffffffffffffffffffffffffffffffffffffffffffffffffff82610ded565b610e328683610ded565b95508019841693508086168417925050509392505050565b5f819050919050565b5f610e6d610e68610e6384610c7c565b610e4a565b610c7c565b9050919050565b5f819050919050565b610e8683610e53565b610e9a610e9282610e74565b848454610df9565b825550505050565b5f5f905090565b610eb1610ea2565b610ebc818484610e7d565b505050565b5f5b82811015610ee257610ed75f828401610ea9565b600181019050610ec3565b505050565b601f821115610f355782821115610f3457610f0181610dcc565b610f0a83610dde565b610f1385610dde565b6020861015610f20575f90505b808301610f2f82840382610ec1565b505050505b5b505050565b5f82821c905092915050565b5f610f555f1984600802610f3a565b1980831691505092915050565b5f610f6d8383610f46565b9150826002028217905092915050565b610f8682610d38565b67ffffffffffffffff811115610f9f57610f9e610d42565b5b610fa98254610d9c565b610fb4828285610ee7565b5f60209050601f831160018114610fe5575f8415610fd3578287015190505b610fdd8582610f62565b865550611044565b601f198416610ff386610dcc565b5f5b8281101561101a57848901518255600182019150602085019450602081019050610ff5565b868310156110375784890151611033601f891682610f46565b8355505b6001600288020188555050505b505050505050565b5f819050919050565b61105e8161104c565b82525050565b61106d81610c7c565b82525050565b61107c81610b70565b82525050565b5f60a0820190506110955f830188611055565b6110a26020830187611055565b6110af6040830186611055565b6110bc6060830185611064565b6110c96080830184611073565b9695505050505050565b5f6110ed6110e86110e384610c08565b610e4a565b610c7c565b9050919050565b6110fd816110d3565b82525050565b5f6040820190506111165f8301856110f4565b61112360208301846110f4565b9392505050565b5f819050919050565b5f61114d6111486111438461112a565b610e4a565b610c7c565b9050919050565b61115d81611133565b82525050565b5f6020820190506111765f830184611154565b92915050565b5f61119661119161118c84610c43565b610e4a565b610c7c565b9050919050565b6111a68161117c565b82525050565b5f6040820190506111bf5f83018561119d565b6111cc602083018461119d565b9392505050565b5f6040820190506111e65f830185611064565b6111f36020830184611064565b9392505050565b5f60408201905061120d5f830185611073565b61121a6020830184611073565b9392505050565b5f82825260208201905092915050565b8281835e5f83830152505050565b5f601f19601f8301169050919050565b5f61125982610d38565b6112638185611221565b9350611273818560208601611231565b61127c8161123f565b840191505092915050565b5f6020820190508181035f83015261129f818461124f565b905092915050565b5f81519050919050565b5f819050602082019050919050565b5f6112cb825161104c565b80915050919050565b5f6112de826112a7565b826112e8846112b1565b90506112f3816112c0565b925060208210156113335761132e7fffffffffffffffffffffffffffffffffffffffffffffffffffffffffffffffff83602003600802610ded565b831692505b5050919050565b5f6020828403121561134f5761134e610b4d565b5b5f61135c84828501610c2f565b91505092915050565b5f819050919050565b5f60ff82169050919050565b5f61139461138f61138a84611365565b610e4a565b61136e565b9050919050565b6113a48161137a565b82525050565b5f6040820190506113bd5f83018561139b565b6113ca6020830184611064565b9392505050565b7f4e487b71000000000000000000000000000000000000000000000000000000005f52601160045260245ffd5b5f61140882610c7c565b915061141383610c7c565b925082820390508181111561142b5761142a6113d1565b5b92915050565b5f819050919050565b5f61145461144f61144a84611431565b610e4a565b61136e565b9050919050565b6114648161143a565b82525050565b5f60408201905061147d5f83018561145b565b61148a6020830184611064565b9392505050565b60805160a05160c05160e051610100516101205161014051610160516170b66114ec5f395f611e3e01525f612b4d01525f612b1201525f614a7301525f614a5201525f61449501525f6144eb01525f61451401526170b65ff3fe6080604052600436106102b1575f3560e01c80637ecebe0011610174578063bc197c81116100db578063deaaa7cc11610094578063ece40cc11161006e578063ece40cc114610c44578063f23a6e6114610c6c578063f8ce560a14610ca8578063fc0c546a14610ce457610324565b8063deaaa7cc14610bb6578063e540d01d14610be0578063eb9019d414610c0857610324565b8063bc197c8114610a92578063c01f9e3714610ace578063c28bc2fa14610b0a578063c59057e414610b26578063d33219b414610b62578063dd4e2ba514610b8c57610324565b8063a7713a701161012d578063a7713a7014610962578063a890c9101461098c578063a8f8a668146109b4578063a9a95294146109f0578063ab58fb8e14610a2c578063b58131b014610a6857610324565b80637ecebe001461082a57806384b0196e146108665780638ff262e31461089657806391ddadf4146108d257806397c3d334146108fc5780639a802a6d1461092657610324565b806343859632116102185780635b8d0e0d116101d15780635b8d0e0d146106d65780635f398a141461071257806360c4247f1461074e578063790518871461078a5780637b3c71d3146107b25780637d5e81e2146107ee57610324565b80634385963214610590578063452115d6146105cc5780634bf5d7e914610608578063544ffc9c1461063257806354fd4d5014610670578063567813881461069a57610324565b8063160cbed71161026a578063160cbed7146104585780632656227d146104945780632d63f693146104c45780632fe3e261146105005780633932abb11461052a5780633e4f49e61461055457610324565b806301ffc9a71461032857806302a251a31461036457806306f3f9e61461038e57806306fdde03146103b6578063143489d0146103e0578063150b7a021461041c57610324565b36610324573073ffffffffffffffffffffffffffffffffffffffff166102d5610d0e565b73ffffffffffffffffffffffffffffffffffffffff1614610322576040517fe90a651e00000000000000000000000000000000000000000000000000000000815260040160405180910390fd5b005b5f5ffd5b348015610333575f5ffd5b5061034e60048036038101906103499190614d0f565b610d1c565b60405161035b9190614d54565b60405180910390f35b34801561036f575f5ffd5b50610378610e6e565b6040516103859190614d85565b60405180910390f35b348015610399575f5ffd5b506103b460048036038101906103af9190614dc8565b610e7c565b005b3480156103c1575f5ffd5b506103ca610e90565b6040516103d79190614e63565b60405180910390f35b3480156103eb575f5ffd5b5061040660048036038101906104019190614dc8565b610f20565b6040516104139190614ec2565b60405180910390f35b348015610427575f5ffd5b50610442600480360381019061043d9190615031565b610f5b565b60405161044f91906150c0565b60405180910390f35b348015610463575f5ffd5b5061047e6004803603810190610479919061536e565b610fda565b60405161048b9190614d85565b60405180910390f35b6104ae60048036038101906104a9919061536e565b61112a565b6040516104bb9190614d85565b60405180910390f35b3480156104cf575f5ffd5b506104ea60048036038101906104e59190614dc8565b611316565b6040516104f79190614d85565b60405180910390f35b34801561050b575f5ffd5b5061051461134c565b6040516105219190615435565b60405180910390f35b348015610535575f5ffd5b5061053e611370565b60405161054b9190614d85565b60405180910390f35b34801561055f575f5ffd5b5061057a60048036038101906105759190614dc8565b61137e565b60405161058791906154c1565b60405180910390f35b34801561059b575f5ffd5b506105b660048036038101906105b191906154da565b61138f565b6040516105c39190614d54565b60405180910390f35b3480156105d7575f5ffd5b506105f260048036038101906105ed919061536e565b6113f4565b6040516105ff9190614d85565b60405180910390f35b348015610613575f5ffd5b5061061c611474565b6040516106299190614e63565b60405180910390f35b34801561063d575f5ffd5b5061065860048036038101906106539190614dc8565b611506565b60405161066793929190615518565b60405180910390f35b34801561067b575f5ffd5b50610684611539565b6040516106919190614e63565b60405180910390f35b3480156106a5575f5ffd5b506106c060048036038101906106bb9190615583565b611576565b6040516106cd9190614d85565b60405180910390f35b3480156106e1575f5ffd5b506106fc60048036038101906106f7919061561a565b6115a5565b6040516107099190614d85565b60405180910390f35b34801561071d575f5ffd5b50610738600480360381019061073391906156fc565b611695565b6040516107459190614d85565b60405180910390f35b348015610759575f5ffd5b50610774600480360381019061076f9190614dc8565b6116fd565b6040516107819190614d85565b60405180910390f35b348015610795575f5ffd5b506107b060048036038101906107ab91906157d7565b611710565b005b3480156107bd575f5ffd5b506107d860048036038101906107d39190615802565b611724565b6040516107e59190614d85565b60405180910390f35b3480156107f9575f5ffd5b50610814600480360381019061080f9190615911565b61178a565b6040516108219190614d85565b60405180910390f35b348015610835575f5ffd5b50610850600480360381019061084b91906159e5565b611880565b60405161085d9190614d85565b60405180910390f35b348015610871575f5ffd5b5061087a6118c6565b60405161088d9796959493929190615b01565b60405180910390f35b3480156108a1575f5ffd5b506108bc60048036038101906108b79190615b83565b61196b565b6040516108c99190614d85565b60405180910390f35b3480156108dd575f5ffd5b506108e66119dd565b6040516108f39190615c12565b60405180910390f35b348015610907575f5ffd5b50610910611a68565b60405161091d9190614d85565b60405180910390f35b348015610931575f5ffd5b5061094c60048036038101906109479190615c2b565b611a70565b6040516109599190614d85565b60405180910390f35b34801561096d575f5ffd5b50610976611a85565b6040516109839190614d85565b60405180910390f35b348015610997575f5ffd5b506109b260048036038101906109ad9190615ce3565b611ab1565b005b3480156109bf575f5ffd5b506109da60048036038101906109d5919061536e565b611ac5565b6040516109e79190614d85565b60405180910390f35b3480156109fb575f5ffd5b50610a166004803603810190610a119190614dc8565b611adc565b604051610a239190614d54565b60405180910390f35b348015610a37575f5ffd5b50610a526004803603810190610a4d9190614dc8565b611aed565b604051610a5f9190614d85565b60405180910390f35b348015610a73575f5ffd5b50610a7c611b23565b604051610a899190614d85565b60405180910390f35b348015610a9d575f5ffd5b50610ab86004803603810190610ab39190615d0e565b611b31565b604051610ac591906150c0565b60405180910390f35b348015610ad9575f5ffd5b50610af46004803603810190610aef9190614dc8565b611bb1565b604051610b019190614d85565b60405180910390f35b610b246004803603810190610b1f9190615e2e565b611c1b565b005b348015610b31575f5ffd5b50610b4c6004803603810190610b47919061536e565b611ca4565b604051610b599190614d85565b60405180910390f35b348015610b6d575f5ffd5b50610b76611cde565b604051610b839190614ec2565b60405180910390f35b348015610b97575f5ffd5b50610ba0611d06565b604051610bad9190614e63565b60405180910390f35b348015610bc1575f5ffd5b50610bca611d43565b604051610bd79190615435565b60405180910390f35b348015610beb575f5ffd5b50610c066004803603810190610c019190615ed8565b611d67565b005b348015610c13575f5ffd5b50610c2e6004803603810190610c299190615f03565b611d7b565b604051610c3b9190614d85565b60405180910390f35b348015610c4f575f5ffd5b50610c6a6004803603810190610c659190614dc8565b611d96565b005b348015610c77575f5ffd5b50610c926004803603810190610c8d9190615f41565b611daa565b604051610c9f91906150c0565b60405180910390f35b348015610cb3575f5ffd5b50610cce6004803603810190610cc99190614dc8565b611e2a565b604051610cdb9190614d85565b60405180910390f35b348015610cef575f5ffd5b50610cf8611e3b565b604051610d05919061602f565b60405180910390f35b5f610d17611e62565b905090565b5f7fcdbdfcee000000000000000000000000000000000000000000000000000000007bffffffffffffffffffffffffffffffffffffffffffffffffffffffff1916827bffffffffffffffffffffffffffffffffffffffffffffffffffffffff19161480610def575063a8f8a66860e01b7fcdbdfcee00000000000000000000000000000000000000000000000000000000187bffffffffffffffffffffffffffffffffffffffffffffffffffffffff1916827bffffffffffffffffffffffffffffffffffffffffffffffffffffffff1916145b80610e5757507f4e2312e0000000000000000000000000000000000000000000000000000000007bffffffffffffffffffffffffffffffffffffffffffffffffffffffff1916827bffffffffffffffffffffffffffffffffffffffffffffffffffffffff1916145b80610e675750610e6682611e8a565b5b9050919050565b5f610e77611ef3565b905090565b610e84611f12565b610e8d81612007565b50565b606060038054610e9f90616075565b80601f0160208091040260200160405190810160405280929190818152602001828054610ecb90616075565b8015610f165780601f10610eed57610100808354040283529160200191610f16565b820191905f5260205f20905b815481529060010190602001808311610ef957829003601f168201915b5050505050905090565b5f60045f8381526020019081526020015f205f015f9054906101000a900473ffffffffffffffffffffffffffffffffffffffff169050919050565b5f3073ffffffffffffffffffffffffffffffffffffffff16610f7b610d0e565b73ffffffffffffffffffffffffffffffffffffffff1614610fc8576040517fe90a651e00000000000000000000000000000000000000000000000000000000815260040160405180910390fd5b63150b7a0260e01b9050949350505050565b5f5f610fe886868686611ac5565b90505f610ff482611adc565b90506110098261100460046120c9565b6120ed565b508061104c57816040517fd838bcb70000000000000000000000000000000000000000000000000000000081526004016110439190614d85565b60405180910390fd5b5f61105a8389898989612158565b90505f8165ffffffffffff16146110df578060045f8581526020019081526020015f206001015f6101000a81548165ffffffffffff021916908365ffffffffffff1602179055507f9a2e42fd6722813d69113e7d0079d3d940171428df7373df9c7f7617cfda289283826040516110d29291906160d5565b60405180910390a161111c565b826040517fab2d03110000000000000000000000000000000000000000000000000000000081526004016111139190614d85565b60405180910390fd5b829350505050949350505050565b5f5f61113886868686611ac5565b90505f61114482611adc565b9050611166826111618361115957600461115c565b60055b6120c9565b6120ed565b50600160045f8481526020019081526020015f205f01601e6101000a81548160ff0219169083151502179055503073ffffffffffffffffffffffffffffffffffffffff166111b2610d0e565b73ffffffffffffffffffffffffffffffffffffffff161461126b575f5f90505b8751811015611269573073ffffffffffffffffffffffffffffffffffffffff16888281518110611205576112046160fc565b5b602002602001015173ffffffffffffffffffffffffffffffffffffffff160361125e5761125d86828151811061123e5761123d6160fc565b5b602002602001015180519060200120600561217190919063ffffffff16565b5b8060010190506111d2565b505b6112788288888888612193565b3073ffffffffffffffffffffffffffffffffffffffff16611297610d0e565b73ffffffffffffffffffffffffffffffffffffffff16141580156112c257506112c060056121a7565b155b156112d2576112d16005612213565b5b7f712ae1383f79ac853f8d882153778e0260ef8f03b504e2866e0593e04d2b291f826040516113019190614d85565b60405180910390a18192505050949350505050565b5f60045f8381526020019081526020015f205f0160149054906101000a900465ffffffffffff1665ffffffffffff169050919050565b7f3e83946653575f9a39005e1545185629e92736b7528ab20ca3816f315424a81181565b5f611379612289565b905090565b5f611388826122ab565b9050919050565b5f60095f8481526020019081526020015f206003015f8373ffffffffffffffffffffffffffffffffffffffff1673ffffffffffffffffffffffffffffffffffffffff1681526020019081526020015f205f9054906101000a900460ff16905092915050565b5f5f61140286868686611ac5565b90505f61140d612460565b90506114198282612467565b61145c5781816040517f8fe5d8a9000000000000000000000000000000000000000000000000000000008152600401611453929190616129565b60405180910390fd5b611468878787876124de565b92505050949350505050565b606061147e611e3b565b73ffffffffffffffffffffffffffffffffffffffff16634bf5d7e96040518163ffffffff1660e01b81526004015f60405180830381865afa9250505080156114e857506040513d5f823e3d601f19601f820116820180604052508101906114e591906161be565b60015b6114fe576114f76119dd6124f5565b9050611503565b809150505b90565b5f5f5f5f60095f8681526020019081526020015f209050805f015481600101548260020154935093509350509193909250565b60606040518060400160405280600181526020017f3100000000000000000000000000000000000000000000000000000000000000815250905090565b5f5f611580612460565b905061159c84828560405180602001604052805f815250612512565b91505092915050565b5f6115f788888888888080601f0160208091040260200160405190810160405280939291908181526020018383808284375f81840152601f19601f820116905080830192505050505050508787612531565b61163857856040517f94ab6c0700000000000000000000000000000000000000000000000000000000815260040161162f9190614ec2565b60405180910390fd5b61168888878988888080601f0160208091040260200160405190810160405280939291908181526020018383808284375f81840152601f19601f82011690508083019250505050505050876125b9565b9050979650505050505050565b5f5f61169f612460565b90506116f187828888888080601f0160208091040260200160405190810160405280939291908181526020018383808284375f81840152601f19601f82011690508083019250505050505050876125b9565b91505095945050505050565b5f611709600a836126c3565b9050919050565b611718611f12565b6117218161272c565b50565b5f5f61172e612460565b905061177f86828787878080601f0160208091040260200160405190810160405280939291908181526020018383808284375f81840152601f19601f82011690508083019250505050505050612512565b915050949350505050565b5f5f611794612460565b90506117a0818461279f565b6117e157806040517fd9b395570000000000000000000000000000000000000000000000000000000081526004016117d89190614ec2565b60405180910390fd5b5f6117ea611b23565b90505f811115611867575f61181a8360016118036119dd565b61180d9190616232565b65ffffffffffff16611d7b565b905081811015611865578281836040517fc242ee1600000000000000000000000000000000000000000000000000000000815260040161185c9392919061626b565b60405180910390fd5b505b6118748787878786612885565b92505050949350505050565b5f60025f8373ffffffffffffffffffffffffffffffffffffffff1673ffffffffffffffffffffffffffffffffffffffff1681526020019081526020015f20549050919050565b5f6060805f5f5f60606118d7612b0a565b6118df612b44565b46305f5f1b5f67ffffffffffffffff8111156118fe576118fd614f0d565b5b60405190808252806020026020018201604052801561192c5781602001602082028036833780820191505090505b507f0f00000000000000000000000000000000000000000000000000000000000000959493929190965096509650965096509650965090919293949596565b5f61197885858585612b7f565b6119b957826040517f94ab6c070000000000000000000000000000000000000000000000000000000081526004016119b09190614ec2565b60405180910390fd5b6119d385848660405180602001604052805f815250612512565b9050949350505050565b5f6119e6611e3b565b73ffffffffffffffffffffffffffffffffffffffff166391ddadf46040518163ffffffff1660e01b8152600401602060405180830381865afa925050508015611a4d57506040513d601f19601f82011682018060405250810190611a4a91906162b4565b60015b611a6057611a59612bf3565b9050611a65565b809150505b90565b5f6064905090565b5f611a7c848484612c02565b90509392505050565b5f611a90600a612c8d565b79ffffffffffffffffffffffffffffffffffffffffffffffffffff16905090565b611ab9611f12565b611ac281612cef565b50565b5f611ad285858585611ca4565b9050949350505050565b5f611ae682612d8c565b9050919050565b5f60045f8381526020019081526020015f206001015f9054906101000a900465ffffffffffff1665ffffffffffff169050919050565b5f611b2c612d96565b905090565b5f3073ffffffffffffffffffffffffffffffffffffffff16611b51610d0e565b73ffffffffffffffffffffffffffffffffffffffff1614611b9e576040517fe90a651e00000000000000000000000000000000000000000000000000000000815260040160405180910390fd5b63bc197c8160e01b905095945050505050565b5f60045f8381526020019081526020015f205f01601a9054906101000a900463ffffffff1663ffffffff1660045f8481526020019081526020015f205f0160149054906101000a900465ffffffffffff16611c0c91906162df565b65ffffffffffff169050919050565b611c23611f12565b5f5f8573ffffffffffffffffffffffffffffffffffffffff16858585604051611c4d929190616346565b5f6040518083038185875af1925050503d805f8114611c87576040519150601f19603f3d011682016040523d82523d5f602084013e611c8c565b606091505b5091509150611c9b8282612d9f565b50505050505050565b5f84848484604051602001611cbc9493929190616522565b604051602081830303815290604052805190602001205f1c9050949350505050565b5f600b5f9054906101000a900473ffffffffffffffffffffffffffffffffffffffff16905090565b60606040518060400160405280602081526020017f737570706f72743d627261766f2671756f72756d3d666f722c6162737461696e815250905090565b7ff2aad550cf55f045cb27e9c559f9889fdfb6e6cdaa032301d6ea397784ae51d781565b611d6f611f12565b611d7881612dff565b50565b5f611d8e8383611d89612eb8565b612c02565b905092915050565b611d9e611f12565b611da781612ece565b50565b5f3073ffffffffffffffffffffffffffffffffffffffff16611dca610d0e565b73ffffffffffffffffffffffffffffffffffffffff1614611e17576040517fe90a651e00000000000000000000000000000000000000000000000000000000815260040160405180910390fd5b63f23a6e6160e01b905095945050505050565b5f611e3482612f13565b9050919050565b5f7f0000000000000000000000000000000000000000000000000000000000000000905090565b5f600b5f9054906101000a900473ffffffffffffffffffffffffffffffffffffffff16905090565b5f7f01ffc9a7000000000000000000000000000000000000000000000000000000007bffffffffffffffffffffffffffffffffffffffffffffffffffffffff1916827bffffffffffffffffffffffffffffffffffffffffffffffffffffffff1916149050919050565b5f600860069054906101000a900463ffffffff1663ffffffff16905090565b611f1a612460565b73ffffffffffffffffffffffffffffffffffffffff16611f38610d0e565b73ffffffffffffffffffffffffffffffffffffffff1614611f9757611f5b612460565b6040517f47096e47000000000000000000000000000000000000000000000000000000008152600401611f8e9190614ec2565b60405180910390fd5b3073ffffffffffffffffffffffffffffffffffffffff16611fb6610d0e565b73ffffffffffffffffffffffffffffffffffffffff1614612005575f611fda612fb3565b604051611fe8929190616346565b604051809103902090505b80611ffe6005612fbf565b03611ff357505b565b5f612010611a68565b9050808211156120595781816040517f243e544500000000000000000000000000000000000000000000000000000000815260040161205092919061657a565b60405180910390fd5b5f612062611a85565b905061208961206f6119dd565b61207885612fe9565b600a6130569092919063ffffffff16565b50507f0553476bf02ef2726e8ce5ced78d63e26e602e4a2257b1f559418e24b463399781846040516120bc92919061657a565b60405180910390a1505050565b5f8160078111156120dd576120dc61544e565b5b60ff166001901b5f1b9050919050565b5f5f6120f88461137e565b90505f5f1b83612107836120c9565b160361214e578381846040517f31b75e4d000000000000000000000000000000000000000000000000000000008152600401612145939291906165a1565b60405180910390fd5b8091505092915050565b5f6121668686868686613071565b905095945050505050565b5f61217c8383613277565b90508061218e5761218d6041613375565b5b505050565b6121a08585858585613386565b5050505050565b5f815f015f9054906101000a90046fffffffffffffffffffffffffffffffff166fffffffffffffffffffffffffffffffff16825f0160109054906101000a90046fffffffffffffffffffffffffffffffff166fffffffffffffffffffffffffffffffff16149050919050565b5f815f015f6101000a8154816fffffffffffffffffffffffffffffffff02191690836fffffffffffffffffffffffffffffffff1602179055505f815f0160106101000a8154816fffffffffffffffffffffffffffffffff02191690836fffffffffffffffffffffffffffffffff16021790555050565b5f60085f9054906101000a900465ffffffffffff1665ffffffffffff16905090565b5f5f6122b68361343a565b9050600560078111156122cc576122cb61544e565b5b8160078111156122df576122de61544e565b5b146122ed578091505061245b565b5f600c5f8581526020019081526020015f20549050600b5f9054906101000a900473ffffffffffffffffffffffffffffffffffffffff1673ffffffffffffffffffffffffffffffffffffffff1663584b153e826040518263ffffffff1660e01b815260040161235c9190615435565b602060405180830381865afa158015612377573d5f5f3e3d5ffd5b505050506040513d601f19601f8201168201806040525081019061239b9190616600565b156123ab5760059250505061245b565b600b5f9054906101000a900473ffffffffffffffffffffffffffffffffffffffff1673ffffffffffffffffffffffffffffffffffffffff16632ab0f529826040518263ffffffff1660e01b81526004016124059190615435565b602060405180830381865afa158015612420573d5f5f3e3d5ffd5b505050506040513d601f19601f820116820180604052508101906124449190616600565b156124545760079250505061245b565b6002925050505b919050565b5f33905090565b5f5f600781111561247b5761247a61544e565b5b6124848461137e565b60078111156124965761249561544e565b5b1480156124d657506124a783610f20565b73ffffffffffffffffffffffffffffffffffffffff168273ffffffffffffffffffffffffffffffffffffffff16145b905092915050565b5f6124eb85858585613591565b9050949350505050565b606061250b6125068363ffffffff16565b613668565b9050919050565b5f61252785858585612522612eb8565b6125b9565b9050949350505050565b5f6125ad856125a77f3e83946653575f9a39005e1545185629e92736b7528ab20ca3816f315424a8118a8a8a6125668c6136f7565b8b805190602001208b8051906020012060405160200161258c979695949392919061663a565b6040516020818303038152906040528051906020012061374a565b84613763565b90509695505050505050565b5f6125cd866125c860016120c9565b6120ed565b505f6125e2866125dc89611316565b85612c02565b90505f6125f2888888858861380f565b90505f845103612655578673ffffffffffffffffffffffffffffffffffffffff167fb8e138887d0aa13bab447e82de9d5c1777041ecd21ca36ba824ff1e6c07ddda48988848960405161264894939291906166a7565b60405180910390a26126ac565b8673ffffffffffffffffffffffffffffffffffffffff167fe2babfbac5889a709b63bb7f598b324e08bc5a4fb9ec647fb3cbc9ec07eb871289888489896040516126a3959493929190616739565b60405180910390a25b6126b588613a04565b809250505095945050505050565b5f5f5f6126cf85613a07565b9250925050838265ffffffffffff161115612704576126ff6126f085613a96565b86613aef90919063ffffffff16565b612706565b805b79ffffffffffffffffffffffffffffffffffffffffffffffffffff169250505092915050565b7fc565b045403dc03c2eea82b81a0465edad9e2e7fc4d97e11421c209da93d7a9360085f9054906101000a900465ffffffffffff1682604051612770929190616798565b60405180910390a18060085f6101000a81548165ffffffffffff021916908365ffffffffffff16021790555050565b5f5f8251905060348110156127b857600191505061287f565b5f6127c68460348403613bdf565b90507f2370726f706f7365723d0000000000000000000000000000000000000000000075ffffffffffffffffffffffffffffffffffffffffffff19168175ffffffffffffffffffffffffffffffffffffffffffff19161461282c5760019250505061287f565b5f5f61283c86602a860386613bef565b9150915081158061287857508673ffffffffffffffffffffffffffffffffffffffff168173ffffffffffffffffffffffffffffffffffffffff16145b9450505050505b92915050565b5f6128998686868680519060200120611ac5565b9050845186511415806128ae57508351865114155b806128b957505f8651145b15612902578551845186516040517f447b05d00000000000000000000000000000000000000000000000000000000081526004016128f993929190615518565b60405180910390fd5b5f60045f8381526020019081526020015f205f0160149054906101000a900465ffffffffffff1665ffffffffffff161461298157806129408261137e565b5f5f1b6040517f31b75e4d000000000000000000000000000000000000000000000000000000008152600401612978939291906165a1565b60405180910390fd5b5f61298a611370565b6129926119dd565b65ffffffffffff166129a491906167bf565b90505f6129af610e6e565b90505f60045f8581526020019081526020015f20905084815f015f6101000a81548173ffffffffffffffffffffffffffffffffffffffff021916908373ffffffffffffffffffffffffffffffffffffffff160217905550612a0f83613a96565b815f0160146101000a81548165ffffffffffff021916908365ffffffffffff160217905550612a3d82613d00565b815f01601a6101000a81548163ffffffff021916908363ffffffff1602179055507f7d84a6263ae0d98d3329bd7b46bb4e8d6f98cd35a7adb45c274c8b7fd5ebd5e084868b8b8d5167ffffffffffffffff811115612a9e57612a9d614f0d565b5b604051908082528060200260200182016040528015612ad157816020015b6060815260200190600190039081612abc5790505b508c89898b612ae091906167bf565b8e604051612af6999897969594939291906168f5565b60405180910390a150505095945050505050565b6060612b3f5f7f0000000000000000000000000000000000000000000000000000000000000000613d5790919063ffffffff16565b905090565b6060612b7a60017f0000000000000000000000000000000000000000000000000000000000000000613d5790919063ffffffff16565b905090565b5f612be983612be37ff2aad550cf55f045cb27e9c559f9889fdfb6e6cdaa032301d6ea397784ae51d7888888612bb48a6136f7565b604051602001612bc89594939291906169a3565b6040516020818303038152906040528051906020012061374a565b84613763565b9050949350505050565b5f612bfd43613a96565b905090565b5f612c0b611e3b565b73ffffffffffffffffffffffffffffffffffffffff16633a46b1a885856040518363ffffffff1660e01b8152600401612c459291906169f4565b602060405180830381865afa158015612c60573d5f5f3e3d5ffd5b505050506040513d601f19601f82011682018060405250810190612c849190616a2f565b90509392505050565b5f5f825f018054905090505f8114612ce557612cb7835f01600183612cb29190616a5a565b613e04565b5f0160069054906101000a900479ffffffffffffffffffffffffffffffffffffffffffffffffffff16612ce7565b5f5b915050919050565b7f08f74ea46ef7894f65eabfb5e6e695de773a000b47c529ab559178069b226401600b5f9054906101000a900473ffffffffffffffffffffffffffffffffffffffff1682604051612d41929190616a8d565b60405180910390a180600b5f6101000a81548173ffffffffffffffffffffffffffffffffffffffff021916908373ffffffffffffffffffffffffffffffffffffffff16021790555050565b5f60019050919050565b5f600754905090565b60608215612daf57819050612df9565b5f82511115612dc657612dc182613e16565b612df8565b6040517fd6bda27500000000000000000000000000000000000000000000000000000000815260040160405180910390fd5b5b92915050565b5f8163ffffffff1603612e49575f6040517ff1cfbf05000000000000000000000000000000000000000000000000000000008152600401612e409190616aed565b60405180910390fd5b7f7e3f7f0708a84de9203036abaa450dccc85ad5ff52f78c170f3edb55cf5e8828600860069054906101000a900463ffffffff1682604051612e8c929190616b36565b60405180910390a180600860066101000a81548163ffffffff021916908363ffffffff16021790555050565b606060405180602001604052805f815250905090565b7fccb45da8d5717e6c4544694297c4ba5cf151d455c9bb0ed4fc7a38411bc0546160075482604051612f0192919061657a565b60405180910390a18060078190555050565b5f612fac612f1f611e3b565b73ffffffffffffffffffffffffffffffffffffffff16638e539e8c846040518263ffffffff1660e01b8152600401612f579190614d85565b602060405180830381865afa158015612f72573d5f5f3e3d5ffd5b505050506040513d601f19601f82011682018060405250810190612f969190616a2f565b612f9f846116fd565b612fa7611a68565b613e1e565b9050919050565b365f5f36915091509091565b5f5f5f612fcb84613efd565b9150915081612fdf57612fde6031613375565b5b8092505050919050565b5f79ffffffffffffffffffffffffffffffffffffffffffffffffffff801682111561304e5760d0826040517f6dfcc650000000000000000000000000000000000000000000000000000000008152600401613045929190616b96565b60405180910390fd5b819050919050565b5f5f613065855f018585614034565b91509150935093915050565b5f5f600b5f9054906101000a900473ffffffffffffffffffffffffffffffffffffffff1673ffffffffffffffffffffffffffffffffffffffff1663f27a0c926040518163ffffffff1660e01b8152600401602060405180830381865afa1580156130dd573d5f5f3e3d5ffd5b505050506040513d601f19601f820116820180604052508101906131019190616a2f565b90505f61310d84614328565b9050600b5f9054906101000a900473ffffffffffffffffffffffffffffffffffffffff1673ffffffffffffffffffffffffffffffffffffffff1663b1c5f4278888885f866040518663ffffffff1660e01b8152600401613171959493929190616bf8565b602060405180830381865afa15801561318c573d5f5f3e3d5ffd5b505050506040513d601f19601f820116820180604052508101906131b09190616c72565b600c5f8a81526020019081526020015f2081905550600b5f9054906101000a900473ffffffffffffffffffffffffffffffffffffffff1673ffffffffffffffffffffffffffffffffffffffff16638f2a0bb08888885f86886040518763ffffffff1660e01b815260040161322996959493929190616c9d565b5f604051808303815f87803b158015613240575f5ffd5b505af1158015613252573d5f5f3e3d5ffd5b5050505061326a824261326591906167bf565b613a96565b9250505095945050505050565b5f5f835f0160109054906101000a90046fffffffffffffffffffffffffffffffff169050835f015f9054906101000a90046fffffffffffffffffffffffffffffffff166fffffffffffffffffffffffffffffffff16600182016fffffffffffffffffffffffffffffffff16036132f0575f91505061336f565b82846001015f836fffffffffffffffffffffffffffffffff166fffffffffffffffffffffffffffffffff1681526020019081526020015f208190555060018101845f0160106101000a8154816fffffffffffffffffffffffffffffffff02191690836fffffffffffffffffffffffffffffffff16021790555060019150505b92915050565b634e487b715f52806020526024601cfd5b600b5f9054906101000a900473ffffffffffffffffffffffffffffffffffffffff1673ffffffffffffffffffffffffffffffffffffffff1663e38335e5348686865f6133d188614328565b6040518763ffffffff1660e01b81526004016133f1959493929190616bf8565b5f604051808303818588803b158015613408575f5ffd5b505af115801561341a573d5f5f3e3d5ffd5b5050505050600c5f8681526020019081526020015f205f90555050505050565b5f5f60045f8481526020019081526020015f2090505f815f01601e9054906101000a900460ff1690505f825f01601f9054906101000a900460ff1690508115613489576007935050505061358c565b801561349b576002935050505061358c565b5f6134a586611316565b90505f81036134eb57856040517f6ad060750000000000000000000000000000000000000000000000000000000081526004016134e29190614d85565b60405180910390fd5b5f6134f46119dd565b65ffffffffffff169050808210613512575f9550505050505061358c565b5f61351c88611bb1565b9050818110613534576001965050505050505061358c565b61353d88614345565b158061354f575061354d88614389565b155b15613563576003965050505050505061358c565b5f61356d89611aed565b03613581576004965050505050505061358c565b600596505050505050505b919050565b5f5f61359f868686866143b0565b90505f600c5f8381526020019081526020015f205490505f5f1b811461365b57600b5f9054906101000a900473ffffffffffffffffffffffffffffffffffffffff1673ffffffffffffffffffffffffffffffffffffffff1663c4d252f5826040518263ffffffff1660e01b81526004016136199190615435565b5f604051808303815f87803b158015613630575f5ffd5b505af1158015613642573d5f5f3e3d5ffd5b50505050600c5f8381526020019081526020015f205f90555b8192505050949350505050565b6060613672612bf3565b65ffffffffffff168265ffffffffffff16146136ba576040517f6ff0714000000000000000000000000000000000000000000000000000000000815260040160405180910390fd5b6040518060400160405280601d81526020017f6d6f64653d626c6f636b6e756d6265722666726f6d3d64656661756c740000008152509050919050565b5f60025f8373ffffffffffffffffffffffffffffffffffffffff1673ffffffffffffffffffffffffffffffffffffffff1681526020019081526020015f205f815480929190600101919050559050919050565b5f61375c613756614492565b83614548565b9050919050565b5f5f8473ffffffffffffffffffffffffffffffffffffffff163b036137fa575f5f61378e8585614588565b50915091505f60038111156137a6576137a561544e565b5b8160038111156137b9576137b861544e565b5b1480156137f157508573ffffffffffffffffffffffffffffffffffffffff168273ffffffffffffffffffffffffffffffffffffffff16145b92505050613808565b6138058484846145dd565b90505b9392505050565b5f5f60095f8881526020019081526020015f209050806003015f8773ffffffffffffffffffffffffffffffffffffffff1673ffffffffffffffffffffffffffffffffffffffff1681526020019081526020015f205f9054906101000a900460ff16156138b257856040517f71c6af490000000000000000000000000000000000000000000000000000000081526004016138a99190614ec2565b60405180910390fd5b6001816003015f8873ffffffffffffffffffffffffffffffffffffffff1673ffffffffffffffffffffffffffffffffffffffff1681526020019081526020015f205f6101000a81548160ff0219169083151502179055505f600281111561391c5761391b61544e565b5b60ff168560ff16036139465783815f015f82825461393a91906167bf565b925050819055506139f7565b6001600281111561395a5761395961544e565b5b60ff168560ff16036139855783816001015f82825461397991906167bf565b925050819055506139f6565b6002808111156139985761399761544e565b5b60ff168560ff16036139c35783816002015f8282546139b791906167bf565b925050819055506139f5565b6040517f06b337c200000000000000000000000000000000000000000000000000000000815260040160405180910390fd5b5b5b8391505095945050505050565b50565b5f5f5f5f845f018054905090505f8103613a2a575f5f5f93509350935050613a8f565b5f613a43865f01600184613a3e9190616a5a565b613e04565b90506001815f015f9054906101000a900465ffffffffffff16825f0160069054906101000a900479ffffffffffffffffffffffffffffffffffffffffffffffffffff1694509450945050505b9193909250565b5f65ffffffffffff8016821115613ae7576030826040517f6dfcc650000000000000000000000000000000000000000000000000000000008152600401613ade929190616d4a565b60405180910390fd5b819050919050565b5f5f835f018054905090505f5f90505f8290506005831115613b73575f613b158461462e565b84613b209190616a5a565b9050613b2e875f0182613e04565b5f015f9054906101000a900465ffffffffffff1665ffffffffffff168665ffffffffffff161015613b6157809150613b71565b600181613b6e91906167bf565b92505b505b5f613b82875f018785856147c8565b90505f8114613bd157613ba3875f01600183613b9e9190616a5a565b613e04565b5f0160069054906101000a900479ffffffffffffffffffffffffffffffffffffffffffffffffffff16613bd3565b5f5b94505050505092915050565b5f81602084010151905092915050565b5f5f8451831180613bff57508284115b15613c0f575f5f91509150613cf8565b5f600185613c1d91906167bf565b84118015613c9557507f30780000000000000000000000000000000000000000000000000000000000007dffffffffffffffffffffffffffffffffffffffffffffffffffffffffffff1916613c72878761483d565b7dffffffffffffffffffffffffffffffffffffffffffffffffffffffffffff1916145b90505f6002613ca583151561484d565b613caf9190616d71565b6028613cbb91906167bf565b9050808686613cca9190616a5a565b03613cef575f5f613cdc898989614858565b9150915081819550955050505050613cf8565b5f5f9350935050505b935093915050565b5f63ffffffff8016821115613d4f576020826040517f6dfcc650000000000000000000000000000000000000000000000000000000008152600401613d46929190616deb565b60405180910390fd5b819050919050565b606060ff5f1b8314613d7357613d6c83614986565b9050613dfe565b818054613d7f90616075565b80601f0160208091040260200160405190810160405280929190818152602001828054613dab90616075565b8015613df65780601f10613dcd57610100808354040283529160200191613df6565b820191905f5260205f20905b815481529060010190602001808311613dd957829003601f168201915b505050505090505b92915050565b5f825f528160205f2001905092915050565b805160208201fd5b5f5f5f613e2b86866149f8565b915091505f8203613e5057838181613e4657613e45616e12565b5b0492505050613ef6565b818411613e6f57613e6e613e695f861460126011614a15565b613375565b5b5f8486880990508181118303925080820391505f855f038616905080860495508083049250600181825f0304019050808402831792505f600287600302189050808702600203810290508087026002038102905080870260020381029050808702600203810290508087026002038102905080870260020381029050808402955050505050505b9392505050565b5f5f5f835f015f9054906101000a90046fffffffffffffffffffffffffffffffff169050835f0160109054906101000a90046fffffffffffffffffffffffffffffffff166fffffffffffffffffffffffffffffffff16816fffffffffffffffffffffffffffffffff1603613f79575f5f5f1b925092505061402f565b60019250836001015f826fffffffffffffffffffffffffffffffff166fffffffffffffffffffffffffffffffff1681526020019081526020015f20549150836001015f826fffffffffffffffffffffffffffffffff166fffffffffffffffffffffffffffffffff1681526020019081526020015f205f905560018101845f015f6101000a8154816fffffffffffffffffffffffffffffffff02191690836fffffffffffffffffffffffffffffffff160217905550505b915091565b5f5f5f858054905090505f811115614240575f61405d876001846140589190616a5a565b613e04565b90505f815f015f9054906101000a900465ffffffffffff1690505f825f0160069054906101000a900479ffffffffffffffffffffffffffffffffffffffffffffffffffff1690508765ffffffffffff168265ffffffffffff1611156140ee576040517f2520601d00000000000000000000000000000000000000000000000000000000815260040160405180910390fd5b8765ffffffffffff168265ffffffffffff16036141585786835f0160066101000a81548179ffffffffffffffffffffffffffffffffffffffffffffffffffff021916908379ffffffffffffffffffffffffffffffffffffffffffffffffffff160217905550614231565b8860405180604001604052808a65ffffffffffff1681526020018979ffffffffffffffffffffffffffffffffffffffffffffffffffff16815250908060018154018082558091505060019003905f5260205f20015f909190919091505f820151815f015f6101000a81548165ffffffffffff021916908365ffffffffffff1602179055506020820151815f0160066101000a81548179ffffffffffffffffffffffffffffffffffffffffffffffffffff021916908379ffffffffffffffffffffffffffffffffffffffffffffffffffff16021790555050505b80879550955050505050614320565b8560405180604001604052808765ffffffffffff1681526020018679ffffffffffffffffffffffffffffffffffffffffffffffffffff16815250908060018154018082558091505060019003905f5260205f20015f909190919091505f820151815f015f6101000a81548165ffffffffffff021916908365ffffffffffff1602179055506020820151815f0160066101000a81548179ffffffffffffffffffffffffffffffffffffffffffffffffffff021916908379ffffffffffffffffffffffffffffffffffffffffffffffffffff16021790555050505f8492509250505b935093915050565b5f813060601b6bffffffffffffffffffffffff1916189050919050565b5f5f60095f8481526020019081526020015f2090508060020154816001015461436e91906167bf565b61437f61437a85611316565b611e2a565b1115915050919050565b5f5f60095f8481526020019081526020015f209050805f0154816001015411915050919050565b5f5f6143be86868686611ac5565b9050614422816143ce60076120c9565b6143d860066120c9565b6143e260026120c9565b6001806007808111156143f8576143f761544e565b5b6144029190616e3f565b600261440e9190616fa2565b6144189190616a5a565b5f1b1818186120ed565b50600160045f8381526020019081526020015f205f01601f6101000a81548160ff0219169083151502179055507f789cf55be980739dad1d0699b93b58e806b51c9d96619bfa8fe0a28abaa7b30c8160405161447e9190614d85565b60405180910390a180915050949350505050565b5f7f000000000000000000000000000000000000000000000000000000000000000073ffffffffffffffffffffffffffffffffffffffff163073ffffffffffffffffffffffffffffffffffffffff1614801561450d57507f000000000000000000000000000000000000000000000000000000000000000046145b1561453a577f00000000000000000000000000000000000000000000000000000000000000009050614545565b614542614a2e565b90505b90565b5f6040517f190100000000000000000000000000000000000000000000000000000000000081528360028201528260228201526042812091505092915050565b5f5f5f60418451036145c8575f5f5f602087015192506040870151915060608701515f1a90506145ba88828585614ac3565b9550955095505050506145d6565b5f600285515f1b9250925092505b9250925092565b5f5f631626ba7e60e01b90505f83519050604051828152856004820152604060248201526020820185604483015e60205f60648401838a5afa835f5114601f3d111681169450505050509392505050565b5f6001821161463f578190506147c3565b5f8290505f60019050700100000000000000000000000000000000821061466f57608082901c9150604081901b90505b68010000000000000000821061468e57604082901c9150602081901b90505b64010000000082106146a957602082901c9150601081901b90505b6201000082106146c257601082901c9150600881901b90505b61010082106146da57600882901c9150600481901b90505b601082106146f157600482901c9150600281901b90505b6004821061470157600181901b90505b600181600302901c9050600181858161471d5761471c616e12565b5b048201901c9050600181858161473657614735616e12565b5b048201901c9050600181858161474f5761474e616e12565b5b048201901c9050600181858161476857614767616e12565b5b048201901c9050600181858161478157614780616e12565b5b048201901c9050600181858161479a57614799616e12565b5b048201901c90506147bc8185816147b4576147b3616e12565b5b04821161484d565b8103925050505b919050565b5f5b81831015614832575f6147dd8484614baa565b90508465ffffffffffff166147f28783613e04565b5f015f9054906101000a900465ffffffffffff1665ffffffffffff16111561481c5780925061482c565b60018161482991906167bf565b93505b506147ca565b819050949350505050565b5f81602084010151905092915050565b5f8115159050919050565b5f5f5f8590505f60018661486c91906167bf565b851180156148e457507f30780000000000000000000000000000000000000000000000000000000000007dffffffffffffffffffffffffffffffffffffffffffffffffffffffffffff19166148c1838861483d565b7dffffffffffffffffffffffffffffffffffffffffffffffffffffffffffff1916145b90505f60026148f483151561484d565b6148fe9190616d71565b90505f5f90505f828961491191906167bf565b90505b87811015614971575f61492f61492a878461483d565b614bcb565b9050600f8160ff16111561494e575f5f9750975050505050505061497e565b60108361495b9190616d71565b92508060ff168301925050806001019050614914565b5060018195509550505050505b935093915050565b60605f61499283614c5b565b90505f602067ffffffffffffffff8111156149b0576149af614f0d565b5b6040519080825280601f01601f1916602001820160405280156149e25781602001600182028036833780820191505090505b5090508181528360208201528092505050919050565b5f5f5f198385098385029150818110828203039250509250929050565b5f614a1f8461484d565b82841802821890509392505050565b5f7f8b73c3c69bb8fe3d512ecc4cf759cc79239f7b179b0ffacaa9a75d522b39400f7f00000000000000000000000000000000000000000000000000000000000000007f00000000000000000000000000000000000000000000000000000000000000004630604051602001614aa8959493929190616fec565b60405160208183030381529060405280519060200120905090565b5f5f5f7f7fffffffffffffffffffffffffffffff5d576e7357a4501ddfe92f46681b20a0845f1c1115614aff575f600385925092509250614ba0565b5f6001888888886040515f8152602001604052604051614b22949392919061703d565b6020604051602081039080840390855afa158015614b42573d5f5f3e3d5ffd5b5050506020604051035190505f73ffffffffffffffffffffffffffffffffffffffff168173ffffffffffffffffffffffffffffffffffffffff1603614b93575f60015f5f1b93509350935050614ba0565b805f5f5f1b935093509350505b9450945094915050565b5f600282841881614bbe57614bbd616e12565b5b0482841601905092915050565b5f5f8260f81c9050602f8160ff16118015614be95750603a8160ff16105b15614bf957603081039050614c51565b60608160ff16118015614c0f575060678160ff16105b15614c1f57605781039050614c50565b60408160ff16118015614c35575060478160ff16105b15614c4557603781039050614c4f565b60ff915050614c56565b5b5b809150505b919050565b5f5f60ff835f1c169050601f811115614ca0576040517fb3512b0c00000000000000000000000000000000000000000000000000000000815260040160405180910390fd5b80915050919050565b5f604051905090565b5f5ffd5b5f5ffd5b5f7fffffffff0000000000000000000000000000000000000000000000000000000082169050919050565b614cee81614cba565b8114614cf8575f5ffd5b50565b5f81359050614d0981614ce5565b92915050565b5f60208284031215614d2457614d23614cb2565b5b5f614d3184828501614cfb565b91505092915050565b5f8115159050919050565b614d4e81614d3a565b82525050565b5f602082019050614d675f830184614d45565b92915050565b5f819050919050565b614d7f81614d6d565b82525050565b5f602082019050614d985f830184614d76565b92915050565b614da781614d6d565b8114614db1575f5ffd5b50565b5f81359050614dc281614d9e565b92915050565b5f60208284031215614ddd57614ddc614cb2565b5b5f614dea84828501614db4565b91505092915050565b5f81519050919050565b5f82825260208201905092915050565b8281835e5f83830152505050565b5f601f19601f8301169050919050565b5f614e3582614df3565b614e3f8185614dfd565b9350614e4f818560208601614e0d565b614e5881614e1b565b840191505092915050565b5f6020820190508181035f830152614e7b8184614e2b565b905092915050565b5f73ffffffffffffffffffffffffffffffffffffffff82169050919050565b5f614eac82614e83565b9050919050565b614ebc81614ea2565b82525050565b5f602082019050614ed55f830184614eb3565b92915050565b614ee481614ea2565b8114614eee575f5ffd5b50565b5f81359050614eff81614edb565b92915050565b5f5ffd5b5f5ffd5b7f4e487b71000000000000000000000000000000000000000000000000000000005f52604160045260245ffd5b614f4382614e1b565b810181811067ffffffffffffffff82111715614f6257614f61614f0d565b5b80604052505050565b5f614f74614ca9565b9050614f808282614f3a565b919050565b5f67ffffffffffffffff821115614f9f57614f9e614f0d565b5b614fa882614e1b565b9050602081019050919050565b828183375f83830152505050565b5f614fd5614fd084614f85565b614f6b565b905082815260208101848484011115614ff157614ff0614f09565b5b614ffc848285614fb5565b509392505050565b5f82601f83011261501857615017614f05565b5b8135615028848260208601614fc3565b91505092915050565b5f5f5f5f6080858703121561504957615048614cb2565b5b5f61505687828801614ef1565b945050602061506787828801614ef1565b935050604061507887828801614db4565b925050606085013567ffffffffffffffff81111561509957615098614cb6565b5b6150a587828801615004565b91505092959194509250565b6150ba81614cba565b82525050565b5f6020820190506150d35f8301846150b1565b92915050565b5f67ffffffffffffffff8211156150f3576150f2614f0d565b5b602082029050602081019050919050565b5f5ffd5b5f61511a615115846150d9565b614f6b565b9050808382526020820190506020840283018581111561513d5761513c615104565b5b835b8181101561516657806151528882614ef1565b84526020840193505060208101905061513f565b5050509392505050565b5f82601f83011261518457615183614f05565b5b8135615194848260208601615108565b91505092915050565b5f67ffffffffffffffff8211156151b7576151b6614f0d565b5b602082029050602081019050919050565b5f6151da6151d58461519d565b614f6b565b905080838252602082019050602084028301858111156151fd576151fc615104565b5b835b8181101561522657806152128882614db4565b8452602084019350506020810190506151ff565b5050509392505050565b5f82601f83011261524457615243614f05565b5b81356152548482602086016151c8565b91505092915050565b5f67ffffffffffffffff82111561527757615276614f0d565b5b602082029050602081019050919050565b5f61529a6152958461525d565b614f6b565b905080838252602082019050602084028301858111156152bd576152bc615104565b5b835b8181101561530457803567ffffffffffffffff8111156152e2576152e1614f05565b5b8086016152ef8982615004565b855260208501945050506020810190506152bf565b5050509392505050565b5f82601f83011261532257615321614f05565b5b8135615332848260208601615288565b91505092915050565b5f819050919050565b61534d8161533b565b8114615357575f5ffd5b50565b5f8135905061536881615344565b92915050565b5f5f5f5f6080858703121561538657615385614cb2565b5b5f85013567ffffffffffffffff8111156153a3576153a2614cb6565b5b6153af87828801615170565b945050602085013567ffffffffffffffff8111156153d0576153cf614cb6565b5b6153dc87828801615230565b935050604085013567ffffffffffffffff8111156153fd576153fc614cb6565b5b6154098782880161530e565b925050606061541a8782880161535a565b91505092959194509250565b61542f8161533b565b82525050565b5f6020820190506154485f830184615426565b92915050565b7f4e487b71000000000000000000000000000000000000000000000000000000005f52602160045260245ffd5b6008811061548c5761548b61544e565b5b50565b5f81905061549c8261547b565b919050565b5f6154ab8261548f565b9050919050565b6154bb816154a1565b82525050565b5f6020820190506154d45f8301846154b2565b92915050565b5f5f604083850312156154f0576154ef614cb2565b5b5f6154fd85828601614db4565b925050602061550e85828601614ef1565b9150509250929050565b5f60608201905061552b5f830186614d76565b6155386020830185614d76565b6155456040830184614d76565b949350505050565b5f60ff82169050919050565b6155628161554d565b811461556c575f5ffd5b50565b5f8135905061557d81615559565b92915050565b5f5f6040838503121561559957615598614cb2565b5b5f6155a685828601614db4565b92505060206155b78582860161556f565b9150509250929050565b5f5ffd5b5f5f83601f8401126155da576155d9614f05565b5b8235905067ffffffffffffffff8111156155f7576155f66155c1565b5b60208301915083600182028301111561561357615612615104565b5b9250929050565b5f5f5f5f5f5f5f60c0888a03121561563557615634614cb2565b5b5f6156428a828b01614db4565b97505060206156538a828b0161556f565b96505060406156648a828b01614ef1565b955050606088013567ffffffffffffffff81111561568557615684614cb6565b5b6156918a828b016155c5565b9450945050608088013567ffffffffffffffff8111156156b4576156b3614cb6565b5b6156c08a828b01615004565b92505060a088013567ffffffffffffffff8111156156e1576156e0614cb6565b5b6156ed8a828b01615004565b91505092959891949750929550565b5f5f5f5f5f6080868803121561571557615714614cb2565b5b5f61572288828901614db4565b95505060206157338882890161556f565b945050604086013567ffffffffffffffff81111561575457615753614cb6565b5b615760888289016155c5565b9350935050606086013567ffffffffffffffff81111561578357615782614cb6565b5b61578f88828901615004565b9150509295509295909350565b5f65ffffffffffff82169050919050565b6157b68161579c565b81146157c0575f5ffd5b50565b5f813590506157d1816157ad565b92915050565b5f602082840312156157ec576157eb614cb2565b5b5f6157f9848285016157c3565b91505092915050565b5f5f5f5f6060858703121561581a57615819614cb2565b5b5f61582787828801614db4565b94505060206158388782880161556f565b935050604085013567ffffffffffffffff81111561585957615858614cb6565b5b615865878288016155c5565b925092505092959194509250565b5f67ffffffffffffffff82111561588d5761588c614f0d565b5b61589682614e1b565b9050602081019050919050565b5f6158b56158b084615873565b614f6b565b9050828152602081018484840111156158d1576158d0614f09565b5b6158dc848285614fb5565b509392505050565b5f82601f8301126158f8576158f7614f05565b5b81356159088482602086016158a3565b91505092915050565b5f5f5f5f6080858703121561592957615928614cb2565b5b5f85013567ffffffffffffffff81111561594657615945614cb6565b5b61595287828801615170565b945050602085013567ffffffffffffffff81111561597357615972614cb6565b5b61597f87828801615230565b935050604085013567ffffffffffffffff8111156159a05761599f614cb6565b5b6159ac8782880161530e565b925050606085013567ffffffffffffffff8111156159cd576159cc614cb6565b5b6159d9878288016158e4565b91505092959194509250565b5f602082840312156159fa576159f9614cb2565b5b5f615a0784828501614ef1565b91505092915050565b5f7fff0000000000000000000000000000000000000000000000000000000000000082169050919050565b615a4481615a10565b82525050565b5f81519050919050565b5f82825260208201905092915050565b5f819050602082019050919050565b615a7c81614d6d565b82525050565b5f615a8d8383615a73565b60208301905092915050565b5f602082019050919050565b5f615aaf82615a4a565b615ab98185615a54565b9350615ac483615a64565b805f5b83811015615af4578151615adb8882615a82565b9750615ae683615a99565b925050600181019050615ac7565b5085935050505092915050565b5f60e082019050615b145f83018a615a3b565b8181036020830152615b268189614e2b565b90508181036040830152615b3a8188614e2b565b9050615b496060830187614d76565b615b566080830186614eb3565b615b6360a0830185615426565b81810360c0830152615b758184615aa5565b905098975050505050505050565b5f5f5f5f60808587031215615b9b57615b9a614cb2565b5b5f615ba887828801614db4565b9450506020615bb98782880161556f565b9350506040615bca87828801614ef1565b925050606085013567ffffffffffffffff811115615beb57615bea614cb6565b5b615bf787828801615004565b91505092959194509250565b615c0c8161579c565b82525050565b5f602082019050615c255f830184615c03565b92915050565b5f5f5f60608486031215615c4257615c41614cb2565b5b5f615c4f86828701614ef1565b9350506020615c6086828701614db4565b925050604084013567ffffffffffffffff811115615c8157615c80614cb6565b5b615c8d86828701615004565b9150509250925092565b5f615ca182614e83565b9050919050565b5f615cb282615c97565b9050919050565b615cc281615ca8565b8114615ccc575f5ffd5b50565b5f81359050615cdd81615cb9565b92915050565b5f60208284031215615cf857615cf7614cb2565b5b5f615d0584828501615ccf565b91505092915050565b5f5f5f5f5f60a08688031215615d2757615d26614cb2565b5b5f615d3488828901614ef1565b9550506020615d4588828901614ef1565b945050604086013567ffffffffffffffff811115615d6657615d65614cb6565b5b615d7288828901615230565b935050606086013567ffffffffffffffff811115615d9357615d92614cb6565b5b615d9f88828901615230565b925050608086013567ffffffffffffffff811115615dc057615dbf614cb6565b5b615dcc88828901615004565b9150509295509295909350565b5f5f83601f840112615dee57615ded614f05565b5b8235905067ffffffffffffffff811115615e0b57615e0a6155c1565b5b602083019150836001820283011115615e2757615e26615104565b5b9250929050565b5f5f5f5f60608587031215615e4657615e45614cb2565b5b5f615e5387828801614ef1565b9450506020615e6487828801614db4565b935050604085013567ffffffffffffffff811115615e8557615e84614cb6565b5b615e9187828801615dd9565b925092505092959194509250565b5f63ffffffff82169050919050565b615eb781615e9f565b8114615ec1575f5ffd5b50565b5f81359050615ed281615eae565b92915050565b5f60208284031215615eed57615eec614cb2565b5b5f615efa84828501615ec4565b91505092915050565b5f5f60408385031215615f1957615f18614cb2565b5b5f615f2685828601614ef1565b9250506020615f3785828601614db4565b9150509250929050565b5f5f5f5f5f60a08688031215615f5a57615f59614cb2565b5b5f615f6788828901614ef1565b9550506020615f7888828901614ef1565b9450506040615f8988828901614db4565b9350506060615f9a88828901614db4565b925050608086013567ffffffffffffffff811115615fbb57615fba614cb6565b5b615fc788828901615004565b9150509295509295909350565b5f819050919050565b5f615ff7615ff2615fed84614e83565b615fd4565b614e83565b9050919050565b5f61600882615fdd565b9050919050565b5f61601982615ffe565b9050919050565b6160298161600f565b82525050565b5f6020820190506160425f830184616020565b92915050565b7f4e487b71000000000000000000000000000000000000000000000000000000005f52602260045260245ffd5b5f600282049050600182168061608c57607f821691505b60208210810361609f5761609e616048565b5b50919050565b5f6160bf6160ba6160b58461579c565b615fd4565b614d6d565b9050919050565b6160cf816160a5565b82525050565b5f6040820190506160e85f830185614d76565b6160f560208301846160c6565b9392505050565b7f4e487b71000000000000000000000000000000000000000000000000000000005f52603260045260245ffd5b5f60408201905061613c5f830185614d76565b6161496020830184614eb3565b9392505050565b5f61616261615d84615873565b614f6b565b90508281526020810184848401111561617e5761617d614f09565b5b616189848285614e0d565b509392505050565b5f82601f8301126161a5576161a4614f05565b5b81516161b5848260208601616150565b91505092915050565b5f602082840312156161d3576161d2614cb2565b5b5f82015167ffffffffffffffff8111156161f0576161ef614cb6565b5b6161fc84828501616191565b91505092915050565b7f4e487b71000000000000000000000000000000000000000000000000000000005f52601160045260245ffd5b5f61623c8261579c565b91506162478361579c565b9250828203905065ffffffffffff81111561626557616264616205565b5b92915050565b5f60608201905061627e5f830186614eb3565b61628b6020830185614d76565b6162986040830184614d76565b949350505050565b5f815190506162ae816157ad565b92915050565b5f602082840312156162c9576162c8614cb2565b5b5f6162d6848285016162a0565b91505092915050565b5f6162e98261579c565b91506162f48361579c565b9250828201905065ffffffffffff81111561631257616311616205565b5b92915050565b5f81905092915050565b5f61632d8385616318565b935061633a838584614fb5565b82840190509392505050565b5f616352828486616322565b91508190509392505050565b5f81519050919050565b5f82825260208201905092915050565b5f819050602082019050919050565b61639081614ea2565b82525050565b5f6163a18383616387565b60208301905092915050565b5f602082019050919050565b5f6163c38261635e565b6163cd8185616368565b93506163d883616378565b805f5b838110156164085781516163ef8882616396565b97506163fa836163ad565b9250506001810190506163db565b5085935050505092915050565b5f81519050919050565b5f82825260208201905092915050565b5f819050602082019050919050565b5f81519050919050565b5f82825260208201905092915050565b5f6164628261643e565b61646c8185616448565b935061647c818560208601614e0d565b61648581614e1b565b840191505092915050565b5f61649b8383616458565b905092915050565b5f602082019050919050565b5f6164b982616415565b6164c3818561641f565b9350836020820285016164d58561642f565b805f5b8581101561651057848403895281516164f18582616490565b94506164fc836164a3565b925060208a019950506001810190506164d8565b50829750879550505050505092915050565b5f6080820190508181035f83015261653a81876163b9565b9050818103602083015261654e8186615aa5565b9050818103604083015261656281856164af565b90506165716060830184615426565b95945050505050565b5f60408201905061658d5f830185614d76565b61659a6020830184614d76565b9392505050565b5f6060820190506165b45f830186614d76565b6165c160208301856154b2565b6165ce6040830184615426565b949350505050565b6165df81614d3a565b81146165e9575f5ffd5b50565b5f815190506165fa816165d6565b92915050565b5f6020828403121561661557616614614cb2565b5b5f616622848285016165ec565b91505092915050565b6166348161554d565b82525050565b5f60e08201905061664d5f83018a615426565b61665a6020830189614d76565b616667604083018861662b565b6166746060830187614eb3565b6166816080830186614d76565b61668e60a0830185615426565b61669b60c0830184615426565b98975050505050505050565b5f6080820190506166ba5f830187614d76565b6166c7602083018661662b565b6166d46040830185614d76565b81810360608301526166e68184614e2b565b905095945050505050565b5f82825260208201905092915050565b5f61670b8261643e565b61671581856166f1565b9350616725818560208601614e0d565b61672e81614e1b565b840191505092915050565b5f60a08201905061674c5f830188614d76565b616759602083018761662b565b6167666040830186614d76565b81810360608301526167788185614e2b565b9050818103608083015261678c8184616701565b90509695505050505050565b5f6040820190506167ab5f8301856160c6565b6167b860208301846160c6565b9392505050565b5f6167c982614d6d565b91506167d483614d6d565b92508282019050808211156167ec576167eb616205565b5b92915050565b5f81519050919050565b5f82825260208201905092915050565b5f819050602082019050919050565b5f82825260208201905092915050565b5f61683582614df3565b61683f818561681b565b935061684f818560208601614e0d565b61685881614e1b565b840191505092915050565b5f61686e838361682b565b905092915050565b5f602082019050919050565b5f61688c826167f2565b61689681856167fc565b9350836020820285016168a88561680c565b805f5b858110156168e357848403895281516168c48582616863565b94506168cf83616876565b925060208a019950506001810190506168ab565b50829750879550505050505092915050565b5f610120820190506169095f83018c614d76565b616916602083018b614eb3565b8181036040830152616928818a6163b9565b9050818103606083015261693c8189615aa5565b905081810360808301526169508188616882565b905081810360a083015261696481876164af565b905061697360c0830186614d76565b61698060e0830185614d76565b8181036101008301526169938184614e2b565b90509a9950505050505050505050565b5f60a0820190506169b65f830188615426565b6169c36020830187614d76565b6169d0604083018661662b565b6169dd6060830185614eb3565b6169ea6080830184614d76565b9695505050505050565b5f604082019050616a075f830185614eb3565b616a146020830184614d76565b9392505050565b5f81519050616a2981614d9e565b92915050565b5f60208284031215616a4457616a43614cb2565b5b5f616a5184828501616a1b565b91505092915050565b5f616a6482614d6d565b9150616a6f83614d6d565b9250828203905081811115616a8757616a86616205565b5b92915050565b5f604082019050616aa05f830185614eb3565b616aad6020830184614eb3565b9392505050565b5f819050919050565b5f616ad7616ad2616acd84616ab4565b615fd4565b614d6d565b9050919050565b616ae781616abd565b82525050565b5f602082019050616b005f830184616ade565b92915050565b5f616b20616b1b616b1684615e9f565b615fd4565b614d6d565b9050919050565b616b3081616b06565b82525050565b5f604082019050616b495f830185616b27565b616b566020830184616b27565b9392505050565b5f819050919050565b5f616b80616b7b616b7684616b5d565b615fd4565b61554d565b9050919050565b616b9081616b66565b82525050565b5f604082019050616ba95f830185616b87565b616bb66020830184614d76565b9392505050565b5f815f1b9050919050565b5f616be2616bdd616bd884616ab4565b616bbd565b61533b565b9050919050565b616bf281616bc8565b82525050565b5f60a0820190508181035f830152616c1081886163b9565b90508181036020830152616c248187615aa5565b90508181036040830152616c3881866164af565b9050616c476060830185616be9565b616c546080830184615426565b9695505050505050565b5f81519050616c6c81615344565b92915050565b5f60208284031215616c8757616c86614cb2565b5b5f616c9484828501616c5e565b91505092915050565b5f60c0820190508181035f830152616cb581896163b9565b90508181036020830152616cc98188615aa5565b90508181036040830152616cdd81876164af565b9050616cec6060830186616be9565b616cf96080830185615426565b616d0660a0830184614d76565b979650505050505050565b5f819050919050565b5f616d34616d2f616d2a84616d11565b615fd4565b61554d565b9050919050565b616d4481616d1a565b82525050565b5f604082019050616d5d5f830185616d3b565b616d6a6020830184614d76565b9392505050565b5f616d7b82614d6d565b9150616d8683614d6d565b9250828202616d9481614d6d565b91508282048414831517616dab57616daa616205565b5b5092915050565b5f819050919050565b5f616dd5616dd0616dcb84616db2565b615fd4565b61554d565b9050919050565b616de581616dbb565b82525050565b5f604082019050616dfe5f830185616ddc565b616e0b6020830184614d76565b9392505050565b7f4e487b71000000000000000000000000000000000000000000000000000000005f52601260045260245ffd5b5f616e498261554d565b9150616e548361554d565b9250828201905060ff811115616e6d57616e6c616205565b5b92915050565b5f8160011c9050919050565b5f5f8291508390505b6001851115616ec857808604811115616ea457616ea3616205565b5b6001851615616eb35780820291505b8081029050616ec185616e73565b9450616e88565b94509492505050565b5f82616ee05760019050616f9b565b81616eed575f9050616f9b565b8160018114616f035760028114616f0d57616f3c565b6001915050616f9b565b60ff841115616f1f57616f1e616205565b5b8360020a915084821115616f3657616f35616205565b5b50616f9b565b5060208310610133831016604e8410600b8410161715616f715782820a905083811115616f6c57616f6b616205565b5b616f9b565b616f7e8484846001616e7f565b92509050818404811115616f9557616f94616205565b5b81810290505b9392505050565b5f616fac82614d6d565b9150616fb78361554d565b9250616fe47fffffffffffffffffffffffffffffffffffffffffffffffffffffffffffffffff8484616ed1565b905092915050565b5f60a082019050616fff5f830188615426565b61700c6020830187615426565b6170196040830186615426565b6170266060830185614d76565b6170336080830184614eb3565b9695505050505050565b5f6080820190506170505f830187615426565b61705d602083018661662b565b61706a6040830185615426565b6170776060830184615426565b9594505050505056fea2646970667358221220b5beeaaa4f48bc31685eca71a879dc45e56cfc118edc3d231e6803c832d13e9f64736f6c63430008230033","linkReferences":{}},"methodIdentifiers":{"BALLOT_TYPEHASH()":"deaaa7cc","CLOCK_MODE()":"4bf5d7e9","COUNTING_MODE()":"dd4e2ba5","EXTENDED_BALLOT_TYPEHASH()":"2fe3e261","cancel(address[],uint256[],bytes[],bytes32)":"452115d6","castVote(uint256,uint8)":"56781388","castVoteBySig(uint256,uint8,address,bytes)":"8ff262e3","castVoteWithReason(uint256,uint8,string)":"7b3c71d3","castVoteWithReasonAndParams(uint256,uint8,string,bytes)":"5f398a14","castVoteWithReasonAndParamsBySig(uint256,uint8,address,string,bytes,bytes)":"5b8d0e0d","clock()":"91ddadf4","eip712Domain()":"84b0196e","execute(address[],uint256[],bytes[],bytes32)":"2656227d","getProposalId(address[],uint256[],bytes[],bytes32)":"a8f8a668","getVotes(address,uint256)":"eb9019d4","getVotesWithParams(address,uint256,bytes)":"9a802a6d","hasVoted(uint256,address)":"43859632","hashProposal(address[],uint256[],bytes[],bytes32)":"c59057e4","name()":"06fdde03","nonces(address)":"7ecebe00","onERC1155BatchReceived(address,address,uint256[],uint256[],bytes)":"bc197c81","onERC1155Received(address,address,uint256,uint256,bytes)":"f23a6e61","onERC721Received(address,address,uint256,bytes)":"150b7a02","proposalDeadline(uint256)":"c01f9e37","proposalEta(uint256)":"ab58fb8e","proposalNeedsQueuing(uint256)":"a9a95294","proposalProposer(uint256)":"143489d0","proposalSnapshot(uint256)":"2d63f693","proposalThreshold()":"b58131b0","proposalVotes(uint256)":"544ffc9c","propose(address[],uint256[],bytes[],string)":"7d5e81e2","queue(address[],uint256[],bytes[],bytes32)":"160cbed7","quorum(uint256)":"f8ce560a","quorumDenominator()":"97c3d334","quorumNumerator()":"a7713a70","quorumNumerator(uint256)":"60c4247f","relay(address,uint256,bytes)":"c28bc2fa","setProposalThreshold(uint256)":"ece40cc1","setVotingDelay(uint48)":"79051887","setVotingPeriod(uint32)":"e540d01d","state(uint256)":"3e4f49e6","supportsInterface(bytes4)":"01ffc9a7","timelock()":"d33219b4","token()":"fc0c546a","updateQuorumNumerator(uint256)":"06f3f9e6","updateTimelock(address)":"a890c910","version()":"54fd4d50","votingDelay()":"3932abb1","votingPeriod()":"02a251a3"},"id":52}