{"abi":[{"type":"constructor","inputs":[{"name":"initialHolder","type":"address","internalType":"address"},{"name":"initialSupply","type":"uint256","internalType":"uint256"}],"stateMutability":"nonpayable"},{"type":"function","name":"CLOCK_MODE","inputs":[],"outputs":[{"name":"","type":"string","internalType":"string"}],"stateMutability":"view"},{"type":"function","name":"DOMAIN_SEPARATOR","inputs":[],"outputs":[{"name":"","type":"bytes32","internalType":"bytes32"}],"stateMutability":"view"},{"type":"function","name":"allowance","inputs":[{"name":"owner","type":"address","internalType":"address"},{"name":"spender","type":"address","internalType":"address"}],"outputs":[{"name":"","type":"uint256","internalType":"uint256"}],"stateMutability":"view"},{"type":"function","name":"approve","inputs":[{"name":"spender","type":"address","internalType":"address"},{"name":"value","type":"uint256","internalType":"uint256"}],"outputs":[{"name":"","type":"bool","internalType":"bool"}],"stateMutability":"nonpayable"},{"type":"function","name":"balanceOf","inputs":[{"name":"account","type":"address","internalType":"address"}],"outputs":[{"name":"","type":"uint256","internalType":"uint256"}],"stateMutability":"view"},{"type":"function","name":"checkpoints","inputs":[{"name":"account","type":"address","internalType":"address"},{"name":"pos","type":"uint32","internalType":"uint32"}],"outputs":[{"name":"","type":"tuple","internalType":"struct Checkpoints.Checkpoint208","components":[{"name":"_key","type":"uint48","internalType":"uint48"},{"name":"_value","type":"uint208","internalType":"uint208"}]}],"stateMutability":"view"},{"type":"function","name":"clock","inputs":[],"outputs":[{"name":"","type":"uint48","internalType":"uint48"}],"stateMutability":"view"},{"type":"function","name":"decimals","inputs":[],"outputs":[{"name":"","type":"uint8","internalType":"uint8"}],"stateMutability":"view"},{"type":"function","name":"delegate","inputs":[{"name":"delegatee","type":"address","internalType":"address"}],"outputs":[],"stateMutability":"nonpayable"},{"type":"function","name":"delegateBySig","inputs":[{"name":"delegatee","type":"address","internalType":"address"},{"name":"nonce","type":"uint256","internalType":"uint256"},{"name":"expiry","type":"uint256","internalType":"uint256"},{"name":"v","type":"uint8","internalType":"uint8"},{"name":"r","type":"bytes32","internalType":"bytes32"},{"name":"s","type":"bytes32","internalType":"bytes32"}],"outputs":[],"stateMutability":"nonpayable"},{"type":"function","name":"delegates","inputs":[{"name":"account","type":"address","internalType":"address"}],"outputs":[{"name":"","type":"address","internalType":"address"}],"stateMutability":"view"},{"type":"function","name":"eip712Domain","inputs":[],"outputs":[{"name":"fields","type":"bytes1","internalType":"bytes1"},{"name":"name","type":"string","internalType":"string"},{"name":"version","type":"string","internalType":"string"},{"name":"chainId","type":"uint256","internalType":"uint256"},{"name":"verifyingContract","type":"address","internalType":"address"},{"name":"salt","type":"bytes32","internalType":"bytes32"},{"name":"extensions","type":"uint256[]","internalType":"uint256[]"}],"stateMutability":"view"},{"type":"function","name":"getPastTotalSupply","inputs":[{"name":"timepoint","type":"uint256","internalType":"uint256"}],"outputs":[{"name":"","type":"uint256","internalType":"uint256"}],"stateMutability":"view"},{"type":"function","name":"getPastVotes","inputs":[{"name":"account","type":"address","internalType":"address"},{"name":"timepoint","type":"uint256","internalType":"uint256"}],"outputs":[{"name":"","type":"uint256","internalType":"uint256"}],"stateMutability":"view"},{"type":"function","name":"getVotes","inputs":[{"name":"account","type":"address","internalType":"address"}],"outputs":[{"name":"","type":"uint256","internalType":"uint256"}],"stateMutability":"view"},{"type":"function","name":"name","inputs":[],"outputs":[{"name":"","type":"string","internalType":"string"}],"stateMutability":"view"},{"type":"function","name":"nonces","inputs":[{"name":"owner","type":"address","internalType":"address"}],"outputs":[{"name":"","type":"uint256","internalType":"uint256"}],"stateMutability":"view"},{"type":"function","name":"numCheckpoints","inputs":[{"name":"account","type":"address","internalType":"address"}],"outputs":[{"name":"","type":"uint32","internalType":"uint32"}],"stateMutability":"view"},{"type":"function","name":"permit","inputs":[{"name":"owner","type":"address","internalType":"address"},{"name":"spender","type":"address","internalType":"address"},{"name":"value","type":"uint256","internalType":"uint256"},{"name":"deadline","type":"uint256","internalType":"uint256"},{"name":"v","type":"uint8","internalType":"uint8"},{"name":"r","type":"bytes32","internalType":"bytes32"},{"name":"s","type":"bytes32","internalType":"bytes32"}],"outputs":[],"stateMutability":"nonpayable"},{"type":"function","name":"symbol","inputs":[],"outputs":[{"name":"","type":"string","internalType":"string"}],"stateMutability":"view"},{"type":"function","name":"totalSupply","inputs":[],"outputs":[{"name":"","type":"uint256","internalType":"uint256"}],"stateMutability":"view"},{"type":"function","name":"transfer","inputs":[{"name":"to","type":"address","internalType":"address"},{"name":"value","type":"uint256","internalType":"uint256"}],"outputs":[{"name":"","type":"bool","internalType":"bool"}],"stateMutability":"nonpayable"},{"type":"function","name":"transferFrom","inputs":[{"name":"from","type":"address","internalType":"address"},{"name":"to","type":"address","internalType":"address"},{"name":"value","type":"uint256","internalType":"uint256"}],"outputs":[{"name":"","type":"bool","internalType":"bool"}],"stateMutability":"nonpayable"},{"type":"event","name":"Approval","inputs":[{"name":"owner","type":"address","indexed":true,"internalType":"address"},{"name":"spender","type":"address","indexed":true,"internalType":"address"},{"name":"value","type":"uint256","indexed":false,"internalType":"uint256"}],"anonymous":false},{"type":"event","name":"DelegateChanged","inputs":[{"name":"delegator","type":"address","indexed":true,"internalType":"address"},{"name":"fromDelegate","type":"address","indexed":true,"internalType":"address"},{"name":"toDelegate","type":"address","indexed":true,"internalType":"address"}],"anonymous":false},{"type":"event","name":"DelegateVotesChanged","inputs":[{"name":"delegate","type":"address","indexed":true,"internalType":"address"},{"name":"previousVotes","type":"uint256","indexed":false,"internalType":"uint256"},{"name":"newVotes","type":"uint256","indexed":false,"internalType":"uint256"}],"anonymous":false},{"type":"event","name":"EIP712DomainChanged","inputs":[],"anonymous":false},{"type":"event","name":"Transfer","inputs":[{"name":"from","type":"address","indexed":true,"internalType":"address"},{"name":"to","type":"address","indexed":true,"internalType":"address"},{"name":"value","type":"uint256","indexed":false,"internalType":"uint256"}],"anonymous":false},{"type":"error","name":"CheckpointUnorderedInsertion","inputs":[]},{"type":"error","name":"ECDSAInvalidSignature","inputs":[]},{"type":"error","name":"ECDSAInvalidSignatureLength","inputs":[{"name":"length","type":"uint256","internalType":"uint256"}]},{"type":"error","name":"ECDSAInvalidSignatureS","inputs":[{"name":"s","type":"bytes32","internalType":"bytes32"}]},{"type":"error","name":"ERC20ExceededSafeSupply","inputs":[{"name":"increasedSupply","type":"uint256","internalType":"uint256"},{"name":"cap","type":"uint256","internalType":"uint256"}]},{"type":"error","name":"ERC20InsufficientAllowance","inputs":[{"name":"spender","type":"address","internalType":"address"},{"name":"allowance","type":"uint256","internalType":"uint256"},{"name":"needed","type":"uint256","internalType":"uint256"}]},{"type":"error","name":"ERC20InsufficientBalance","inputs":[{"name":"sender","type":"address","internalType":"address"},{"name":"balance","type":"uint256","internalType":"uint256"},{"name":"needed","type":"uint256","internalType":"uint256"}]},{"type":"error","name":"ERC20InvalidApprover","inputs":[{"name":"approver","type":"address","internalType":"address"}]},{"type":"error","name":"ERC20InvalidReceiver","inputs":[{"name":"receiver","type":"address","internalType":"address"}]},{"type":"error","name":"ERC20InvalidSender","inputs":[{"name":"sender","type":"address","internalType":"address"}]},{"type":"error","name":"ERC20InvalidSpender","inputs":[{"name":"spender","type":"address","internalType":"address"}]},{"type":"error","name":"ERC2612ExpiredSignature","inputs":[{"name":"deadline","type":"uint256","internalType":"uint256"}]},{"type":"error","name":"ERC2612InvalidSigner","inputs":[{"name":"signer","type":"address","internalType":"address"},{"name":"owner","type":"address","internalType":"address"}]},{"type":"error","name":"ERC5805FutureLookup","inputs":[{"name":"timepoint","type":"uint256","internalType":"uint256"},{"name":"clock","type":"uint48","internalType":"uint48"}]},{"type":"error","name":"ERC6372InconsistentClock","inputs":[]},{"type":"error","name":"InvalidAccountNonce","inputs":[{"name":"account","type":"address","internalType":"address"},{"name":"currentNonce","type":"uint256","internalType":"uint256"}]},{"type":"error","name":"InvalidShortString","inputs":[]},{"type":"error","name":"SafeCastOverflowedUintDowncast","inputs":[{"name":"bits","type":"uint8","internalType":"uint8"},{"name":"value","type":"uint256","internalType":"uint256"}]},{"type":"error","name":"StringTooLong","inputs":[{"name":"str","type":"string","internalType":"string"}]},{"type":"error","name":"VotesExpiredSignature","inputs":[{"name":"expiry","type":"uint256","internalType":"uint256"}]}],"bytecode":{"object":"0x610160604052348015610010575f5ffd5b50604051614dfc380380614dfc8339818101604052810190610032919061101c565b6040518060400160405280601481526020017f504c4720476f7665726e616e636520546f6b656e000000000000000000000000815250806040518060400160405280600181526020017f31000000000000000000000000000000000000000000000000000000000000008152506040518060400160405280601481526020017f504c4720476f7665726e616e636520546f6b656e0000000000000000000000008152506040518060400160405280600381526020017f504c470000000000000000000000000000000000000000000000000000000000815250816003908161011a919061129f565b50806004908161012a919061129f565b5050506101416005836101ef60201b90919060201c565b610120818152505061015d6006826101ef60201b90919060201c565b6101408181525050818051906020012060e08181525050808051906020012061010081815250504660a0818152505061019a61023c60201b60201c565b608081815250503073ffffffffffffffffffffffffffffffffffffffff1660c08173ffffffffffffffffffffffffffffffffffffffff16815250505050506101e8828261029660201b60201c565b50506117ba565b5f602083511015610210576102098361031b60201b60201c565b9050610236565b826102208361038060201b60201c565b5f01908161022e919061129f565b5060ff5f1b90505b92915050565b5f7f8b73c3c69bb8fe3d512ecc4cf759cc79239f7b179b0ffacaa9a75d522b39400f60e05161010051463060405160200161027b9594939291906113a4565b60405160208183030381529060405280519060200120905090565b5f73ffffffffffffffffffffffffffffffffffffffff168273ffffffffffffffffffffffffffffffffffffffff1603610306575f6040517fec442f050000000000000000000000000000000000000000000000000000000081526004016102fd91906113f5565b60405180910390fd5b6103175f838361038960201b60201c565b5050565b5f5f829050601f8151111561036757826040517f305a27a900000000000000000000000000000000000000000000000000000000815260040161035e9190611474565b60405180910390fd5b805181610373906114c1565b5f1c175f1b915050919050565b5f819050919050565b61039a83838361039f60201b60201c565b505050565b6103b083838361046560201b60201c565b5f73ffffffffffffffffffffffffffffffffffffffff168373ffffffffffffffffffffffffffffffffffffffff160361044f575f6103f261067e60201b60201c565b90505f61040361068760201b60201c565b90508082111561044c5781816040517f1cb15d26000000000000000000000000000000000000000000000000000000008152600401610443929190611527565b60405180910390fd5b50505b6104608383836106aa60201b60201c565b505050565b5f73ffffffffffffffffffffffffffffffffffffffff168373ffffffffffffffffffffffffffffffffffffffff16036104b5578060025f8282546104a9919061157b565b92505081905550610583565b5f5f5f8573ffffffffffffffffffffffffffffffffffffffff1673ffffffffffffffffffffffffffffffffffffffff1681526020019081526020015f205490508181101561053e578381836040517fe450d38c000000000000000000000000000000000000000000000000000000008152600401610535939291906115ae565b60405180910390fd5b8181035f5f8673ffffffffffffffffffffffffffffffffffffffff1673ffffffffffffffffffffffffffffffffffffffff1681526020019081526020015f2081905550505b5f73ffffffffffffffffffffffffffffffffffffffff168273ffffffffffffffffffffffffffffffffffffffff16036105ca578060025f8282540392505081905550610614565b805f5f8473ffffffffffffffffffffffffffffffffffffffff1673ffffffffffffffffffffffffffffffffffffffff1681526020019081526020015f205f82825401925050819055505b8173ffffffffffffffffffffffffffffffffffffffff168373ffffffffffffffffffffffffffffffffffffffff167fddf252ad1be2c89b69c2b068fc378daa952ba7f163c4a11628f55a4df523b3ef8360405161067191906115e3565b60405180910390a3505050565b5f600254905090565b5f79ffffffffffffffffffffffffffffffffffffffffffffffffffff8016905090565b5f73ffffffffffffffffffffffffffffffffffffffff168373ffffffffffffffffffffffffffffffffffffffff160361070957610706600a61079a60201b610bff176106fb846107af60201b60201c565b61081c60201b60201c565b50505b5f73ffffffffffffffffffffffffffffffffffffffff168273ffffffffffffffffffffffffffffffffffffffff160361076857610765600a61086460201b610c141761075a846107af60201b60201c565b61081c60201b60201c565b50505b61079561077a8461087960201b60201c565b6107898461087960201b60201c565b836108de60201b60201c565b505050565b5f81836107a79190611621565b905092915050565b5f79ffffffffffffffffffffffffffffffffffffffffffffffffffff80168211156108145760d0826040517f6dfcc65000000000000000000000000000000000000000000000000000000000815260040161080b9291906116b3565b60405180910390fd5b819050919050565b5f5f61085861082f610b7460201b60201c565b61084861084188610b8860201b60201c565b868860201c565b87610bf060201b9092919060201c565b91509150935093915050565b5f818361087191906116da565b905092915050565b5f60085f8373ffffffffffffffffffffffffffffffffffffffff1673ffffffffffffffffffffffffffffffffffffffff1681526020019081526020015f205f9054906101000a900473ffffffffffffffffffffffffffffffffffffffff169050919050565b8173ffffffffffffffffffffffffffffffffffffffff168373ffffffffffffffffffffffffffffffffffffffff161415801561091957505f81115b15610b6f575f73ffffffffffffffffffffffffffffffffffffffff168373ffffffffffffffffffffffffffffffffffffffff1614610a46575f5f6109b760095f8773ffffffffffffffffffffffffffffffffffffffff1673ffffffffffffffffffffffffffffffffffffffff1681526020019081526020015f2061086460201b610c14176109ac866107af60201b60201c565b61081c60201b60201c565b79ffffffffffffffffffffffffffffffffffffffffffffffffffff16915079ffffffffffffffffffffffffffffffffffffffffffffffffffff1691508473ffffffffffffffffffffffffffffffffffffffff167fdec2bacdd2f05b59de34da9b523dff8be42e5e38e818c82fdb0bae774387a7248383604051610a3b929190611527565b60405180910390a250505b5f73ffffffffffffffffffffffffffffffffffffffff168273ffffffffffffffffffffffffffffffffffffffff1614610b6e575f5f610adf60095f8673ffffffffffffffffffffffffffffffffffffffff1673ffffffffffffffffffffffffffffffffffffffff1681526020019081526020015f2061079a60201b610bff17610ad4866107af60201b60201c565b61081c60201b60201c565b79ffffffffffffffffffffffffffffffffffffffffffffffffffff16915079ffffffffffffffffffffffffffffffffffffffffffffffffffff1691508373ffffffffffffffffffffffffffffffffffffffff167fdec2bacdd2f05b59de34da9b523dff8be42e5e38e818c82fdb0bae774387a7248383604051610b63929190611527565b60405180910390a250505b5b505050565b5f610b83610c1160201b60201c565b905090565b5f5f825f018054905090505f8114610be657610bb8835f01600183610bad9190611727565b610c2660201b60201c565b5f0160069054906101000a900479ffffffffffffffffffffffffffffffffffffffffffffffffffff16610be8565b5f5b915050919050565b5f5f610c05855f018585610c3860201b60201c565b91509150935093915050565b5f610c2143610f3260201b60201c565b905090565b5f825f528160205f2001905092915050565b5f5f5f858054905090505f811115610e4a575f610c6787600184610c5c9190611727565b610c2660201b60201c565b90505f815f015f9054906101000a900465ffffffffffff1690505f825f0160069054906101000a900479ffffffffffffffffffffffffffffffffffffffffffffffffffff1690508765ffffffffffff168265ffffffffffff161115610cf8576040517f2520601d00000000000000000000000000000000000000000000000000000000815260040160405180910390fd5b8765ffffffffffff168265ffffffffffff1603610d625786835f0160066101000a81548179ffffffffffffffffffffffffffffffffffffffffffffffffffff021916908379ffffffffffffffffffffffffffffffffffffffffffffffffffff160217905550610e3b565b8860405180604001604052808a65ffffffffffff1681526020018979ffffffffffffffffffffffffffffffffffffffffffffffffffff16815250908060018154018082558091505060019003905f5260205f20015f909190919091505f820151815f015f6101000a81548165ffffffffffff021916908365ffffffffffff1602179055506020820151815f0160066101000a81548179ffffffffffffffffffffffffffffffffffffffffffffffffffff021916908379ffffffffffffffffffffffffffffffffffffffffffffffffffff16021790555050505b80879550955050505050610f2a565b8560405180604001604052808765ffffffffffff1681526020018679ffffffffffffffffffffffffffffffffffffffffffffffffffff16815250908060018154018082558091505060019003905f5260205f20015f909190919091505f820151815f015f6101000a81548165ffffffffffff021916908365ffffffffffff1602179055506020820151815f0160066101000a81548179ffffffffffffffffffffffffffffffffffffffffffffffffffff021916908379ffffffffffffffffffffffffffffffffffffffffffffffffffff16021790555050505f8492509250505b935093915050565b5f65ffffffffffff8016821115610f83576030826040517f6dfcc650000000000000000000000000000000000000000000000000000000008152600401610f7a929190611793565b60405180910390fd5b819050919050565b5f5ffd5b5f73ffffffffffffffffffffffffffffffffffffffff82169050919050565b5f610fb882610f8f565b9050919050565b610fc881610fae565b8114610fd2575f5ffd5b50565b5f81519050610fe381610fbf565b92915050565b5f819050919050565b610ffb81610fe9565b8114611005575f5ffd5b50565b5f8151905061101681610ff2565b92915050565b5f5f6040838503121561103257611031610f8b565b5b5f61103f85828601610fd5565b925050602061105085828601611008565b9150509250929050565b5f81519050919050565b7f4e487b71000000000000000000000000000000000000000000000000000000005f52604160045260245ffd5b7f4e487b71000000000000000000000000000000000000000000000000000000005f52602260045260245ffd5b5f60028204905060018216806110d557607f821691505b6020821081036110e8576110e7611091565b5b50919050565b5f819050815f5260205f209050919050565b5f6020601f8301049050919050565b5f82821b905092915050565b5f6008830261114a7fffffffffffffffffffffffffffffffffffffffffffffffffffffffffffffffff8261110f565b611154868361110f565b95508019841693508086168417925050509392505050565b5f819050919050565b5f61118f61118a61118584610fe9565b61116c565b610fe9565b9050919050565b5f819050919050565b6111a883611175565b6111bc6111b482611196565b84845461111b565b825550505050565b5f5f905090565b6111d36111c4565b6111de81848461119f565b505050565b5f5b82811015611204576111f95f8284016111cb565b6001810190506111e5565b505050565b601f821115611257578282111561125657611223816110ee565b61122c83611100565b61123585611100565b6020861015611242575f90505b808301611251828403826111e3565b505050505b5b505050565b5f82821c905092915050565b5f6112775f198460080261125c565b1980831691505092915050565b5f61128f8383611268565b9150826002028217905092915050565b6112a88261105a565b67ffffffffffffffff8111156112c1576112c0611064565b5b6112cb82546110be565b6112d6828285611209565b5f60209050601f831160018114611307575f84156112f5578287015190505b6112ff8582611284565b865550611366565b601f198416611315866110ee565b5f5b8281101561133c57848901518255600182019150602085019450602081019050611317565b868310156113595784890151611355601f891682611268565b8355505b6001600288020188555050505b505050505050565b5f819050919050565b6113808161136e565b82525050565b61138f81610fe9565b82525050565b61139e81610fae565b82525050565b5f60a0820190506113b75f830188611377565b6113c46020830187611377565b6113d16040830186611377565b6113de6060830185611386565b6113eb6080830184611395565b9695505050505050565b5f6020820190506114085f830184611395565b92915050565b5f82825260208201905092915050565b8281835e5f83830152505050565b5f601f19601f8301169050919050565b5f6114468261105a565b611450818561140e565b935061146081856020860161141e565b6114698161142c565b840191505092915050565b5f6020820190508181035f83015261148c818461143c565b905092915050565b5f81519050919050565b5f819050602082019050919050565b5f6114b8825161136e565b80915050919050565b5f6114cb82611494565b826114d58461149e565b90506114e0816114ad565b925060208210156115205761151b7fffffffffffffffffffffffffffffffffffffffffffffffffffffffffffffffff8360200360080261110f565b831692505b5050919050565b5f60408201905061153a5f830185611386565b6115476020830184611386565b9392505050565b7f4e487b71000000000000000000000000000000000000000000000000000000005f52601160045260245ffd5b5f61158582610fe9565b915061159083610fe9565b92508282019050808211156115a8576115a761154e565b5b92915050565b5f6060820190506115c15f830186611395565b6115ce6020830185611386565b6115db6040830184611386565b949350505050565b5f6020820190506115f65f830184611386565b92915050565b5f79ffffffffffffffffffffffffffffffffffffffffffffffffffff82169050919050565b5f61162b826115fc565b9150611636836115fc565b9250828201905079ffffffffffffffffffffffffffffffffffffffffffffffffffff8111156116685761166761154e565b5b92915050565b5f819050919050565b5f60ff82169050919050565b5f61169d6116986116938461166e565b61116c565b611677565b9050919050565b6116ad81611683565b82525050565b5f6040820190506116c65f8301856116a4565b6116d36020830184611386565b9392505050565b5f6116e4826115fc565b91506116ef836115fc565b9250828203905079ffffffffffffffffffffffffffffffffffffffffffffffffffff8111156117215761172061154e565b5b92915050565b5f61173182610fe9565b915061173c83610fe9565b92508282039050818111156117545761175361154e565b5b92915050565b5f819050919050565b5f61177d6117786117738461175a565b61116c565b611677565b9050919050565b61178d81611763565b82525050565b5f6040820190506117a65f830185611784565b6117b36020830184611386565b9392505050565b60805160a05160c05160e0516101005161012051610140516135f161180b5f395f6111ad01525f61117201525f6115c401525f6115a301525f610dc801525f610e1e01525f610e4701526135f15ff3fe608060405234801561000f575f5ffd5b506004361061014b575f3560e01c806370a08231116100c15780639ab24eb01161007a5780639ab24eb0146103e1578063a9059cbb14610411578063c3cda52014610441578063d505accf1461045d578063dd62ed3e14610479578063f1127ed8146104a95761014b565b806370a08231146102f15780637ecebe001461032157806384b0196e146103515780638e539e8c1461037557806391ddadf4146103a557806395d89b41146103c35761014b565b80633644e515116101135780633644e515146102095780633a46b1a8146102275780634bf5d7e914610257578063587cde1e146102755780635c19a95c146102a55780636fcfff45146102c15761014b565b806306fdde031461014f578063095ea7b31461016d57806318160ddd1461019d57806323b872dd146101bb578063313ce567146101eb575b5f5ffd5b6101576104d9565b6040516101649190612944565b60405180910390f35b610187600480360381019061018291906129f5565b610569565b6040516101949190612a4d565b60405180910390f35b6101a561058b565b6040516101b29190612a75565b60405180910390f35b6101d560048036038101906101d09190612a8e565b610594565b6040516101e29190612a4d565b60405180910390f35b6101f36105c2565b6040516102009190612af9565b60405180910390f35b6102116105ca565b60405161021e9190612b2a565b60405180910390f35b610241600480360381019061023c91906129f5565b6105d8565b60405161024e9190612a75565b60405180910390f35b61025f610654565b60405161026c9190612944565b60405180910390f35b61028f600480360381019061028a9190612b43565b610666565b60405161029c9190612b7d565b60405180910390f35b6102bf60048036038101906102ba9190612b43565b6106cb565b005b6102db60048036038101906102d69190612b43565b6106e4565b6040516102e89190612bb4565b60405180910390f35b61030b60048036038101906103069190612b43565b6106f5565b6040516103189190612a75565b60405180910390f35b61033b60048036038101906103369190612b43565b61073a565b6040516103489190612a75565b60405180910390f35b61035961074b565b60405161036c9796959493929190612cbe565b60405180910390f35b61038f600480360381019061038a9190612d40565b6107f0565b60405161039c9190612a75565b60405180910390f35b6103ad610830565b6040516103ba9190612d8b565b60405180910390f35b6103cb61083e565b6040516103d89190612944565b60405180910390f35b6103fb60048036038101906103f69190612b43565b6108ce565b6040516104089190612a75565b60405180910390f35b61042b600480360381019061042691906129f5565b610937565b6040516104389190612a4d565b60405180910390f35b61045b60048036038101906104569190612df8565b610959565b005b61047760048036038101906104729190612e81565b610a1e565b005b610493600480360381019061048e9190612f1e565b610b63565b6040516104a09190612a75565b60405180910390f35b6104c360048036038101906104be9190612f86565b610be5565b6040516104d09190613034565b60405180910390f35b6060600380546104e89061307a565b80601f01602080910402602001604051908101604052809291908181526020018280546105149061307a565b801561055f5780601f106105365761010080835404028352916020019161055f565b820191905f5260205f20905b81548152906001019060200180831161054257829003601f168201915b5050505050905090565b5f5f610573610c29565b9050610580818585610c30565b600191505092915050565b5f600254905090565b5f5f61059e610c29565b90506105ab858285610c42565b6105b6858585610cd5565b60019150509392505050565b5f6012905090565b5f6105d3610dc5565b905090565b5f6106306105e583610e7b565b60095f8673ffffffffffffffffffffffffffffffffffffffff1673ffffffffffffffffffffffffffffffffffffffff1681526020019081526020015f20610ee690919063ffffffff16565b79ffffffffffffffffffffffffffffffffffffffffffffffffffff16905092915050565b6060610661610830610fd6565b905090565b5f60085f8373ffffffffffffffffffffffffffffffffffffffff1673ffffffffffffffffffffffffffffffffffffffff1681526020019081526020015f205f9054906101000a900473ffffffffffffffffffffffffffffffffffffffff169050919050565b5f6106d4610c29565b90506106e08183610ff3565b5050565b5f6106ee82611103565b9050919050565b5f5f5f8373ffffffffffffffffffffffffffffffffffffffff1673ffffffffffffffffffffffffffffffffffffffff1681526020019081526020015f20549050919050565b5f61074482611158565b9050919050565b5f6060805f5f5f606061075c611169565b6107646111a4565b46305f5f1b5f67ffffffffffffffff811115610783576107826130aa565b5b6040519080825280602002602001820160405280156107b15781602001602082028036833780820191505090505b507f0f00000000000000000000000000000000000000000000000000000000000000959493929190965096509650965096509650965090919293949596565b5f61080d6107fd83610e7b565b600a610ee690919063ffffffff16565b79ffffffffffffffffffffffffffffffffffffffffffffffffffff169050919050565b5f6108396111df565b905090565b60606004805461084d9061307a565b80601f01602080910402602001604051908101604052809291908181526020018280546108799061307a565b80156108c45780601f1061089b576101008083540402835291602001916108c4565b820191905f5260205f20905b8154815290600101906020018083116108a757829003601f168201915b5050505050905090565b5f61091460095f8473ffffffffffffffffffffffffffffffffffffffff1673ffffffffffffffffffffffffffffffffffffffff1681526020019081526020015f206111ee565b79ffffffffffffffffffffffffffffffffffffffffffffffffffff169050919050565b5f5f610941610c29565b905061094e818585610cd5565b600191505092915050565b8342111561099e57836040517f4683af0e0000000000000000000000000000000000000000000000000000000081526004016109959190612a75565b60405180910390fd5b5f6109ff6109f77fe48329057bfd03d55e49b547132e39cffd9c1820ad7b9d4c5307691425d15adf8989896040516020016109dc94939291906130d7565b60405160208183030381529060405280519060200120611250565b858585611269565b9050610a0b8187611297565b610a158188610ff3565b50505050505050565b83421115610a6357836040517f62791302000000000000000000000000000000000000000000000000000000008152600401610a5a9190612a75565b60405180910390fd5b5f7f6e71edae12b1b97f4d1f60370fef10105fa2faae0126114a169c64845d6126c9888888610a918c6112ee565b89604051602001610aa79695949392919061311a565b6040516020818303038152906040528051906020012090505f610ac982611250565b90505f610ad882878787611269565b90508973ffffffffffffffffffffffffffffffffffffffff168173ffffffffffffffffffffffffffffffffffffffff1614610b4c57808a6040517f4b800e46000000000000000000000000000000000000000000000000000000008152600401610b43929190613179565b60405180910390fd5b610b578a8a8a610c30565b50505050505050505050565b5f60015f8473ffffffffffffffffffffffffffffffffffffffff1673ffffffffffffffffffffffffffffffffffffffff1681526020019081526020015f205f8373ffffffffffffffffffffffffffffffffffffffff1673ffffffffffffffffffffffffffffffffffffffff1681526020019081526020015f2054905092915050565b610bed612898565b610bf78383611341565b905092915050565b5f8183610c0c91906131cd565b905092915050565b5f8183610c21919061321a565b905092915050565b5f33905090565b610c3d83838360016113a0565b505050565b5f610c4d8484610b63565b90507fffffffffffffffffffffffffffffffffffffffffffffffffffffffffffffffff811015610ccf5781811015610cc0578281836040517ffb8f41b2000000000000000000000000000000000000000000000000000000008152600401610cb793929190613267565b60405180910390fd5b610cce84848484035f6113a0565b5b50505050565b5f73ffffffffffffffffffffffffffffffffffffffff168373ffffffffffffffffffffffffffffffffffffffff1603610d45575f6040517f96c6fd1e000000000000000000000000000000000000000000000000000000008152600401610d3c9190612b7d565b60405180910390fd5b5f73ffffffffffffffffffffffffffffffffffffffff168273ffffffffffffffffffffffffffffffffffffffff1603610db5575f6040517fec442f05000000000000000000000000000000000000000000000000000000008152600401610dac9190612b7d565b60405180910390fd5b610dc083838361156f565b505050565b5f7f000000000000000000000000000000000000000000000000000000000000000073ffffffffffffffffffffffffffffffffffffffff163073ffffffffffffffffffffffffffffffffffffffff16148015610e4057507f000000000000000000000000000000000000000000000000000000000000000046145b15610e6d577f00000000000000000000000000000000000000000000000000000000000000009050610e78565b610e7561157f565b90505b90565b5f5f610e85610830565b90508065ffffffffffff168310610ed55782816040517fecd3f81e000000000000000000000000000000000000000000000000000000008152600401610ecc92919061329c565b60405180910390fd5b610ede83611614565b915050919050565b5f5f835f018054905090505f5f90505f8290506005831115610f6a575f610f0c8461166d565b84610f1791906132c3565b9050610f25875f0182611807565b5f015f9054906101000a900465ffffffffffff1665ffffffffffff168665ffffffffffff161015610f5857809150610f68565b600181610f6591906132f6565b92505b505b5f610f79875f01878585611819565b90505f8114610fc857610f9a875f01600183610f9591906132c3565b611807565b5f0160069054906101000a900479ffffffffffffffffffffffffffffffffffffffffffffffffffff16610fca565b5f5b94505050505092915050565b6060610fec610fe78363ffffffff16565b61188e565b9050919050565b5f610ffd83610666565b90508160085f8573ffffffffffffffffffffffffffffffffffffffff1673ffffffffffffffffffffffffffffffffffffffff1681526020019081526020015f205f6101000a81548173ffffffffffffffffffffffffffffffffffffffff021916908373ffffffffffffffffffffffffffffffffffffffff1602179055508173ffffffffffffffffffffffffffffffffffffffff168173ffffffffffffffffffffffffffffffffffffffff168473ffffffffffffffffffffffffffffffffffffffff167f3134e8a2e6d97e929a7e54011ea5485d7d196dd5f0ba4d4ef95803e8e3fc257f60405160405180910390a46110fe81836110f98661191d565b61192e565b505050565b5f61115161114c60095f8573ffffffffffffffffffffffffffffffffffffffff1673ffffffffffffffffffffffffffffffffffffffff1681526020019081526020015f20611b9e565b611bad565b9050919050565b5f61116282611c04565b9050919050565b606061119f60057f0000000000000000000000000000000000000000000000000000000000000000611c4a90919063ffffffff16565b905090565b60606111da60067f0000000000000000000000000000000000000000000000000000000000000000611c4a90919063ffffffff16565b905090565b5f6111e943611614565b905090565b5f5f825f018054905090505f811461124657611218835f0160018361121391906132c3565b611807565b5f0160069054906101000a900479ffffffffffffffffffffffffffffffffffffffffffffffffffff16611248565b5f5b915050919050565b5f61126261125c610dc5565b83611cf7565b9050919050565b5f5f5f5f61127988888888611d37565b9250925092506112898282611e1e565b829350505050949350505050565b5f6112a1836112ee565b90508082146112e95782816040517f752d88c00000000000000000000000000000000000000000000000000000000081526004016112e0929190613329565b60405180910390fd5b505050565b5f60075f8373ffffffffffffffffffffffffffffffffffffffff1673ffffffffffffffffffffffffffffffffffffffff1681526020019081526020015f205f815480929190600101919050559050919050565b611349612898565b6113988260095f8673ffffffffffffffffffffffffffffffffffffffff1673ffffffffffffffffffffffffffffffffffffffff1681526020019081526020015f20611f8090919063ffffffff16565b905092915050565b5f73ffffffffffffffffffffffffffffffffffffffff168473ffffffffffffffffffffffffffffffffffffffff1603611410575f6040517fe602df050000000000000000000000000000000000000000000000000000000081526004016114079190612b7d565b60405180910390fd5b5f73ffffffffffffffffffffffffffffffffffffffff168373ffffffffffffffffffffffffffffffffffffffff1603611480575f6040517f94280d620000000000000000000000000000000000000000000000000000000081526004016114779190612b7d565b60405180910390fd5b8160015f8673ffffffffffffffffffffffffffffffffffffffff1673ffffffffffffffffffffffffffffffffffffffff1681526020019081526020015f205f8573ffffffffffffffffffffffffffffffffffffffff1673ffffffffffffffffffffffffffffffffffffffff1681526020019081526020015f20819055508015611569578273ffffffffffffffffffffffffffffffffffffffff168473ffffffffffffffffffffffffffffffffffffffff167f8c5be1e5ebec7d5bd14f71427d1e84f3dd0314c0f7b2291e5b200ac8c7c3b925846040516115609190612a75565b60405180910390a35b50505050565b61157a83838361204f565b505050565b5f7f8b73c3c69bb8fe3d512ecc4cf759cc79239f7b179b0ffacaa9a75d522b39400f7f00000000000000000000000000000000000000000000000000000000000000007f000000000000000000000000000000000000000000000000000000000000000046306040516020016115f9959493929190613350565b60405160208183030381529060405280519060200120905090565b5f65ffffffffffff8016821115611665576030826040517f6dfcc65000000000000000000000000000000000000000000000000000000000815260040161165c9291906133e3565b60405180910390fd5b819050919050565b5f6001821161167e57819050611802565b5f8290505f6001905070010000000000000000000000000000000082106116ae57608082901c9150604081901b90505b6801000000000000000082106116cd57604082901c9150602081901b90505b64010000000082106116e857602082901c9150601081901b90505b62010000821061170157601082901c9150600881901b90505b610100821061171957600882901c9150600481901b90505b6010821061173057600482901c9150600281901b90505b6004821061174057600181901b90505b600181600302901c9050600181858161175c5761175b61340a565b5b048201901c905060018185816117755761177461340a565b5b048201901c9050600181858161178e5761178d61340a565b5b048201901c905060018185816117a7576117a661340a565b5b048201901c905060018185816117c0576117bf61340a565b5b048201901c905060018185816117d9576117d861340a565b5b048201901c90506117fb8185816117f3576117f261340a565b5b0482116120fd565b8103925050505b919050565b5f825f528160205f2001905092915050565b5f5b81831015611883575f61182e8484612108565b90508465ffffffffffff166118438783611807565b5f015f9054906101000a900465ffffffffffff1665ffffffffffff16111561186d5780925061187d565b60018161187a91906132f6565b93505b5061181b565b819050949350505050565b60606118986111df565b65ffffffffffff168265ffffffffffff16146118e0576040517f6ff0714000000000000000000000000000000000000000000000000000000000815260040160405180910390fd5b6040518060400160405280601d81526020017f6d6f64653d626c6f636b6e756d6265722666726f6d3d64656661756c740000008152509050919050565b5f611927826106f5565b9050919050565b8173ffffffffffffffffffffffffffffffffffffffff168373ffffffffffffffffffffffffffffffffffffffff161415801561196957505f81115b15611b99575f73ffffffffffffffffffffffffffffffffffffffff168373ffffffffffffffffffffffffffffffffffffffff1614611a83575f5f6119f460095f8773ffffffffffffffffffffffffffffffffffffffff1673ffffffffffffffffffffffffffffffffffffffff1681526020019081526020015f20610c146119ef86612129565b612196565b79ffffffffffffffffffffffffffffffffffffffffffffffffffff16915079ffffffffffffffffffffffffffffffffffffffffffffffffffff1691508473ffffffffffffffffffffffffffffffffffffffff167fdec2bacdd2f05b59de34da9b523dff8be42e5e38e818c82fdb0bae774387a7248383604051611a78929190613437565b60405180910390a250505b5f73ffffffffffffffffffffffffffffffffffffffff168273ffffffffffffffffffffffffffffffffffffffff1614611b98575f5f611b0960095f8673ffffffffffffffffffffffffffffffffffffffff1673ffffffffffffffffffffffffffffffffffffffff1681526020019081526020015f20610bff611b0486612129565b612196565b79ffffffffffffffffffffffffffffffffffffffffffffffffffff16915079ffffffffffffffffffffffffffffffffffffffffffffffffffff1691508373ffffffffffffffffffffffffffffffffffffffff167fdec2bacdd2f05b59de34da9b523dff8be42e5e38e818c82fdb0bae774387a7248383604051611b8d929190613437565b60405180910390a250505b5b505050565b5f815f01805490509050919050565b5f63ffffffff8016821115611bfc576020826040517f6dfcc650000000000000000000000000000000000000000000000000000000008152600401611bf3929190613497565b60405180910390fd5b819050919050565b5f60075f8373ffffffffffffffffffffffffffffffffffffffff1673ffffffffffffffffffffffffffffffffffffffff1681526020019081526020015f20549050919050565b606060ff5f1b8314611c6657611c5f836121d5565b9050611cf1565b818054611c729061307a565b80601f0160208091040260200160405190810160405280929190818152602001828054611c9e9061307a565b8015611ce95780601f10611cc057610100808354040283529160200191611ce9565b820191905f5260205f20905b815481529060010190602001808311611ccc57829003601f168201915b505050505090505b92915050565b5f6040517f190100000000000000000000000000000000000000000000000000000000000081528360028201528260228201526042812091505092915050565b5f5f5f7f7fffffffffffffffffffffffffffffff5d576e7357a4501ddfe92f46681b20a0845f1c1115611d73575f600385925092509250611e14565b5f6001888888886040515f8152602001604052604051611d9694939291906134be565b6020604051602081039080840390855afa158015611db6573d5f5f3e3d5ffd5b5050506020604051035190505f73ffffffffffffffffffffffffffffffffffffffff168173ffffffffffffffffffffffffffffffffffffffff1603611e07575f60015f5f1b93509350935050611e14565b805f5f5f1b935093509350505b9450945094915050565b5f6003811115611e3157611e30613501565b5b826003811115611e4457611e43613501565b5b0315611f7c5760016003811115611e5e57611e5d613501565b5b826003811115611e7157611e70613501565b5b03611ea8576040517ff645eedf00000000000000000000000000000000000000000000000000000000815260040160405180910390fd5b60026003811115611ebc57611ebb613501565b5b826003811115611ecf57611ece613501565b5b03611f1357805f1c6040517ffce698f7000000000000000000000000000000000000000000000000000000008152600401611f0a9190612a75565b60405180910390fd5b600380811115611f2657611f25613501565b5b826003811115611f3957611f38613501565b5b03611f7b57806040517fd78bce0c000000000000000000000000000000000000000000000000000000008152600401611f729190612b2a565b60405180910390fd5b5b5050565b611f88612898565b825f018263ffffffff1681548110611fa357611fa261352e565b5b905f5260205f20016040518060400160405290815f82015f9054906101000a900465ffffffffffff1665ffffffffffff1665ffffffffffff1681526020015f820160069054906101000a900479ffffffffffffffffffffffffffffffffffffffffffffffffffff1679ffffffffffffffffffffffffffffffffffffffffffffffffffff1679ffffffffffffffffffffffffffffffffffffffffffffffffffff1681525050905092915050565b61205a838383612247565b5f73ffffffffffffffffffffffffffffffffffffffff168373ffffffffffffffffffffffffffffffffffffffff16036120ed575f61209661058b565b90505f6120a1612460565b9050808211156120ea5781816040517f1cb15d260000000000000000000000000000000000000000000000000000000081526004016120e1929190613437565b60405180910390fd5b50505b6120f8838383612483565b505050565b5f8115159050919050565b5f60028284188161211c5761211b61340a565b5b0482841601905092915050565b5f79ffffffffffffffffffffffffffffffffffffffffffffffffffff801682111561218e5760d0826040517f6dfcc650000000000000000000000000000000000000000000000000000000008152600401612185929190613594565b60405180910390fd5b819050919050565b5f5f6121c96121a3610830565b6121b96121af886111ee565b868863ffffffff16565b8761253b9092919063ffffffff16565b91509150935093915050565b60605f6121e183612556565b90505f602067ffffffffffffffff8111156121ff576121fe6130aa565b5b6040519080825280601f01601f1916602001820160405280156122315781602001600182028036833780820191505090505b5090508181528360208201528092505050919050565b5f73ffffffffffffffffffffffffffffffffffffffff168373ffffffffffffffffffffffffffffffffffffffff1603612297578060025f82825461228b91906132f6565b92505081905550612365565b5f5f5f8573ffffffffffffffffffffffffffffffffffffffff1673ffffffffffffffffffffffffffffffffffffffff1681526020019081526020015f2054905081811015612320578381836040517fe450d38c00000000000000000000000000000000000000000000000000000000815260040161231793929190613267565b60405180910390fd5b8181035f5f8673ffffffffffffffffffffffffffffffffffffffff1673ffffffffffffffffffffffffffffffffffffffff1681526020019081526020015f2081905550505b5f73ffffffffffffffffffffffffffffffffffffffff168273ffffffffffffffffffffffffffffffffffffffff16036123ac578060025f82825403925050819055506123f6565b805f5f8473ffffffffffffffffffffffffffffffffffffffff1673ffffffffffffffffffffffffffffffffffffffff1681526020019081526020015f205f82825401925050819055505b8173ffffffffffffffffffffffffffffffffffffffff168373ffffffffffffffffffffffffffffffffffffffff167fddf252ad1be2c89b69c2b068fc378daa952ba7f163c4a11628f55a4df523b3ef836040516124539190612a75565b60405180910390a3505050565b5f79ffffffffffffffffffffffffffffffffffffffffffffffffffff8016905090565b5f73ffffffffffffffffffffffffffffffffffffffff168373ffffffffffffffffffffffffffffffffffffffff16036124cf576124cc600a610bff6124c784612129565b612196565b50505b5f73ffffffffffffffffffffffffffffffffffffffff168273ffffffffffffffffffffffffffffffffffffffff160361251b57612518600a610c1461251384612129565b612196565b50505b61253661252784610666565b61253084610666565b8361192e565b505050565b5f5f61254a855f0185856125a4565b91509150935093915050565b5f5f60ff835f1c169050601f81111561259b576040517fb3512b0c00000000000000000000000000000000000000000000000000000000815260040160405180910390fd5b80915050919050565b5f5f5f858054905090505f8111156127b0575f6125cd876001846125c891906132c3565b611807565b90505f815f015f9054906101000a900465ffffffffffff1690505f825f0160069054906101000a900479ffffffffffffffffffffffffffffffffffffffffffffffffffff1690508765ffffffffffff168265ffffffffffff16111561265e576040517f2520601d00000000000000000000000000000000000000000000000000000000815260040160405180910390fd5b8765ffffffffffff168265ffffffffffff16036126c85786835f0160066101000a81548179ffffffffffffffffffffffffffffffffffffffffffffffffffff021916908379ffffffffffffffffffffffffffffffffffffffffffffffffffff1602179055506127a1565b8860405180604001604052808a65ffffffffffff1681526020018979ffffffffffffffffffffffffffffffffffffffffffffffffffff16815250908060018154018082558091505060019003905f5260205f20015f909190919091505f820151815f015f6101000a81548165ffffffffffff021916908365ffffffffffff1602179055506020820151815f0160066101000a81548179ffffffffffffffffffffffffffffffffffffffffffffffffffff021916908379ffffffffffffffffffffffffffffffffffffffffffffffffffff16021790555050505b80879550955050505050612890565b8560405180604001604052808765ffffffffffff1681526020018679ffffffffffffffffffffffffffffffffffffffffffffffffffff16815250908060018154018082558091505060019003905f5260205f20015f909190919091505f820151815f015f6101000a81548165ffffffffffff021916908365ffffffffffff1602179055506020820151815f0160066101000a81548179ffffffffffffffffffffffffffffffffffffffffffffffffffff021916908379ffffffffffffffffffffffffffffffffffffffffffffffffffff16021790555050505f8492509250505b935093915050565b60405180604001604052805f65ffffffffffff1681526020015f79ffffffffffffffffffffffffffffffffffffffffffffffffffff1681525090565b5f81519050919050565b5f82825260208201905092915050565b8281835e5f83830152505050565b5f601f19601f8301169050919050565b5f612916826128d4565b61292081856128de565b93506129308185602086016128ee565b612939816128fc565b840191505092915050565b5f6020820190508181035f83015261295c818461290c565b905092915050565b5f5ffd5b5f73ffffffffffffffffffffffffffffffffffffffff82169050919050565b5f61299182612968565b9050919050565b6129a181612987565b81146129ab575f5ffd5b50565b5f813590506129bc81612998565b92915050565b5f819050919050565b6129d4816129c2565b81146129de575f5ffd5b50565b5f813590506129ef816129cb565b92915050565b5f5f60408385031215612a0b57612a0a612964565b5b5f612a18858286016129ae565b9250506020612a29858286016129e1565b9150509250929050565b5f8115159050919050565b612a4781612a33565b82525050565b5f602082019050612a605f830184612a3e565b92915050565b612a6f816129c2565b82525050565b5f602082019050612a885f830184612a66565b92915050565b5f5f5f60608486031215612aa557612aa4612964565b5b5f612ab2868287016129ae565b9350506020612ac3868287016129ae565b9250506040612ad4868287016129e1565b9150509250925092565b5f60ff82169050919050565b612af381612ade565b82525050565b5f602082019050612b0c5f830184612aea565b92915050565b5f819050919050565b612b2481612b12565b82525050565b5f602082019050612b3d5f830184612b1b565b92915050565b5f60208284031215612b5857612b57612964565b5b5f612b65848285016129ae565b91505092915050565b612b7781612987565b82525050565b5f602082019050612b905f830184612b6e565b92915050565b5f63ffffffff82169050919050565b612bae81612b96565b82525050565b5f602082019050612bc75f830184612ba5565b92915050565b5f7fff0000000000000000000000000000000000000000000000000000000000000082169050919050565b612c0181612bcd565b82525050565b5f81519050919050565b5f82825260208201905092915050565b5f819050602082019050919050565b612c39816129c2565b82525050565b5f612c4a8383612c30565b60208301905092915050565b5f602082019050919050565b5f612c6c82612c07565b612c768185612c11565b9350612c8183612c21565b805f5b83811015612cb1578151612c988882612c3f565b9750612ca383612c56565b925050600181019050612c84565b5085935050505092915050565b5f60e082019050612cd15f83018a612bf8565b8181036020830152612ce3818961290c565b90508181036040830152612cf7818861290c565b9050612d066060830187612a66565b612d136080830186612b6e565b612d2060a0830185612b1b565b81810360c0830152612d328184612c62565b905098975050505050505050565b5f60208284031215612d5557612d54612964565b5b5f612d62848285016129e1565b91505092915050565b5f65ffffffffffff82169050919050565b612d8581612d6b565b82525050565b5f602082019050612d9e5f830184612d7c565b92915050565b612dad81612ade565b8114612db7575f5ffd5b50565b5f81359050612dc881612da4565b92915050565b612dd781612b12565b8114612de1575f5ffd5b50565b5f81359050612df281612dce565b92915050565b5f5f5f5f5f5f60c08789031215612e1257612e11612964565b5b5f612e1f89828a016129ae565b9650506020612e3089828a016129e1565b9550506040612e4189828a016129e1565b9450506060612e5289828a01612dba565b9350506080612e6389828a01612de4565b92505060a0612e7489828a01612de4565b9150509295509295509295565b5f5f5f5f5f5f5f60e0888a031215612e9c57612e9b612964565b5b5f612ea98a828b016129ae565b9750506020612eba8a828b016129ae565b9650506040612ecb8a828b016129e1565b9550506060612edc8a828b016129e1565b9450506080612eed8a828b01612dba565b93505060a0612efe8a828b01612de4565b92505060c0612f0f8a828b01612de4565b91505092959891949750929550565b5f5f60408385031215612f3457612f33612964565b5b5f612f41858286016129ae565b9250506020612f52858286016129ae565b9150509250929050565b612f6581612b96565b8114612f6f575f5ffd5b50565b5f81359050612f8081612f5c565b92915050565b5f5f60408385031215612f9c57612f9b612964565b5b5f612fa9858286016129ae565b9250506020612fba85828601612f72565b9150509250929050565b612fcd81612d6b565b82525050565b5f79ffffffffffffffffffffffffffffffffffffffffffffffffffff82169050919050565b61300181612fd3565b82525050565b604082015f82015161301b5f850182612fc4565b50602082015161302e6020850182612ff8565b50505050565b5f6040820190506130475f830184613007565b92915050565b7f4e487b71000000000000000000000000000000000000000000000000000000005f52602260045260245ffd5b5f600282049050600182168061309157607f821691505b6020821081036130a4576130a361304d565b5b50919050565b7f4e487b71000000000000000000000000000000000000000000000000000000005f52604160045260245ffd5b5f6080820190506130ea5f830187612b1b565b6130f76020830186612b6e565b6131046040830185612a66565b6131116060830184612a66565b95945050505050565b5f60c08201905061312d5f830189612b1b565b61313a6020830188612b6e565b6131476040830187612b6e565b6131546060830186612a66565b6131616080830185612a66565b61316e60a0830184612a66565b979650505050505050565b5f60408201905061318c5f830185612b6e565b6131996020830184612b6e565b9392505050565b7f4e487b71000000000000000000000000000000000000000000000000000000005f52601160045260245ffd5b5f6131d782612fd3565b91506131e283612fd3565b9250828201905079ffffffffffffffffffffffffffffffffffffffffffffffffffff811115613214576132136131a0565b5b92915050565b5f61322482612fd3565b915061322f83612fd3565b9250828203905079ffffffffffffffffffffffffffffffffffffffffffffffffffff811115613261576132606131a0565b5b92915050565b5f60608201905061327a5f830186612b6e565b6132876020830185612a66565b6132946040830184612a66565b949350505050565b5f6040820190506132af5f830185612a66565b6132bc6020830184612d7c565b9392505050565b5f6132cd826129c2565b91506132d8836129c2565b92508282039050818111156132f0576132ef6131a0565b5b92915050565b5f613300826129c2565b915061330b836129c2565b9250828201905080821115613323576133226131a0565b5b92915050565b5f60408201905061333c5f830185612b6e565b6133496020830184612a66565b9392505050565b5f60a0820190506133635f830188612b1b565b6133706020830187612b1b565b61337d6040830186612b1b565b61338a6060830185612a66565b6133976080830184612b6e565b9695505050505050565b5f819050919050565b5f819050919050565b5f6133cd6133c86133c3846133a1565b6133aa565b612ade565b9050919050565b6133dd816133b3565b82525050565b5f6040820190506133f65f8301856133d4565b6134036020830184612a66565b9392505050565b7f4e487b71000000000000000000000000000000000000000000000000000000005f52601260045260245ffd5b5f60408201905061344a5f830185612a66565b6134576020830184612a66565b9392505050565b5f819050919050565b5f61348161347c6134778461345e565b6133aa565b612ade565b9050919050565b61349181613467565b82525050565b5f6040820190506134aa5f830185613488565b6134b76020830184612a66565b9392505050565b5f6080820190506134d15f830187612b1b565b6134de6020830186612aea565b6134eb6040830185612b1b565b6134f86060830184612b1b565b95945050505050565b7f4e487b71000000000000000000000000000000000000000000000000000000005f52602160045260245ffd5b7f4e487b71000000000000000000000000000000000000000000000000000000005f52603260045260245ffd5b5f819050919050565b5f61357e6135796135748461355b565b6133aa565b612ade565b9050919050565b61358e81613564565b82525050565b5f6040820190506135a75f830185613585565b6135b46020830184612a66565b939250505056fea264697066735822122068b279dc897428b6b570074b941cabcedf5b7a2651f86d34790ec5d72fa6ba0764736f6c63430008230033","linkReferences":{}},"methodIdentifiers":{"CLOCK_MODE()":"4bf5d7e9","DOMAIN_SEPARATOR()":"3644e515","allowance(address,address)":"dd62ed3e","approve(address,uint256)":"095ea7b3","balanceOf(address)":"70a08231","checkpoints(address,uint32)":"f1127ed8","clock()":"91ddadf4","decimals()":"313ce567","delegate(address)":"5c19a95c","delegateBySig(address,uint256,uint256,uint8,bytes32,bytes32)":"c3cda520","delegates(address)":"587cde1e","eip712Domain()":"84b0196e","getPastTotalSupply(uint256)":"8e539e8c","getPastVotes(address,uint256)":"3a46b1a8","getVotes(address)":"9ab24eb0","name()":"06fdde03","nonces(address)":"7ecebe00","numCheckpoints(address)":"6fcfff45","permit(address,address,uint256,uint256,uint8,bytes32,bytes32)":"d505accf","symbol()":"95d89b41","totalSupply()":"18160ddd","transfer(address,uint256)":"a9059cbb","transferFrom(address,address,uint256)":"23b872dd"},"id":54}